:100000000C9489020C94C5130C949A130C946F13DE
:100010000C9444130C9419130C94EE120C94C31208
:100020000C9498120C94BA020C94BA020C94BA0272
:100030000C945C140C94BA020C94BA020C94BA029C
:100040000C94BA020C94BA020C94BA020C94BA0240
:100050000C94BA020C94BA020C94BA020C944E128C
:100060000C94BA020C941A140C94F0130C94BA0267
:100070000C94BA020C94BA020C94BA020C94BA0210
:100080000C94BA020C94BA020C94BA020C94BA0200
:100090000C94BA020C94BA020C94BA020C94BA02F0
:1000A0000C94BA020C94BA020C94BA020C94BA02E0
:1000B0000C94BA020C94BA020C94BA020C94BA02D0
:1000C0000C94BA020C94BA020C94BA020C94BA02C0
:1000D0000C94BA020C94BA020C94BA020C94BA02B0
:1000E0000C94BA020C9444040C9435030C9427032A
:1000F0000C94B70C0C94E5040C9447030C9408037F
:100100000C9414030C943D030C9418040C941D03DC
:100110000C9410030C9414150C942F030C944203AC
:100120000C942A040C94DB030C947B040C940203BF
:100130000C940C030C9421030C9443030C9439038A
:100140000C9417030C942B030C9493090C94DA036E
:100150000C94BC036364696E6F70737578585B00B0
:10016000496E76616C696420706172616D65746559
:1001700072004E6F7420696D706C656D656E74658C
:10018000642079657421006576656E745F657272AE
:10019000006576656E745F72786275660065766577
:1001A0006E745F726F74617279006576656E745FEC
:1001B00070696E737461746573006576656E745FE3
:1001C000696E006576656E745F7374617465006155
:1001D00075746F73746172743D0064656275673D18
:1001E000006465626F756E63653D00696E7465726B
:1001F00076616C3D007761746368646F673D00727F
:10020000786275663D006D656D667265653D00726C
:100210006F746172796366673D0070696E636667CB
:100220003D00616E61696E3D00646967696F3D0004
:10023000626F6172643D0070726F746F636F6C3DCA
:10024000007665723D0069643D007273705F65728F
:10025000726F72007273705F6F6B007273705F69A0
:1002600064007273705F64696167007273705F73BA
:10027000657474696E6773007273705F636667009C
:100280007273705F696E666F007265715F6964009A
:100290007265715F73657474696E677300726571FE
:1002A0005F64696167007265715F636667007265AC
:1002B000715F696E666F007265715F70696E7374ED
:1002C0006174657300636D645F7072696E7400635E
:1002D0006D645F6F757400636D645F77697065004E
:1002E000636D645F666163746F7279726573657460
:1002F00000636D645F726573657400636D645F7342
:10030000746F7000636D645F737461727400636610
:10031000675F6964006366675F7278627566006331
:1003200066675F726F74617279006366675F776199
:10033000746368646F67006366675F6465626F75A6
:100340006E6365006366675F646562756700636618
:10035000675F696E74657276616C006366675F7073
:10036000696E73006366675F696F005B4442475D57
:1003700020005B4442475D20005B4442475D200013
:1003800000002200250028002B002E003100340040
:1003900002010000050108010B01000021002400FA
:1003A00027002A002D003000330001010000040165
:1003B00007010A0100000A0B02090C0D0E080703D1
:1003C0000401000000000000000000000000000028
:1003D000000000000000000000000000000000001D
:1003E00012111000000000000000000000000000DA
:1003F00000000000000000000000010210202008A2
:10040000081020401020408002010201080402016F
:1004100001020408102040808040201008040201DE
:100420008004020180402010080402010804020137
:1004300001020408102040800102040810204080BE
:10044000000020002300260029002C002F0032008D
:100450000001000003010601090105050505070566
:1004600008080808020202020A0A08080404040430
:10047000010101010101010103030303030303035C
:10048000040707070C0C0C0C0C0C0C0C02020202EB
:1004900006060606060606060B0B0B0B0B0B0B0BD4
:1004A00064035B034E03440337032A031F0315034E
:1004B0000E030403FB02F102E002D702CF02C502E1
:1004C000B702AE02A6029D02900289028002780263
:1004D0006B0262025B0254024A0246024102370288
:1004E0003002290222021A020F020602FF01F50160
:1004F000EB01E101DA01CF01C301BA01AA019D01BB
:1005000091018701720160015B4442475D20000058
:10051000141511241FBECFEFD1E2DEBFCDBF00E026
:100520000CBF14E0A0E0B2E0E6E6F5E400E00BBFAB
:1005300002C007900D92A633B107D9F722E1A6E3D6
:10054000B4E001C01D92A434B207E1F712E0C9E89B
:10055000D2E000E006C021970109802FFE010E9431
:10056000601BC838D10780E00807A9F70E9413165E
:100570000C94B1220C940000E9EEF4E0A089B1895A
:1005800082E08C93A485B5851C92A685B78580E111
:100590008C93108EA489B58986E08C93A289B38947
:1005A0008C9180618C93A289B3898C9188608C93A3
:1005B000A289B3898C9180688C930288F389E02D9D
:1005C00080818F7D808308958150823108F05AC0E8
:1005D000E82FF0E08827E051FD4F8F4F0C94601B0F
:1005E00010031403020308030C03420317031D0343
:1005F000210327032B032F033503390342033D0354
:1006000043034703809180008F7780938000089593
:10061000809180008F7DF9CF80918000877FF5CF1A
:1006200084B58F7784BD089584B58F7DFBCF80918D
:10063000B0008F778093B00008958091B0008F7DD7
:10064000F9CF809190008F778093900008958091EA
:1006500090008F7DF9CF80919000877FF5CF8091BA
:10066000A0008F778093A00008958091A0008F7DD7
:10067000F9CF8091A000877FF5CF809120018F77FF
:10068000809320010895809120018F7DF9CF809182
:100690002001877FF5CFCF93DF93282F30E0F9013A
:1006A000EC54FC4F8491F901E650FC4FD491F901D0
:1006B000E65AFB4FC491CC23A1F081110E94E402C1
:1006C000EC2FF0E0EE0FFF1FE05CFB4FA591B49123
:1006D000EC91ED2381E090E009F480E0DF91CF918F
:1006E000089580E090E0FACFCF93DF9390E0FC0193
:1006F000E650FC4F2491865A9B4FFC01849188233D
:10070000C9F090E0880F991FFC01E656FC4FA591B7
:10071000B491FC01E058FC4FC591D49161110DC01A
:100720009FB7F8948C91209582238C9388812823FD
:1007300028839FBFDF91CF910895623051F49FB716
:10074000F8943C91822F809583238C93E8812E2B03
:10075000EFCF8FB7F894EC912E2B2C938FBFEACF6D
:100760002FB7F89460913C0470913D0480913E0451
:1007700090913F042FBF0895FC01218D328D838D10
:10078000948DA901481B590BCA0193700895FC016F
:10079000248135816217730720F48081918100974D
:1007A00029F41092360486E394E00895860F971F8B
:1007B000089508950895AF92BF92CF92DF92EF927D
:1007C000FF920F931F93CF93DF936C017B018B01FB
:1007D000040F151FEB015E01AE18BF08C017D1074B
:1007E00059F06991D601ED91FC910190F081E02DD5
:1007F000C6011995892B79F7C501DF91CF911F911A
:100800000F91FF90EF90DF90CF90BF90AF90089541
:100810002091020530910305809104059091050512
:10082000281B390B337081E0232B09F480E00895F5
:100830004FB7F894FC01258D368D878D90A14FBF61
:100840002817390728F081509C4F821B930B08957D
:100850000197FBCFFC01218D328D838D948D28175C
:10086000390779F0A38DB48DAE0FBF1F91968C918F
:10087000238D348D2F5F3F4F3370348F238F90E063
:1008800008958FEF9FEF0895FC01218D328D838DA8
:10089000948D2817390739F0838D948DE80FF91F4F
:1008A00081A190E008958FEF9FEF0895FC01A78D3F
:1008B000B0A1A80FB91FAF5DBB4F2C91878D90A140
:1008C0000196937090A3878FA689B7892C93A089EE
:1008D000B1898C91837080648C93258D368D878D42
:1008E00090A12817390731F40288F389E02D80811F
:1008F0008F7D80830895FF920F931F93CF93DF9393
:10090000EC0181E0888F2D8D3E8D8F8D98A1281769
:100910003907C9F4E889F989808185FF14C09FB738
:10092000F894EE89FF896083E889F9898081837072
:10093000806480839FBF81E090E0DF91CF911F9121
:100940000F91FF900895F62E0D8D1E8D0F5F1F4F96
:1009500013708F8D98A18017910761F40FB607FC73
:10096000F8CFE889F989808185FFF3CFCE010E9415
:100970005604EFCFED8DFE8DEC0FFD1FEF5DFB4FAD
:10098000F0829FB7F8941E8F0D8FEA89FB898081D2
:100990008062CFCF0F931F93CF93DF938C01D0E072
:1009A000C0E0F801EC0FFD1F6491662341F089EE71
:1009B00094E00E947B04892B11F02196F2CFCE01A6
:1009C000DF91CF911F910F910895CF93DF93EC01A9
:1009D000888D8823B9F0AA89BB89E889F9898C9127
:1009E00085FD03C0808186FD0DC00FB607FCF7CFE3
:1009F0008C9185FFF2CF808185FFEDCFCE010E94E3
:100A00005604E9CFDF91CF91089580E090E0892BE3
:100A100029F00E94080481110E94000080E090E00B
:100A2000892B49F080E090E0892B29F00E9400009A
:100A300081110E94000080E090E0892B49F080E065
:100A400090E0892B29F00E94000081110E94000093
:100A500080E090E0892B49F080E090E0892B29F03C
:100A60000E94000081110C9400000895CF93DF9341
:100A70001F921F92CDB7DEB720913E1230913F12E8
:100A8000CE0101962115310559F4845492419A837F
:100A9000898389819A810F900F90DF91CF9108957A
:100AA000821B930BE0914012F091411230E020E064
:100AB000309751F02E5F3F4F40815181240F351FF9
:100AC0000280F381E02DF4CF820F931FE0CFFC0171
:100AD00082819181923029F491E0813029F490E073
:100AE00003C091E08130D9F793830895CF93DF93CA
:100AF000EC01698388810E94740388810E944B0302
:100B00008A83CE010E9467058B818C831D821E82A1
:100B10001F82188681E08987DF91CF910895A8957B
:100B20000FB6F894A895209160002861209360008A
:100B3000109260000FBE893E23E0920720F1813DB4
:100B400027E0920710F1813A9F4008F189E094E094
:100B5000899F90011124207287708860822B98E110
:100B60000FB6F894A895909360000FBE8093600034
:100B70008091600080648093600080916000886054
:100B800080936000089586E0E2CF87E0E0CF88E0C0
:100B9000DECFDC01ED91FD918081ED91FD919081A1
:100BA000ED91FD916C9163708E2309F064609F2339
:100BB00009F06860E6EEF5E0E60FF11D65956595D4
:100BC0006D936D917D918D919D91099423C01AC073
:100BD00012C016C010C01EC009C014C013C006C089
:100BE00019C009C00DC007C00DC014C062507040CC
:100BF000804090400BC0615070408040904006C0E3
:100C00006E5F01C06F5F7F4F8F4F9F4F9E938E939C
:100C10007E936E93089580914004909141040C94CA
:100C2000C90580914204909143040C94C9058091B8
:100C30004404909145040C94C90580914604909118
:100C400047040C94C90580914804909149040C9480
:100C5000C90580914A0490914B040C94C905AF9248
:100C6000BF92CF92DF92EF92FF920F931F93CF9399
:100C7000DF93D0913812C82F8A3008F4CAE0DC170D
:100C800009F458C0AC2EB12C0E9436059A95A816CE
:100C9000B90608F04FC0E0903612F090371210E01D
:100CA00000E0E114F10491F010E000E0DC1758F4EA
:100CB000C0903912D12CC6010E94AF188C01A60138
:100CC000B7010E945D1CC7010E944B19C0933812E6
:100CD000C5010E94AF186C019093371280933612B1
:100CE000A50170E060E00E94661C01151105F9F095
:100CF0004091391250E0B801C6010E945D1CC80144
:100D00000E944B19EF28B1F0E0913C12F0913D1296
:100D1000309781F06C2F8D2FDF91CF911F910F9124
:100D2000FF90EF90DF90CF90BF90AF90199410920A
:100D30003912E8CFDF91CF911F910F91FF90EF9083
:100D4000DF90CF90BF90AF900895CF93DF93EC01E9
:100D500088819981009711F00E944B19198218829D
:100D60001D821C821B821A82DF91CF910895FC01A3
:100D700080819181009711F00C944B190895FC012A
:100D800001900020E9F73197AF01481B590BBC01D6
:100D900089EE94E00C94DB038EEC92E00C94BF0699
:100DA0008F929F92AF92BF920F931F93CF93DF9337
:100DB000CDB7DEB7A1970FB6F894DEBF0FBECDBF9B
:100DC00019A2423008F44AE08E010F5D1F4F842EB5
:100DD000912CB12CA12CA50194010E94101BE62F8F
:100DE000B901CA01EA30F4F4E05DD801EE938D0157
:100DF000232B242B252B79F790E080E0109719F016
:100E0000CD010E94BF06A1960FB6F894DEBF0FBEBB
:100E1000CDBFDF91CF911F910F91BF90AF909F9069
:100E20008F900895E95CE1CFCF93DF930E94BF06D6
:100E3000EC010E94CC068C0F9D1FDF91CF9108958D
:100E4000CF93DF93EC018BE693E00E94CA04CE01BE
:100E5000DF91CF910C941407009711F00C94BF060A
:100E600090E080E00895CF92DF92EF92FF92CF93CF
:100E7000DF936C01990FEE08FF08F7FE19C06DE2D1
:100E800089EE94E00E947B04EC0166277727CB0172
:100E90006C197D098E099F094AE00E94D0068C0FCB
:100EA0009D1FDF91CF91FF90EF90DF90CF9008953D
:100EB0004AE0C701B601DF91CF91FF90EF90DF903C
:100EC000CF900C94D0060F931F93CF93DF938C0198
:100ED000EB0182E793E00E94CA04C8010E942C073C
:100EE000CE010E943307DF91CF911F910F910C9497
:100EF000CC06682F70E090E080E04AE00C94D006C9
:100F0000CF93DF9381E08093CE0E9BE09093CF0E42
:100F10009CE09093D00E8093CD0E8091D10E909155
:100F2000D20E009711F00E944B198CE090E00E94C5
:100F3000AF18EC0162E08BE00E94740362E08CE089
:100F40000E947403E5E6F4E0E491F0E0EE0FFF1F89
:100F5000E05CFB4FA591B491B983A883E5E0F4E090
:100F600064916C83E6E6F4E0E491F0E0EE0FFF1F9D
:100F7000E05CFB4F259134913B832A83E6E0F4E06B
:100F8000E491ED831F82188619861A864BE35FE190
:100F9000CA010197F1F79C91862F892391E009F40A
:100FA00090E0D9018C91E82309F092609E831B8622
:100FB000D093D20EC093D10EDF91CF9108958F922E
:100FC0009F92AF92BF92CF92DF92EF92FF920F93D8
:100FD0001F93CF93DF93CDB7DEB7C054D1090FB6BF
:100FE000F894DEBF0FBECDBF80E4E8E1F2E0DE01A1
:100FF000119601900D928A95E1F788248A94982C95
:10100000540110E000E0C8010E94EA1A9401282768
:10101000D501C9018F709927AA27BB27880F991F6F
:10102000880F991F41E050E04C0F5D1F840F951F02
:10103000FC01C080D180E280F38034E0B694A794B4
:10104000979487943A95D1F7C824D924EA24FB24AD
:10105000C8010E94EA1A90E044E0959587954A9568
:10106000E1F7092E000CAA0BBB0B8C259D25AE25A4
:10107000BF258F709927AA27BB27880F991F880F34
:10108000991F21E030E02C0F3D1F820F931FFC01C0
:1010900080809180A280B38064E0F694E794D79436
:1010A000C7946A95D1F78C249D24AE24BF248094E4
:1010B0009094A094B0940F5F1F4F0D37F1E01F077D
:1010C00009F0A1CFC501B401C05CDF4F0FB6F894A1
:1010D000DEBF0FBECDBFDF91CF911F910F91FF906B
:1010E000EF90DF90CF90BF90AF909F908F9008953A
:1010F0000F931F93CF93DF931F921F92CDB7DEB74D
:10110000FC0182819381FC012081222381F08B01EB
:101110004AE050E0BE016F5F7F4F0E94D419F80192
:1011200071836083E981FA8181E09081911180E08F
:101130000F900F90DF91CF911F910F9108957F92A3
:101140008F929F92AF92BF92CF92DF92EF92FF92D7
:101150000F931F93CF93DF938DE6C82E8DE0D82E8B
:10116000C3E3DFE010E000E099ED892E92E0992ED4
:1011700029E7E22E24E0F22E37EEA32E32E0B32E42
:10118000F60171906F01872D072C000C990B9F932E
:101190007F921F930F939F928F92FF92EF920E94E4
:1011A000971C08838DB79EB708960FB6F8949EBF1C
:1011B0000FBE8DBF9FE6791609F44BC0E0E77E169F
:1011C00079F1F9E660E07F1661F1198260E0802F25
:1011D0000E9474031A82CE010E9467058B818C8362
:1011E0001D821E821F82188619861F928F93898105
:1011F0001F928F938881282F082E000C330B3F936A
:101200008F93BF92AF92FF92EF920E94971C8DB77F
:101210009EB70A960FB6F8949EBF0FBE8DBF04C04E
:1012200062E0CE010E9476050F5F1F4F2A960634BA
:10123000110509F0A5CFDF91CF911F910F91FF907C
:10124000EF90DF90CF90BF90AF909F908F907F9066
:10125000089561E0E6CFE82FF0E0EE0FFF1FE056C3
:10126000FB4F6591749181E594E00E94E01A81E55D
:1012700094E00895CF9390911102981791F0C82FA0
:10128000809311028CE20E942B090E942C0784E3B8
:1012900094E00E942C078C2F0E947907CF910C9428
:1012A000CC06CF9108958EE20E942B090E942C0754
:1012B00084E394E00E942C07E3E3FFE0AFEEB1E1AA
:1012C0009D0198E78185882391F08381813069F0C1
:1012D00080E38C933A9611962E173F0799F78FEE7D
:1012E00091E10E942C070C94CC0681E3F2CF9C93F1
:1012F000F1CFCF93C82F8CE10E942B090E942C07BD
:1013000084E394E00E942C078C2F0E942B090E94FA
:101310002C07CF910C94CC068BE10E942B090E94E4
:101320002C070C94CC06CF93DF93D82FC62F80E3E5
:101330000E942B090E942C0784E394E00E942C0752
:101340008D2F0E94790783E293E00E942C078C2F57
:101350000E947907DF91CF910C94CC060F931F93D5
:10136000CF93DF938C01EB0186179707D1F0FC0137
:10137000808191810097E9F068817981611571051B
:10138000B1F0428153812C813D814217530778F09F
:101390000E94811C8C819D81F801958384831D822C
:1013A0001C82C801DF91CF911F910F9108950E9477
:1013B0004B1988819981F801918380838A819B816F
:1013C000938382838C819D81958384831982188283
:1013D0001B821A82E4CF0F931F93CF93DF93EC010C
:1013E00088819981009759F02A813B812617370718
:1013F00030F081E0DF91CF911F910F9108958B0123
:101400006F5F7F4F0E947C1B009759F09983888300
:101410001B830A832C813D81232B59F7FC01108209
:10142000E8CF80E0E7CFEF92FF920F931F93CF9327
:10143000DF93EC017B018A01BA010E94EB09811163
:101440000BC0CE010E94A506CE01DF91CF911F9166
:101450000F91FF90EF9008951D830C83B701888151
:1014600099810E94811CF0CFCF93DF93EC01FB01A7
:101470008617970749F0608171816115710541F008
:10148000448155810E94130ACE01DF91CF910895C6
:101490000E94A506F9CFFC011182108213821282EC
:1014A000158214826115710551F0FB010190002035
:1014B000E9F73197AF01461B570B0C94130A0895B7
:1014C000AF92BF92CF92DF92EF92FF920F931F9352
:1014D000CF93DF937C016B015A01890124173507F3
:1014E00020F48B2D5901042F182F60ED72E0C701F5
:1014F0000E944B0AD6011496CD91DC91AC16BD0624
:1015000020F50C171D0708F4E801D601ED91FC91B8
:101510001197EC0FFD1F108110826D917C916A0D67
:101520007B1D61157105E9F0FB0101900020E9F7D1
:101530003197AF01461B570BC7010E94130AF601F2
:1015400080819181C80FD91F1883C701DF91CF9186
:101550001F910F91FF90EF90DF90CF90BF90AF90D1
:101560000895C7010E94A506EACFDF92EF92FF928D
:101570000F931F93CF93DF93CDB7DEB72C970FB6A2
:10158000F894DEBF0FBECDBF18861F821A8619865B
:101590001C861B86BC01CE0107960E94340A8B85EF
:1015A0009C8586349105D8F40B851C85063411057D
:1015B00078F50F5F1F4FB801CE0107960E94EB0927
:1015C000882391F32F8138858B859C8569E273E0B0
:1015D000820F931F0E94811C1C870B87E5CF8634E6
:1015E0009105B1F026E430E050E040E0BE01695FD3
:1015F0007F4FCE0101960E94600ABE016F5F7F4F50
:10160000CE0107960E94AE09CE0101960E94B70650
:1016100066E273E0CE0101960E944B0A10E000E002
:1016200088E7D82E8B859C85081719071CF5B8010B
:10163000CE0107960E94C703FC0160818D819E81C7
:10164000892B71F0E980FA80062E000C770BC70118
:101650000E946D1C009721F08E199F09019639F4A4
:10166000B801CE0107960E94C703FC01D0820F5F2C
:101670001F4FD8CFCE0101960E94B7066F817885A3
:1016800047E450E08DE69DE00E94881CCE0107965D
:101690000E94B70681E02C960FB6F894DEBF0FBE0D
:1016A000CDBFDF91CF911F910F91FF90EF90DF9011
:1016B00008952F923F924F925F926F927F928F92F6
:1016C0009F92AF92BF92CF92DF92EF92FF920F93D1
:1016D0001F93CF93DF9300D000D000D0CDB7DEB7FB
:1016E0008C01D62EF42EE52E5901F901208031808F
:1016F0001182108270E060E0C8010E94C703FC0103
:1017000080818D112BC0F8012481358141E050E0AA
:10171000B801CE0101960E94600ABE016F5F7F4F43
:10172000C8010E94AE09CE0101960E94B706E2CF21
:10173000F801248135812150310950E040E0B801A1
:10174000CE0101960E94600ABE016F5F7F4FC80103
:101750000E94AE09CE0101960E94B706F80164818D
:10176000758161507109C8010E94C703FC01808125
:101770008D15F1F28F2C9E2C712C612C8D2D0D2C42
:10178000000C990B99878887F801848195816214F0
:10179000730404F58F82C92C892B89F04080518015
:1017A00068857985C2010E946D1C009741F07C011B
:1017B000E418F508F6E08F0E911CF7FE3BC0B80167
:1017C0008F819C2D0E94340AF501808191810196C0
:1017D00091838083F80184819581892B09F45CC011
:1017E000008111816D2DDD0C770BC8010E946D1CED
:1017F000009709F451C0801B910B892F881F8827FF
:10180000881F29960FB6F894DEBF0FBECDBFDF91BB
:10181000CF911F910F91FF90EF90DF90CF90BF90ED
:10182000AF909F908F907F906F905F904F903F9080
:101830002F900895970150E040E0B801CE01019645
:101840000E94600ABE016F5F7F4F8F819C2D0E94B6
:10185000AE09CE0101960E94B706F80124813581B8
:10186000A7014F5F5F4FB801CE0101960E94600A49
:10187000BE016F5F7F4FC8010E94AE09CE01019685
:101880000E94B706F5018081918101969183808342
:10189000FFEF6F1A7F0A78CF8FEF9FEFAECFFF92E7
:1018A0000F931F93CF93DF93EC01F62E08811981DC
:1018B000C8010E94EA1AF81621F06F2DC8010E9493
:1018C000F21ACE01DF91CF911F910F91FF900895F1
:1018D000EF92FF920F931F93CF93DF9300D000D02E
:1018E000CDB7DEB780E5E82E8DE0F82E10E000E001
:1018F0001A830983F70161917F01CE0101960E944D
:101900004F0C0F5F1F4F0D37F1E01F0789F70E9443
:10191000DF0769837A838B839C83CE0101967C01E8
:101920001E830D83F70161917F01CE0105960E9410
:101930004F0C0F5F1F4F0138F1E01F0789F7269604
:101940000FB6F894DEBF0FBECDBFDF91CF911F91D0
:101950000F91FF90EF900895FC01808191810E948A
:10196000781C21E0892B09F020E0822F08952F9226
:101970003F924F925F926F927F928F929F92AF921F
:10198000BF92CF92DF92EF92FF920F931F93CF936C
:10199000DF93CDB7DEB7C15CD1090FB6F894DEBFD7
:1019A0000FBECDBFC854DF4F19821882C85BD0402C
:1019B000FC0101900020E9F73197E81BF90BCA54AC
:1019C000DF4F99838883C65BD040AC0130E020E0D4
:1019D0002E173F078CF4DA014F5F5F4F6C912F5F3A
:1019E0003F4F6A33A9F71C92820F931FC854DF4FF1
:1019F00099838883C85BD04080E00E942B09BC019A
:101A0000CE018A549F4F0E94AC0CE82E882309F423
:101A1000FDC1C854DF4F68817981C85BD040CE01D9
:101A200080559F4F0E944B0A60ED72E0CE018856B0
:101A30009F4F0E944B0A60ED72E088E990E08C0FA6
:101A40009D1F06960E944B0A82E090E0C054DF4F33
:101A500099838883C05CD0401A8219821C821B82C1
:101A60001E821D82BE0160557F4FCE0101960E94ED
:101A7000340A9E0120543F4FAE0148565F4F6BE33E
:101A8000CE0101960E94590BCE0101960E94B70625
:101A9000C054DF4F88819981C05CD040813091056E
:101AA00029F560ED72E084EB9DE00E94811CCE017F
:101AB00088569F4F0E94B50A811167C18DE293E05D
:101AC0000E94200746E450E068E770E08DE69DE064
:101AD0000E94661CE4EBFDE088E191E0DF019C01DF
:101AE0001D9221503040E1F7E12C4FC1029709F0DF
:101AF00046C1CE0188569F4F0E94B50A282E8111FB
:101B000004C08DE293E00E942007C655DF4F198282
:101B10001882CA5AD040C455DF4F19821882CC5A55
:101B2000D040C255DF4F19821882CE5AD04068E9A2
:101B300070E06C0F7D1F6A5F7F4FCE0186559F4F0F
:101B40000E94340A8E01085B1F4F58012CE3A20E3D
:101B5000B11C680160ED72E0C8010E944B0A0A5F87
:101B60001F4FA016B106B1F78AE090E0C254DF4FD4
:101B700099838883CE5BD0408E010C571F4FC801DC
:101B80004496F8012FEF3FEF21933193E817F907BF
:101B9000D9F76DE67DE0CE0101960E94811C2E01F1
:101BA00034EA430E511CD20111961C921E921396D8
:101BB0001C921E92129715961C921E921497BE01AB
:101BC00066557F4FC2010E94340A9E0122543F4F46
:101BD000A6016CE2C2010E94590BF82EC2010E94BC
:101BE000B706FF2009F49CC0312C3E01BAEB6B0E06
:101BF000711C4E01ECEB8E0E911CA32CB12CC25427
:101C0000DF4F48815981CE5BD040A416B5060CF059
:101C10006CC0F60126E0329EE00DF11D1124848196
:101C20009581069709F07CC05F924F927F926F92E8
:101C30009F928F9288E393E09F938F9381818F93FC
:101C400080818F930E94C71C0FB6F894DEBF0FBE31
:101C5000CDBF039709F064C0AA0CBB1CF801EA0DC4
:101C6000FB1DD4018D919C9191838083F301808130
:101C700091818734910508F053C0E1E0F0E0EC0F6A
:101C8000FD1FE80FF91F20812D3209F449C02837C4
:101C900009F446C0293619F0203709F041C021E087
:101CA00030E02C0F3D1F820F931FEDE2DC01EC931F
:101CB000D2018D919C918734910590F5F901E80F3F
:101CC000F91F20812D3261F1283751F1293611F0A9
:101CD000203731F5E1E0F0E0EC0FFD1F8E0F9F1F84
:101CE000EDE2DC01EC93339488CF90E080E0841740
:101CF0009507BCF40196B8016E5F7F4FFB019C0114
:101D00004217530759F081909190D801AD90BC9043
:101D1000A814B90429F02F5F3F4FF2CF8B01E7CF12
:101D2000F12C8601045C1F4F06501109C8010E9466
:101D3000B7060C151D05C1F7F1100EC082E493E043
:101D40000E942007CE0186559F4F0E94B706F110D2
:101D500019C081E693E0B4CEC255DF4F4881598166
:101D6000CE5AD0404F5F5F4FC655DF4F68817981B3
:101D7000CA5AD04084EB9DE00E94881CE3CF8EE6D7
:101D800093E09ECE222009F49DCE0E94680C88E943
:101D900090E08C0F9D1F06960E94B706CE018856D4
:101DA0009F4F0E94B706CE0180559F4F0E94B706F5
:101DB000EE2009F4D2C0EDE6FDE001900020E9F745
:101DC000E45BFD4011F40E949F080E9480070E947E
:101DD0008C0980E20E942F06CF53DF4F0FB6F89494
:101DE000DEBF0FBECDBFDF91CF911F910F91FF904E
:101DF000EF90DF90CF90BF90AF909F908F907F90AB
:101E00006F905F904F903F902F90089582E00E94D6
:101E10002B09BC01CE018A549F4F0E94AC0C882331
:101E200021F11A821982BE016F5F7F4FCE018A5461
:101E30009F4F0E947808882309F48FC089819A8176
:101E40009C01215031092930310508F486C08131C7
:101E5000A7E29A0708F081C09093550D8093540D26
:101E60000E94680C0E948C09B7CF84E00E942B0965
:101E7000BC01CE018A549F4F0E94AC0C8823A1F074
:101E80001A821982BE016F5F7F4FCE018A549F4F25
:101E90000E947808882309F460C089819A81909310
:101EA000570D8093560DDCCF83E00E942B09BC01B7
:101EB000CE018A549F4F0E94AC0C882369F1C8540C
:101EC000DF4F88819981C85BD040FC0120812223AB
:101ED00009F443C04AE050E0BE016F5F7F4F0E94AB
:101EE000D419E981FA818081811137C011E0613014
:101EF00009F010E08091510D811779F181E0809314
:101F0000510D81E893E0611102C08AE893E00E94DC
:101F100020071093510DA4CF85E00E942B09BC012E
:101F2000CE018A549F4F0E94AC0C8823D1F01A82B4
:101F30001982BE016F5F7F4FCE018A549F4F0E946E
:101F40007808882351F009811A81C8010E948F0501
:101F50001093530D0093520D83CF83E30E947909B0
:101F60003BCF88E00E942B09BC01CE018A549F4FD1
:101F70000E94AC0C8823B1F0C854DF4F688179818E
:101F8000C85BD040FB0101900020E9F73197E61BC8
:101F9000F70B759710F744E150E088E59DE00E944B
:101FA000881C5ECF89E00E942B09BC01CE018A54B7
:101FB0009F4F0E94AC0C882339F081E0809310027F
:101FC00083E00E943A094ECF8AE00E942B09BC01AF
:101FD000CE018A549F4F0E94AC0C882371F010925E
:101FE000100282E00E943A0910924D0410924E04B1
:101FF00010924F041092500435CF8BE00E942B09B1
:10200000BC01CE018A549F4F0E94AC0C882311F072
:1020100082E3A4CF8CE00E942B09BC01CE018A543C
:102020009F4F0E94AC0C8823B9F010E000E022E33F
:10203000E22EF12C0F3BFFE01F07E4F76FEFC80122
:102040000E94F21AC801B7010E944C1B892B09F4A7
:10205000A8950F5F1F4FEECF8DE00E942B09BC01AA
:10206000CE018A549F4F0E94AC0C8823B9F010E037
:1020700000E092E3E92EF12C0F3F2FE01207E4F786
:102080006FEFC8010E94F21AC801B7010E944C1BF1
:10209000892B09F4A8950F5F1F4FEECF8EE00E94A9
:1020A0002B09BC01CE018A549F4F0E94AC0C88239F
:1020B00009F48FC060ED72E0CE0101960E944B0AD8
:1020C00060ED72E0CE0107960E944B0AC854DF4FC4
:1020D00068817981C85BD040CE01885B9F4F0E94A8
:1020E0004B0A9E012C573F4FAE014F5F5F4F6DE390
:1020F000CE01885B9F4F0E94590BCE01885B9F4F9A
:102100000E94B706CC57DF4F88819981C458D040D0
:10211000029709F05AC04AE050E0BE01685B7F4F69
:1021200089819A810E94D419162F4AE050E0BE019D
:10213000685B7F4F8F8198850E94D419F62E212FDE
:1021400030E0163408F034C081E0F11001C080E0C6
:102150009AE0929FF001939FF00D1124ED5CF04FF7
:102160009181913029F58383208130E0F901EC548D
:10217000FC4F8491F901E650FC4F0491F901E65AB5
:10218000FB4F14911123A1F081110E94E402E12F71
:10219000F0E0EE0FFF1FE058FC4FA591B4918FB710
:1021A000F894EC91F1100FC000950E230C938FBFA3
:1021B0000E948C09CE0107960E94B706CE010196B7
:1021C0000E94B70609CE0E2BF1CF83E30E94790956
:1021D000F1CF8FE00E942B09BC01CE018A549F4FA2
:1021E0000E94AC0C882379F185E993E00E942007D6
:1021F0006DE771E085EA93E00E94C81410E000E00A
:10220000C8010E94EA1A682F70E0C8010E94E01419
:102210000F5F1F4F0D3731E0130791F764E070E057
:1022200085EB93E00E94C814C8010E94EA1A682F47
:1022300070E0C8010E94E0140F5F1F4F013881E079
:10224000180791F70FCE81E10E942B09BC01CE0146
:102250008A549F4F0E94AC0C882309F449C086E140
:102260000E942B090E942C0784E394E00E942C0713
:102270008EE10E942B090E942C0780EC93E00E94C3
:102280002C0786EC93E00E942C078FE10E942B091B
:102290000E942C078FE793E00E942C0786EC93E0C6
:1022A0000E942C0780E20E942B090E942C0788ECD8
:1022B00093E00E942C0786EC93E00E942C0781E2B9
:1022C0000E942B090E942C0786E490E00E943307AD
:1022D00086EC93E00E942C0782E20E942B090E9468
:1022E0002C0780E190E00E9433070E94CC0674CD59
:1022F00082E10E942B09BC01CE018A549F4F0E94AB
:10230000AC0C882301F187E10E942B090E942C0765
:1023100084E394E00E942C0783E20E942B090E9430
:102320002C078DE69DE00E942C0786EC93E00E942E
:102330002C0784E20E942B090E942C0784EB9DE06D
:102340000E942C07D2CF84E10E942B09BC01CE0150
:102350008A549F4F0E94AC0C8823E1F188E10E94CF
:102360002B090E942C0784E394E00E942C0788E24A
:102370000E942B090E942C076091540D7091550DFD
:1023800090E080E04AE00E94D00686EC93E00E9454
:102390002C0789E20E942B090E942C076091560DA0
:1023A0007091570D90E080E04AE00E94D00686ECE4
:1023B00093E00E942C078AE20E942B090E942C07BE
:1023C0008091510D882319F08BE293E0B9CF80ED15
:1023D00093E0B6CF83E10E942B09BC01CE018A5461
:1023E0009F4F0E94AC0C8823B1F189E10E942B0918
:1023F0000E942C0784E394E00E942C0785E20E944F
:102400002B090E942C070E943605BC0190E080E059
:102410004AE00E94D00686EC93E00E942C0786E2F8
:102420000E942B090E942C07809138120E94790784
:1024300086EC93E00E942C0787E20E942B090E9401
:102440002C076091520D7091530D90E080E04AE0AE
:102450000E94D0064ACF85E10E942B09BC01CE0123
:102460008A549F4F0E94AC0C882361F08AE10E943D
:102470002B090E942C0784E394E00E942C0788E536
:102480009DE05ECF8CE10E942B090E942C0784E323
:1024900094E00E942C0782ED93E052CF1F920F929E
:1024A0000FB60F9211242F933F938F939F93AF9367
:1024B000BF9380913C0490913D04A0913E04B09163
:1024C0003F0430913B0423E0230F2D3758F501964C
:1024D000A11DB11D20933B0480933C0490933D04C7
:1024E000A0933E04B0933F04809137049091380448
:1024F000A0913904B0913A040196A11DB11D8093B9
:10250000370490933804A0933904B0933A04BF91F0
:10251000AF919F918F913F912F910F900FBE0F9090
:102520001F90189526E8230F0296A11DB11DD2CF4A
:102530001F920F920FB60F9211240BB60F922F938A
:102540003F934F935F936F937F938F939F93AF933B
:10255000BF93EF93FF93E0910E02F0910F02199554
:10256000FF91EF91BF91AF919F918F917F916F916B
:102570005F914F913F912F910F900BBE0F900FBE27
:102580000F901F9018951F920F920FB60F92112463
:102590000BB60F922F933F934F935F936F937F935D
:1025A0008F939F93AF93BF93EF93FF93E0910C02B0
:1025B000F0910D021995FF91EF91BF91AF919F910D
:1025C0008F917F916F915F914F913F912F910F90DC
:1025D0000BBE0F900FBE0F901F9018951F920F9279
:1025E0000FB60F9211240BB60F922F933F934F9378
:1025F0005F936F937F938F939F93AF93BF93EF936B
:10260000FF93E0910202F09103021995FF91EF917F
:10261000BF91AF919F918F917F916F915F914F91FA
:102620003F912F910F900BBE0F900FBE0F901F90F8
:1026300018951F920F920FB60F9211240BB60F929E
:102640002F933F934F935F936F937F938F939F93BA
:10265000AF93BF93EF93FF93E0910002F0910102DB
:102660001995FF91EF91BF91AF919F918F917F91BC
:102670006F915F914F913F912F910F900BBE0F90F3
:102680000FBE0F901F9018951F920F920FB60F92CA
:1026900011240BB60F922F933F934F935F936F9339
:1026A0007F938F939F93AF93BF93EF93FF93E091AB
:1026B0000A02F0910B021995FF91EF91BF91AF9132
:1026C0009F918F917F916F915F914F913F912F914A
:1026D0000F900BBE0F900FBE0F901F9018951F927A
:1026E0000F920FB60F9211240BB60F922F933F93B8
:1026F0004F935F936F937F938F939F93AF93BF930A
:10270000EF93FF93E0910802F09109021995FF9170
:10271000EF91BF91AF919F918F917F916F915F9159
:102720004F913F912F910F900BBE0F900FBE0F90C6
:102730001F9018951F920F920FB60F9211240BB68F
:102740000F922F933F934F935F936F937F938F934A
:102750009F93AF93BF93EF93FF93E0910602F091A5
:1027600007021995FF91EF91BF91AF919F918F91C2
:102770007F916F915F914F913F912F910F900BBE81
:102780000F900FBE0F901F9018951F920F920FB6CB
:102790000F9211240BB60F922F933F934F935F9399
:1027A0006F937F938F939F93AF93BF93EF93FF9319
:1027B000E0910402F09105021995FF91EF91BF910C
:1027C000AF919F918F917F916F915F914F913F91C9
:1027D0002F910F900BBE0F900FBE0F901F9018956A
:1027E0001F920F920FB60F9211240BB60F922F93D8
:1027F0003F934F935F936F937F938F939F93AF9389
:10280000BF93EF93FF9389EE94E00E945604FF91EB
:10281000EF91BF91AF919F918F917F916F915F9158
:102820004F913F912F910F900BBE0F900FBE0F90C5
:102830001F9018951F920F920FB60F9211240BB68E
:102840000F922F934F935F938F939F93EF93FF93E9
:10285000E091F904F091FA048081E091FF04F09195
:10286000000582FD27C0208180910205909103051B
:1028700001969370409104055091050584179507C2
:1028800059F0E0910205F0910305E751FB4F21A3B8
:102890009093030580930205FF91EF919F918F9193
:1028A0005F914F912F910F900BBE0F900FBE0F9025
:1028B0001F9018958081F0CF1F920F920FB60F9244
:1028C00011240BB60F92EF92FF920F931F932F9349
:1028D0003F934F935F936F937F938F939F93AF93A8
:1028E000BF93EF93FF93CF93DF931F921F92CDB7C8
:1028F000DEB78091DD049091DE04A091DF04B091F9
:10290000E0040196A11DB11D8093DD049093DE04C7
:10291000A093DF04B093E0048FEA9EEBADEABEED36
:102920008093E1049093E204A093E304B093E40461
:102930008DEDE82E84E0F82E0FEB1FE01A8309835B
:10294000F70161917F01CE0101960E944F0C0F5F4C
:102950001F4F0B3CFFE01F0789F70F900F90DF918F
:10296000CF91FF91EF91BF91AF919F918F917F9107
:102970006F915F914F913F912F911F910F91FF9018
:10298000EF900F900BBE0F900FBE0F901F901895F9
:102990000F931F93CF93DF938C01EB0188E095E0B9
:1029A0000E94CA04C8010E942C07CE010E9433076E
:1029B00081ED92E0DF91CF911F910F910C9414075C
:1029C0000F931F93CF93DF93CDB7DEB7A8970FB6C2
:1029D000F894DEBF0FBECDBF7F936F937F936F934D
:1029E0009F938F9386E193E09F938F938E010F5F68
:1029F0001F4F1F930F930E94971C89E793E00E943B
:102A0000CA04C8010E9414070FB6F894DEBF0FBEB7
:102A1000CDBFA8960FB6F894DEBF0FBECDBFDF9135
:102A2000CF911F910F9108951092EC041092EB0436
:102A300088EE93E0A0E0B0E08093ED049093EE0484
:102A4000A093EF04B093F00480EC92E09093EA043A
:102A50008093E90485EC90E09093F6048093F5046C
:102A600084EC90E09093F8048093F70480EC90E07D
:102A70009093FA048093F90481EC90E09093FC0425
:102A80008093FB0482EC90E09093FE048093FD041D
:102A900086EC90E0909300058093FF04109203056C
:102AA0001092020510920505109204051092070578
:102AB000109206051092090510920805EAE0FDE063
:102AC00088E781932DE0E035F207D9F784E6E8E561
:102AD000F2E0ADECBEE001900D928A95E1F78CEB4F
:102AE00092E0E3E3FFE0DF019C011D9221503040C2
:102AF000E1F78FEF8093330F80933D0F8093470F63
:102B00008093510F80935B0F8093650F80936F0FBD
:102B10008093790F8093830F80938D0F8093970F0D
:102B20008093A10F8093AB0F8093B50F8093BF0F5D
:102B30008093C90F8093D30F8093DD0F8093E70FAD
:102B40008093F10F8093FB0F8093051080930F10FB
:102B5000809319108093231080932D108093371049
:102B60008093411080934B108093551080935F1099
:102B7000809369108093731080937D1080938710E9
:102B80008093911080939B108093A5108093AF1039
:102B90008093B9108093C3108093CD108093D71089
:102BA0008093E1108093EB108093F5108093FF10D9
:102BB000809309118093131180931D118093271125
:102BC0008093311180933B118093451180934F1175
:102BD000809359118093631180936D1180937711C5
:102BE0008093811180938B118093951180939F1115
:102BF0008093A9118093B3118093BD118093C71165
:102C00008093D1118093DB118093E51110923712DC
:102C100010923612109238121092391210923B1202
:102C200010923A120895CF93DF9300D01F92CDB740
:102C3000DEB7789484B5826084BD84B5816084BD3C
:102C400085B5826085BD85B5816085BD80916E004A
:102C5000816080936E00109281008091810082607B
:102C600080938100809181008160809381008091B8
:102C700080008160809380008091B10084608093A7
:102C8000B1008091B00081608093B000809191008C
:102C90008260809391008091910081608093910087
:102CA000809190008160809390008091A10082606B
:102CB0008093A1008091A10081608093A100809108
:102CC000A00081608093A0008091210182608093A8
:102CD0002101809121018160809321018091200157
:102CE00081608093200180917A00846080937A00D3
:102CF00080917A00826080937A0080917A0081606E
:102D000080937A0080917A00806880937A00109294
:102D1000C100A89580E20E942F0687EB9CE090936B
:102D20003B1280933A1283E999E090933D1280938D
:102D30003C128DE791E00E94EA1A89838EE791E0C8
:102D40000E94EA1A8A838FE791E00E94EA1A8B8335
:102D500080E891E00E94EA1A8C830E94DF070981D3
:102D60001A812B813C81601771078207930709F054
:102D7000B9C090E5E92E9DE0F92E10E000E0C80111
:102D80000E94EA1AD7018D937D010F5F1F4F0D3707
:102D9000B1E01B07A1F70E94BC0281E00E943A0942
:102DA0008091520D9091530D0E948F05EDE6FDE04C
:102DB00001900020E9F7E45BFD4011F40E949F08B8
:102DC0000E94800781E00E943A0982E00E943A094D
:102DD00081E3E82E8FE0F82E03E31FE0D801199677
:102DE0008C911997882361F08C910E944B03F80114
:102DF00082839181913009F0E1C0C8010E9467058A
:102E0000065F1F4FB1E10F3E1B0741F70DEC1EE0BF
:102E1000F801C480D580C114D104C1F1D6011B963C
:102E20008C91823008F031C1F894C6010E94C90526
:102E3000F60187819085A185B2857894F801468155
:102E4000578160857185481759076A077B07F1F03C
:102E50006C01C41AD50A86839783A087B187C114F1
:102E6000D104A1F0E091310FF091320F309729F0A9
:102E7000B601D80111968C9119958EE294E00E94CA
:102E80002C07C6010E9433070E94CC06065F1F4F25
:102E9000E016F10609F0BCCF80911002882309F4F6
:102EA00012C18091540D9091550D892B09F40BC1DD
:102EB00080914D0490914E04A0914F04B091500424
:102EC000892B8A2B8B2B09F0E2C00E9453090E94A8
:102ED000B00360934D0470934E0480934F0490931D
:102EE0005004F1C00E94BC0281E00E943A0982EEC7
:102EF00093E00E942007E8E5FDE085E1DF011D92F7
:102F00008A95E9F781E08093500D1092510D88EE7B
:102F100093E09093550D8093540D89E190E0909348
:102F2000570D8093560D46E450E068E770E08DE65B
:102F30009DE00E94661CE4EBFDE088E191E0DF018A
:102F40009C011D9221503040E1F780EA9FE0909370
:102F5000530D8093520D0E94680C8CEE93E00E94FA
:102F6000200760E072EC86EF93E00E9463076091B7
:102F7000510D70E08CEF93E00E9463076091540D57
:102F80007091550D81E094E00E9463076091560DA9
:102F90007091570D8BE094E00E9463076091500D93
:102FA00070E089E194E00E9463076091520D709196
:102FB000530D84E294E00E946307F2CE2091560DF7
:102FC0003091570D232B09F418CF923029F491E05A
:102FD000813029F490E003C091E08130D9F7D80125
:102FE00015964D915D916D917C911897452B462BCF
:102FF000472B69F414968C91891709F401CF0E942C
:10300000B003F8016583768387839087F9CE0E94A9
:10301000B003D80115968D909D90AD90BC901897F7
:10302000AB01BC01481959096A097B098091560D09
:103030009091570DB0E0A0E084179507A607B70759
:1030400008F0DECEC8010E946705F801D380D48263
:103050001582168217821086C0808DE20E942B098D
:103060000E942C0784E394E00E942C078C2DCC0C4A
:10307000990B0E9433078AEF93E00E942C078D2D55
:103080000E9479070E94CC06BBCEF894D1CE0E9454
:10309000B00300914D0410914E0420914F043091E3
:1030A0005004AB01BC01401B510B620B730B8091B0
:1030B000540D9091550DB0E0A0E084179507A60738
:1030C000B70708F402CF8091020590910305209183
:1030D000040530910505821B930B9370892BD9F160
:1030E00089EE94E00E942A04182F809139121A3038
:1030F000E1F4E0913612F0913712E80FF11D1082E1
:10310000E0913A12F0913B12309739F06091391208
:103110008091361290913712199510923912E091E0
:103120003612F09137121082CECF90913812891357
:1031300003C0885F0E942F0680913612909137124B
:10314000E091391221E02E0F20933912E80FF92F68
:10315000F11D1083B8CFA8950E9405053DCE0F93B1
:103160001F93CF93DF938230910510F482E090E0BB
:10317000E0914012F091411230E020E0B0E0A0E098
:10318000309799F42115310509F44AC0281B390BF1
:1031900024303105D8F58A819B816115710589F14B
:1031A000FB0193838283FE0111C040815181028122
:1031B000138148175907E0F04817590799F41097F9
:1031C00061F012960C93129713961C933296CF01CE
:1031D000DF91CF911F910F910895009340121093AA
:1031E0004112F4CF2115310551F04217530738F041
:1031F000A901DB019A01BD01DF01F801C1CFEF0197
:10320000F9CF9093411280934012CDCFFE01E20F8F
:10321000F31F819391932250310939832883D7CFAB
:1032200020913E1230913F12232B41F42091140241
:103230003091150230933F1220933E1220911202DA
:10324000309113022115310541F42DB73EB740915D
:10325000160250911702241B350BE0913E12F0919B
:103260003F12E217F307A0F42E1B3F0B2817390774
:1032700078F0AC014E5F5F4F2417350748F04E0FD2
:103280005F1F50933F1240933E12819391939FCFC3
:10329000F0E0E0E09CCFCF93DF930097E9F0FC01F2
:1032A000329713821282A0914012B0914112ED0127
:1032B00030E020E01097A1F420813181820F931F2C
:1032C00020913E1230913F122817390709F061C052
:1032D000F0933F12E0933E12DF91CF910895EA01FF
:1032E000CE17DF07E8F54A815B819E014115510544
:1032F000B1F7E901FB83EA8349915991C40FD51FC6
:10330000EC17FD0761F4808191810296840F951F6F
:10331000E90199838883828193819B838A83F0E08A
:10332000E0E012968D919C9113970097B9F52D913D
:103330003C911197CD010296820F931F20913E126E
:1033400030913F122817390739F6309751F510920E
:10335000411210924012B0933F12A0933E12BCCF84
:10336000D383C28340815181840F951FC817D90729
:1033700061F44E5F5F4F88819981480F591F5183D7
:1033800040838A819B81938382832115310509F0D3
:10339000B0CFF0934112E09340129ECFFD01DC01CB
:1033A000C0CF13821282D7CF3F924F925F926F921B
:1033B0007F928F929F92AF92BF92CF92DF92EF92C5
:1033C000FF920F931F93CF93DF935C016B017A0100
:1033D0006115710519F0FB0191838083E114F104FB
:1033E00049F0C7010297839728F060E070E0CB01B5
:1033F0009BC05E01E5012196F5011081812F90E0CF
:103400000E94D71A892BA9F71D3209F05CC02196BA
:10341000F501118101E0E114F10409F4BBC0F0E110
:10342000EF16F10409F09BC0103341F488818F7DC1
:10343000883509F08FC0198122960260E0E1EE2EF6
:10344000F12C88248A94982CA82CFFE0BF2E20E031
:1034500060E070E0CB0127010F2C000C66087708B4
:10346000FE0150ED352E310E39E0331568F43FEB97
:10347000310F49EC342E3A3130F03FE9310F3A3117
:10348000B0F539EA332E310E3E141F0484F52F3F78
:10349000B9F086169706A806B90638F1A30192017D
:1034A0000E94001B232D30E050E040E0620F731FAC
:1034B000841F951F6217730784079507B0F021E0FA
:1034C00021961081CDCF1B3221F4E5012296F50122
:1034D000118100E0A0CF78E0E72EF12C88248A94B7
:1034E000982CA82C6FE1B62EB2CF2FEFE9CFC114E4
:1034F000D10431F0222351F12197F601D183C08309
:1035000000FF07C090958095709561957F4F8F4F14
:103510009F4F2F3F49F482E290E0909343128093B3
:1035200042126FEF7FEFCB01DF91CF911F910F918F
:10353000FF90EF90DF90CF90BF90AF909F908F90D3
:103540007F906F905F904F903F90089501FFD8CF8C
:103550002297D3CF10E3E114F10409F4BCCF3AE091
:10356000E316F104E9F080E1E816F10409F466CF0E
:10357000E8E0EE16F10409F4B1CF6FEF7FEFCB0175
:1035800097010F2C000C440B550B0E94101B490196
:103590005A015DCF103309F449CF9AE0E92EF12C9E
:1035A00089E9882E982CA82C89E1B82E50CF91114A
:1035B0000C94E71A803219F089508550C8F70895A5
:1035C000FB01DC0105900D920020E1F70895992799
:1035D00088270895F999FECF92BD81BDF89A992761
:1035E00080B50895262FF999FECF1FBA92BD81BDEF
:1035F00020BD0FB6F894FA9AF99A0FBE0196089575
:10360000DB018F939F930E94321BBF91AF91A29FCA
:10361000800D911DA39F900DB29F900D11240895D0
:10362000A1E21A2EAA1BBB1BFD010DC0AA1FBB1FC6
:10363000EE1FFF1FA217B307E407F50720F0A21B38
:10364000B30BE40BF50B661F771F881F991F1A94A5
:1036500069F760957095809590959B01AC01BD01CF
:10366000CF0108950E943D1BA59F900DB49F900D22
:10367000A49F800D911D11240895A29FB001B39FB6
:10368000C001A39F700D811D1124911DB29F700D6B
:10369000811D1124911D089597FB072E16F40094A7
:1036A00007D077FD09D00E94681B07FC05D03EF4C7
:1036B000909581959F4F0895709561957F4F0895DE
:1036C000EE0FFF1F881F8BBF0790F691E02D199416
:1036D000AA1BBB1B51E107C0AA1FBB1FA617B70738
:1036E00010F0A61BB70B881F991F5A95A9F7809554
:1036F0009095BC01CD0108954F925F926F927F9299
:103700008F929F92AF92BF92CF92DF92EF92FF92F1
:103710000F931F93CF93DF938C01009799F4CB0104
:10372000DF91CF911F910F91FF90EF90DF90CF909D
:10373000BF90AF909F908F907F906F905F904F90D1
:103740000C94AF18FC01E60FF71F9C0122503109C1
:10375000E217F30708F4AEC0D901CD91DC911197BF
:10376000C617D70720F1C530D10578F0CE010497F0
:103770008617970750F0C61BD70B2297C193D1939A
:103780006D937C93CF010E944B19C801DF91CF91BB
:103790001F910F91FF90EF90DF90CF90BF90AF906F
:1037A0009F908F907F906F905F904F9008955B01F6
:1037B000AC1ABD0A4C018C0E9D1EA0914012B09116
:1037C0004112512C412CF12CE12C109731F58091B4
:1037D0003E1290913F128815990509F05CC046167B
:1037E000570608F058C0809112029091130200977A
:1037F00041F48DB79EB74091160250911702841B79
:10380000950BE817F90708F055C0F0933F12E093C5
:103810003E12F90171836083B8CF8D919C9111970D
:1038200012966C90129713967C901397A815B90571
:1038300059F56C0142E0C40ED11CCA14DB0420F11E
:10384000AC014A195B09DA011296159780F0628281
:10385000738251834083D9016D937C93E114F10409
:1038600071F0D7011396FC93EE9312978ECF2296A8
:103870008C0F9D1FF90191838083F301EFCFF093AB
:103880004112E093401281CF4816590608F42C01EA
:103890007D01D3019ACFCB010E94AF187C01009724
:1038A00049F0AE01B8010E945D1CC8010E944B198D
:1038B00087016BCF10E000E068CFFB01DC0102C0A4
:1038C00001900D9241505040D8F70895DC0101C09D
:1038D0006D9341505040E0F70895FC0181918617A7
:1038E00021F08823D9F7992708953197CF010895BA
:1038F000FB01DC018D91019080190110D9F3990B26
:103900000895FB01DC0101900D920020E1F708957C
:10391000FB01DC014150504048F001900D92002025
:10392000C9F701C01D9241505040E0F708950F9330
:103930001F93CF93DF93CDB7DEB72E970FB6F894D2
:10394000DEBF0FBECDBF0E891F8986E08C831A8330
:1039500009838FEF9FE79E838D83AE01465E5F4FA5
:10396000688D798DCE0101960E94E91C2F813885E2
:10397000020F131FF80110822E960FB6F894DEBFC7
:103980000FBECDBFDF91CF911F910F910895CF93BF
:10399000DF93CDB7DEB72E970FB6F894DEBF0FBE1C
:1039A000CDBF85E08C838C899D899A838983AE0104
:1039B000485E5F4F6E897F89CE0101960E949520F7
:1039C0002E960FB6F894DEBF0FBECDBFDF91CF911C
:1039D00008952F923F924F925F926F927F928F92B3
:1039E0009F92AF92BF92CF92DF92EF92FF920F938E
:1039F0001F93CF93DF9300D000D000D01F921F926F
:103A0000CDB7DEB77C013B018A01FC01178216822B
:103A1000838181FFDDC1CE0101965C01F7019381B5
:103A2000F30193FD859193FF81913F01882309F470
:103A300053C1853239F493FD859193FF81913F0104
:103A4000853229F4B70190E00E940B22E7CF912C38
:103A5000212C312CFFE1F31538F08B3211F190F469
:103A6000803209F1833229F137FC3CC020ED280F68
:103A70002A3050F536FE20C08AE0989E200D112491
:103A8000922E06C08D3291F0803371F7689430F831
:103A9000F30193FD859193FF81913F018111DACF6D
:103AA00021C0689431F8689432F8F2CF689433F802
:103AB000EFCF689434F8ECCFEAE02E9E200D11246D
:103AC000222E689435F8E4CF8E3229F436FC04C1F6
:103AD000689436F8DDCF8C3619F4689437F8D8CF6F
:103AE0008836B1F2982F9F7D95549330E0F083365D
:103AF000A1F18337C1F1833509F063C02801F2E0F9
:103B00004F0E511CF801C080D180692D70E036FC49
:103B100002C06FEF7FEFC6010E94B9214C0168948B
:103B200037F882010AC00C5F1F4FFFE3F983882436
:103B30008394912C6501E89437F833FE2DC0522C04
:103B40008114910471F5552009F468CFB70180E222
:103B500090E00E940B225A94F6CFF801808189836D
:103B60000E5F1F4FE4CF2801F2E04F0E511CF80109
:103B7000C080D180692D70E036FC02C06FEF7FEF0E
:103B8000C6010E94C4214C018201D5CFB70180E259
:103B900090E00E940B222A942814190409F0B0F72F
:103BA000CECFF60137FC859137FE81916F01B701C9
:103BB00090E00E940B2251105A94F1E08F1A910864
:103BC000BFCF843619F0893609F077C0F80137FE87
:103BD0006BC060817181828193810C5F1F4FF32DD7
:103BE000FF763F2E97FF09C090958095709561955F
:103BF0007F4F8F4F9F4F689437F82AE030E0A50140
:103C00000E945322C82ECA188C2C432C36FE0CC09E
:103C1000E89440F8C91440F434FE05C032FC03C0F7
:103C2000F32DFE7E4F2E892C44FEAAC0FE01EC0D22
:103C3000F11D8081803309F09CC0242D297E422E05
:103C4000842D8870582E43FCAAC040FEA4C09C2C32
:103C5000821418F42C0C922C981844FEA6C0B701BC
:103C600080E390E00E940B2242FE09C088E790E0CA
:103C700041FE02C088E590E0B7010E940B22C91402
:103C800008F49FC0CA94D12C9FEFC91AD90ACA0C54
:103C9000DB1CF60182916F01B70190E00E940B22BC
:103CA000AC14BD04B1F74FCF60817181072E000CB9
:103CB000880B990B0E5F1F4F92CFD32CE894D4F84A
:103CC0002AE030E08537E1F1232D297FD22E8F368F
:103CD000A9F1F0F4883551F1F701868197812B968F
:103CE0000FB6F894DEBF0FBECDBFDF91CF911F910D
:103CF0000F91FF90EF90DF90CF90BF90AF909F908B
:103D00008F907F906F905F904F903F902F9008958D
:103D1000803749F0883701F7D4FE02C06894D2F8A2
:103D200020E130E00DC06894D4F8F6CF34FE03C033
:103D3000822F8660D82E20E132E002C028E030E0F9
:103D4000F801D7FE0FC060817181828193810C5F81
:103D50001F4FA5010E945322C82ECA183D2CE8947B
:103D600037F852CF6081718190E080E00E5F1F4F85
:103D7000F0CF42FC02C0839463CF8394839460CFDE
:103D8000842D867809F45CCFF6CFB70180E290E00D
:103D90000E940B2283948214C0F3512C5ECF522CCC
:103DA0005818821408F459CFF8CF842D867809F476
:103DB00066CF8BE241FE80E247FC8DE2B70190E0E6
:103DC0005CCFB70180E390E00E940B229A9457CF1A
:103DD0008FEF9FEF84CF20FD09C0FC0123FD05C0BC
:103DE00022FF02C07383628351834083089544FDA0
:103DF00017C046FD1DC0DB01FC01AA0FBB1FEE1F53
:103E0000FF1F1094D1F76A0F7B1F8E1F9F1F660F35
:103E1000771F881F991F620F711D811D911D0895C5
:103E200033E0660F771F881F991F3150D1F7F3CF0A
:103E300034E0F7CF0F931F93CF93DF938C01C8012A
:103E40000E94CF21EC0197FD08C00E94D71A892B50
:103E5000B1F7B801CE010E943B22CE01DF91CF9194
:103E60001F910F9108958F929F92AF92BF92EF9200
:103E7000FF920F931F93CF93DF938C01D62F7A017C
:103E8000B22E0E94CF219C0133272B32310529F01D
:103E90002D323105A9F46894B7F8D15061F480E06F
:103EA000DF91CF911F910F91FF90EF90BF90AF9056
:103EB0009F908F900895C8010E94CF2197FDEFCF6A
:103EC000CB2DCD7F2B2D2073F9F48033E9F4AA2478
:103ED000AA94AD0E89F0C8010E94CF2197FD0CC0B5
:103EE000282F2F7D283561F4C264D25029F0C801F3
:103EF0000E94CF2197FF08C0812C912C54011BC038
:103F0000B6FE2BC0C260DA2D812C912C540120ED1D
:103F1000280F283028F1C4FD09C02A3008F1C6FF57
:103F200005C02F7D3FEE320F3630C8F0B8010E9439
:103F30003B22C1FFB4CFC7FF08C0B094A0949094B7
:103F40008094811C911CA11CB11C2C2FB501A401D3
:103F5000C7010E94EB1E81E0A3CFC261D4CF2750DE
:103F60004C2FC501B4010E94F71E4B015C01C260D9
:103F7000D15009F3C8010E94CF2197FFC8CFD9CFF4
:103F80007F928F929F92AF92BF92CF92DF92EF92E9
:103F9000FF920F931F93CF93DF93CDB7DEB7A09718
:103FA0000FB6F894DEBF0FBECDBF5C01962E7A012E
:103FB000CE0101966C0180E2F60111928A95E9F733
:103FC000F501B381890130E020E0712C812CA0E063
:103FD00041E050E0F801B3FD8591B3FF8191982F46
:103FE0008F01811117C010E000E0C801A0960FB644
:103FF000F894DEBF0FBECDBFDF91CF911F910F911F
:10400000FF90EF90DF90CF90BF90AF909F908F90F8
:104010007F9008958E3519F42115310541F1A217CD
:1040200013064CF48D3549F18D3229F4811006C008
:10403000882483941DC0882009F464C0E92FE69584
:10404000E695E695EC0DFD2DF11D892F8770BA01DF
:1040500001C0660F8A95EAF78081682B6083791624
:1040600051F0971510F49F5FE9CF9150E7CFA1E091
:104070002F5F3F4FAFCF812CFBCF882019F08E816F
:1040800080628E83AA2359F0F6019E012F5D3F4F77
:104090008081809580833196E217F307C9F78824E1
:1040A0008394C5010E94CF2197FD16C0E82FE695A5
:1040B000E695E695EC0DFD2DF11D208130E0AC017B
:1040C0004770552702C0359527954A95E2F720FDA0
:1040D00006C0B5010E943B22882069F084CFE1141C
:1040E000F10429F0F7018083C70101967C019A94BD
:1040F000812C9110D6CFE114F10409F476CFF701A9
:10410000108273CFE82FE695E695E695EC0DFD2D30
:10411000F11D982F9770BA0101C0660F9A95EAF7C2
:104120009081692B6083782EA3CF5F926F927F92EC
:104130008F929F92AF92BF92CF92DF92EF92FF92B7
:104140000F931F93CF93DF936C01EB015A01FC0196
:1041500017821682512CF601E380FE01E3FC859163
:10416000E3FE8191182FEF018823E9F090E00E948F
:10417000D71A892B21F0C6010E941A1FECCF1532E5
:1041800041F4FE01E3FC1591E3FE1191EF011532BC
:1041900069F4C6010E94CF2197FD8EC01817D9F28D
:1041A000B6010E943B22852D90E08AC000E01A32C1
:1041B00031F4E3FC1591E3FE1191EF0101E0F12CE4
:1041C00020ED210F2A3048F101FF37C0FF2059F3BD
:1041D0001836B1F11C3609F43DC0112321F3612FCB
:1041E00070E084E591E00E94AE21892BE1F2912CF0
:1041F000812C00FD06C0F50180809180C5010296EA
:104200005C011E3679F5F6014681578170E060E069
:10421000202FC4010E94EB1E9ECF02606F2D70E024
:1042200090E080E040E20E94F71EF62EFE01E3FCE3
:104230001591E3FE1191EF01C3CFFF24FA94C8CF8B
:10424000FE01E3FC1591E3FE1191EF01183609F030
:10425000C4CF08600460FE01E3FC1591E3FE1191F8
:10426000EF01BBCF1336C1F401FD02C0FF24F3946C
:10427000C6010E94CF2197FD1FC08114910429F02F
:10428000F4018083C40101964C01FA94F110F0CF3F
:1042900000FD61CF53945FCF1B3511F59E01A40142
:1042A0006F2DC6010E94C01FEC01892B89F7F60112
:1042B0008381807309F477CF8FEF9FEF511073CF15
:1042C000DF91CF911F910F91FF90EF90DF90CF90F2
:1042D000BF90AF909F908F907F906F905F90089568
:1042E000C6010E941A1F97FDE7CF1F36A9F130F4CF
:1042F000143641F0193639F0006405C01337B9F0AF
:104300001537D1F70062202FA4016F2DC6010E943E
:10431000331F8111BDCFCBCF8114910429F0F4015B
:104320006082C40101964C01FA94FF2071F0C6012D
:104330000E94CF213C0197FD08C00E94D71A892B0B
:1043400059F3B601C3010E943B228114910409F480
:104350009FCFF40110829CCF0061D5CFFC01059066
:10436000061621F00020D9F7C00108953197CF013A
:104370000895FC010590615070400110D8F78095B8
:1043800090958E0F9F1F0895FC0161507040019021
:104390000110D8F7809590958E0F9F1F0895CF93A9
:1043A000DF93EC012B8120FF1AC026FF0CC02F7B6E
:1043B0002B838E819F8101969F838E838A8190E0DB
:1043C000DF91CF91089522FF18C0E881F9818081A3
:1043D000082E000C990B009729F420622B838FEF95
:1043E0009FEFEECF3196F983E8832E813F812F5FD7
:1043F0003F4F3F832E839927E3CFEA85FB851995AD
:1044000097FFF3CF2B81019621F080E2822B8B83E3
:10441000E6CF80E1FBCF0F931F93CF93DF93182F4D
:10442000092FEB018B8181FD09C01FEF0FEF812F59
:10443000902FDF91CF911F910F91089582FF14C0AB
:104440002E813F818C819D81281739073CF4E881BA
:10445000F981CF0101969983888310838E819F8192
:1044600001969F838E83E3CFE885F985812F199587
:10447000892BA1F3DACFFB01238120FF11C026FD98
:104480000FC08F3F980771F082832F7D20642383B4
:104490002681378121503109378326839927089552
:1044A0008FEF9FEF0895FA01AA27283051F12031AC
:1044B00081F1E8946F936E7F6E5F7F4F8F4F9F4FB8
:1044C000AF4FB1E03ED0B4E03CD0670F781F891FFA
:1044D0009A1FA11D680F791F8A1F911DA11D6A0FC8
:1044E000711D811D911DA11D20D009F468943F917B
:1044F0002AE0269F11243019305D3193DEF6CF017A
:104500000895462F4770405D4193B3E00FD0C9F73F
:10451000F6CF462F4F70405D4A3318F0495D31FDAC
:104520004052419302D0A9F7EACFB4E0A6959795FF
:10453000879577956795BA95C9F7009761057105D5
:1045400008959B01AC010A2E06945795479537951F
:104550002795BA95C9F7620F731F841F951FA01D79
:064560000895F894FFCF5E
:10456600DA03DA03DA03DA03DA03DA03DA03DA035D
:104576000001000044128000000000006410B71D16
:10458600C8206E3BAC30D9269041DC76F4516B6B7B
:104596005861B24D3C7105502083B8ED44930FF03D
:1045A600E8A3D6D68CB361CBB0C2649BD4D2D386F3
:1045B60078E20AA01CF2BDBD00FFFFFF000019FC57
:1045C600FFFF00FFFFFF000019FCFFFF00FFFFFFDA
:1045D600000019FCFFFF00FFFFFF000019FCFFFFB2
:1045E60000FFFFFF000019FCFFFF00FFFFFF0000B8
:1045F60019FCFFFF00FFFFFF000019FCFFFF00FF93
:10460600FFFF000019FCFFFF00FFFFFF000019FC81
:10461600FFFF00FFFFFF000019FCFFFF0000000086
:104626007B04DB031804E504BC032A0444040D0AD6
:1046360000206279746573290050696E4E6F3A25C1
:1046460064203D20256300446967494F202D205092
:10465600696E4E6F3D25642C204D6F64653D256463
:104666002C2053746174653D256420286469736148
:10467600626C65642900253033643A25355820205C
:104686002563002D3E00696F707800310050696E19
:1046960073206572726F7200253275253275253268
:1046A6007500526F7461727920636F6E6669672058
:1046B600737472696E67206E6F742076616C6964BC
:1046C60000526F74617279206572726F7200456E66
:1046D6007472696573206E6F742031206F72203298
:1046E600004465627567204F4E0020446562756719
:1046F600204F464600454550524F4D20636F6E741D
:10470600656E74730073657474696E6773202873BD
:10471600697A653D00637263202873697A653D0096
:10472600322E302E32003B004D6567612032353621
:104736003000554E4B4E4F574E204D455353414733
:104746004500435243204552524F520053657474FC
:10475600696E67733A00426175643D004462673D65
:1047660000496E74657276616C3D004465626F75D2
:104776006E636554696D653D004175746F53746170
:1047860072743D005761746368646F673A00524FF4
:06479600544152593A00A3
:00000001FF
