:100000000C9421020C9458130C9431130C940A1381
:100010000C94E3120C9449020C9449020C94BC1207
:100020000C9449020C9449020C947F130C94EE1327
:100030000C9420160C9449020C9449020C94490229
:100040000C9449020C9449020C9449020C94490204
:100050000C9449020C9449020C9449020C947212BB
:100060000C9449020C9449020C9449020C944902E4
:100070000C9449020C9449020C9449020C944902D4
:100080000C9449020C9449020C9449020C944902C4
:100090000C9449020C9449020C9449020C944902B4
:1000A0000C9449020C9449020C9449026364696EF1
:1000B0006F70737578585B00496E76616C69642067
:1000C000706172616D65746572004E6F7420696D48
:1000D000706C656D656E746564207965742100656A
:1000E00076656E745F657272006576656E745F72B8
:1000F00078627566006576656E745F726F746172A2
:1001000079006576656E745F70696E73746174658D
:1001100073006576656E745F696E006576656E74F2
:100120005F7374617465006175746F737461727468
:100130003D0064656275673D006465626F756E635E
:10014000653D00696E74657276616C3D007761741F
:100150006368646F673D0072786275663D006D6527
:100160006D667265653D00726F7461727963666772
:100170003D0070696E6366673D00616E61696E3D4A
:1001800000646967696F3D00626F6172643D007071
:10019000726F746F636F6C3D007665723D006964C9
:1001A0003D007273705F6572726F72007273705F80
:1001B0006F6B007273705F6964007273705F646963
:1001C0006167007273705F73657474696E67730042
:1001D0007273705F636667007273705F696E666FDB
:1001E000007265715F6964007265715F7365747434
:1001F000696E6773007265715F646961670072653B
:10020000715F636667007265715F696E666F007229
:1002100065715F70696E73746174657300636D649A
:100220005F7072696E7400636D645F6F75740063F4
:100230006D645F7769706500636D645F66616374A8
:100240006F7279726573657400636D645F72657354
:10025000657400636D645F73746F7000636D645FD9
:100260007374617274006366675F696400636667D4
:100270005F7278627566006366675F726F74617241
:1002800079006366675F7761746368646F670063B2
:1002900066675F6465626F756E6365006366675F5E
:1002A0006465627567006366675F696E7465727620
:1002B000616C006366675F70696E73006366675F99
:1002C000696F005B4442475D20005B4442475D200C
:1002D000005B4442475D2000080B00020202000060
:1002E0000904000001020200000524001001052499
:1002F000010101042402060524060001070581030B
:1003000010004009040100020A0000000705020273
:1003100040000007058302400000040309041201A5
:100320000002EF0201404123378000010102030176
:1003300041726475696E6F204C4C43004172647564
:10034000696E6F204D6963726F0000000000250028
:1003500028002B002E0031000000000024002700A0
:100360002A002D0030000000000200090F000003E9
:100370000401000C0000000000000000000000006C
:1003800000000000000408020110408040102040DE
:10039000804080080204018040201002011080107B
:1003A00020404020000000002300260029002C00EF
:1003B0002F000404040404030405020202020403DF
:1003C00002020202060606060606040402020204EF
:1003D00004BC02B302A6029C028F02820277026D65
:1003E0000266025C025302490238022F0227021DF4
:1003F000020F020602FE01F501E801E101D801D079
:1004000001C301BA01B301AC01A2019E0199018FA0
:1004100001880181017A01720167015E0157014D76
:100420000143013901320127011B0112010201F5CB
:1004300000E900DF00CA00B8005B4442475D2000CD
:10044000061711241FBECFEFDAE0DEBFCDBF13E0E9
:10045000A0E0B1E0E8EBF7E402C005900D92A23411
:10046000B107D9F726E0A2E4B3E001C01D92AC3F8A
:10047000B207E1F712E0C1E2D2E004C02197FE0129
:100480000E94201DC032D107C9F70E9489170C9421
:10049000DA230C940000FC0180910804882311F1F8
:1004A0003FB7F89482E08093E9002091F200822F18
:1004B00090E01816190614F481E090E0882339F0D2
:1004C000289A44E6409307044091F1004083222398
:1004D00039F02091F200211103C02BE62093E800AF
:1004E0003FBF08958FEF9FEF08952FB7F89483E0F3
:1004F0008093E9009091E800892F807295FF04C0F5
:100500009091F20080E4891B2FBF089580915803D9
:1005100081110DC082E08093540384E080935503E1
:10052000109257031092560381E08093580384E59C
:1005300093E0089581508F3008F047C0E82FF0E035
:10054000EC55FD4F0C94201DC102C502B302B90247
:10055000BD02E502E502E502C802CE02D202D602E1
:10056000DC02E502E002809180008F7780938000BA
:100570000895809180008F7DF9CF80918000877FE2
:10058000F5CF84B58F7784BD089584B58F7DFBCF7B
:10059000809190008F7780939000089580919000D3
:1005A0008F7DF9CF80919000877FF5CF8091C0003B
:1005B0008F778093C00008958091C0008F7DF9CF20
:1005C0008091C200877F8093C2000895CF93DF930C
:1005D000282F30E0F901EA59FC4F8491F901EB57DB
:1005E000FC4FD491F901EE54FC4FC491CC23A1F0FF
:1005F00081110E949A02EC2FF0E0EE0FFF1FEC55E4
:10060000FC4FA591B491EC91ED2381E090E009F4C9
:1006100080E0DF91CF91089580E090E0FACFCF9312
:10062000DF9390E0FC01EB57FC4F24918E549C4FDC
:10063000FC0184918823C9F090E0880F991FFC0188
:10064000E85AFC4FA591B491FC01E65BFC4FC591C3
:10065000D49161110DC09FB7F8948C91209582239D
:100660008C938881282328839FBFDF91CF910895A1
:10067000623051F49FB7F8943C91822F8095832388
:100680008C93E8812E2BEFCF8FB7F894EC912E2B23
:100690002C938FBFEACF3FB7F8948091500390918D
:1006A0005103A0915203B091530326B5A89B05C0F6
:1006B0002F3F19F00196A11DB11D3FBFBA2FA92FE1
:1006C000982F8827BC01CD01620F711D811D911DDE
:1006D00042E0660F771F881F991F4A95D1F708954A
:1006E000CF92DF92EF92FF920E944B036B017C014D
:1006F0000E944B036C197D098E099F09683E734067
:1007000081059105A8F3FF90EF90DF90CF900895B9
:100710002FB7F89460914C0370914D0380914E0374
:1007200090914F032FBF0895FC01248135816217FA
:10073000730720F480819181009729F41092480377
:1007400088E493E00895860F971F0895089508950B
:10075000409144035091450320914203309143035B
:1007600042175307B4F49091E8009570E1F390912B
:10077000E80092FD19C08093F100809144039091AC
:10078000450301968F739927892B19F48EEF809377
:10079000E8008091440390914503019690934503AE
:1007A0008093440381E0089580E00895DF92EF9202
:1007B000FF920F931F93CF93DF93D82E8A01EB0103
:1007C0007B01E40EF51ECE15DF0559F0D7FE12C0F1
:1007D000FE0184910E94A80321968111F4CF0FEFAE
:1007E0001FEFC801DF91CF911F910F91FF90EF9004
:1007F000DF9008958881EECF0F931F93CF93DF93FF
:100800001F92CDB7DEB782E0898342E450E068ED05
:1008100072E080E80E94D6030E948602DC011296F4
:100820000D911C910115110589F0D801ED91FC91F4
:100830000280F381E02DBE016F5F7F4FC8010995F3
:1008400097FD04C0F80100851185ECCF89810F90D8
:10085000DF91CF911F910F910895615030F0209159
:10086000F100FC0120830196F8CF289A84E680935A
:10087000070408958F929F92AF92BF92CF92DF921A
:10088000EF92FF920F931F93CF93DF936C017B0145
:100890008A0180910B01882309F458C080910804D3
:1008A000882309F453C08091490380FF05C08091DB
:1008B000E00082608093E000E801B12C8AEFA82E6E
:1008C00093E0892E2AE3922E209711F4BB20B9F1F0
:1008D0000E947502811106C0AA94AA20B9F10E9453
:1008E0007003F2CF8C171D0611F00CF08C2F9FB700
:1008F000F8948092E9002091E80025FD02C09FBF96
:10090000E3CF282F30E0C21BD30BF701815020F03A
:1009100041914093F100FACFE20EF31EBB2021F08B
:100920009092E800B12CEBCF8091E80085FDE7CFF5
:100930009092E800BB24B394209709F3F3CF5D9A1B
:1009400084E680934703101611063CF081E090E0A6
:10095000F6019383828310E000E0C801DF91CF911C
:100960001F910F91FF90EF90DF90CF90BF90AF90CD
:100970009F908F900895CF93DF931F92CDB7DEB7EE
:100980006983DC01ED91FC910280F381E02D41E06F
:1009900050E0BE016F5F7F4F09950F90DF91CF91BF
:1009A00008950F931F93CF93DF938C01D0E0C0E0A5
:1009B000F801EC0FFD1F6491662341F089E094E09B
:1009C0000E94BB04892B11F02196F2CFCE01DF915A
:1009D000CF911F910F91089583E08093E90080915A
:1009E000F200882319F08AE38093E80008950E94BA
:1009F000750290E00895CF93DF931F92CDB7DEB7D5
:100A0000FC018485958597FD08C02FEF3FEF358762
:100A100024870F90DF91CF910895CE0101960E9417
:100A20004B02019719F4898190E0F3CF8FEF9FEF8C
:100A3000F0CF0F931F93CF93DF931F92CDB7DEB705
:100A40008C01FC018485958597FF0BC0CE01019632
:100A50000E944B02019771F4898190E0F80195871B
:100A60008487F801848595850F90DF91CF911F9140
:100A70000F9108958FEF9FEFF1CFFC01848595854D
:100A800097FD0BC09FB7F89482E08093E9008091B6
:100A9000F2009FBF90E0019608959FB7F89482E01E
:100AA0008093E9008091F2009FBF90E00895CF937A
:100AB000DF9300D0CDB7DEB72091F6063091F70670
:100AC000CE0101962115310559F48C5F96409A8329
:100AD000898389819A810F900F90DF91CF9108953A
:100AE000821B930BE091F806F091F90630E020E0CC
:100AF000309751F02E5F3F4F40815181240F351FB9
:100B00000280F381E02DF4CF820F931FE0CFFC0130
:100B100082819181923029F491E0813029F490E032
:100B200003C091E08130D9F793830895CF93DF9389
:100B3000EC01698388810E940F0388810E94E6028C
:100B40008A83CE010E9487058B818C831D821E8241
:100B50001F82188681E08987DF91CF910895A8953B
:100B60000FB6F894A895209160002861209360004A
:100B7000109260000FBE893E23E0920720F1813D74
:100B800027E0920710F1813A9F4008F189E094E054
:100B9000899F90011124207287708860822B98E1D0
:100BA0000FB6F894A895909360000FBE80936000F4
:100BB0008091600080648093600080916000886014
:100BC00080936000089586E0E2CF87E0E0CF88E080
:100BD000DECFDC01ED91FD918081ED91FD91908161
:100BE000ED91FD916C9163708E2309F064609F23F9
:100BF00009F06860E6E0F6E0E60FF11D65956595A1
:100C00006D936D917D918D919D91099423C01AC032
:100C100012C016C010C01EC009C014C013C006C048
:100C200019C009C00DC007C00DC014C0625070408B
:100C3000804090400BC0615070408040904006C0A2
:100C40006E5F01C06F5F7F4F8F4F9F4F9E938E935C
:100C50007E936E93089580916003909161030C944C
:100C6000E90580916203909163030C94E9058091FA
:100C70006403909165030C94E9058091660390915B
:100C800067030C94E90580916803909169030C94C3
:100C9000E905AF92BF92CF92DF92EF92FF920F934E
:100CA0001F93CF93DF93D091F006C82F8A3008F4BA
:100CB000CAE0DC1709F458C0AC2EB12C0E945705CD
:100CC0009A95A816B90608F04FC0E090EE06F0908D
:100CD000EF0610E000E0E114F10491F010E000E014
:100CE000DC1758F4C090F106D12CC6010E94501AAE
:100CF0008C01A601B7010E94F71DC7010E94EC1AE2
:100D0000C093F006C5010E94501A6C019093EF0643
:100D10008093EE06A50170E060E00E94001E0115C0
:100D20001105F9F04091F10650E0B801C6010E94AA
:100D3000F71DC8010E94EC1AEF28B1F0E091F4060B
:100D4000F091F506309781F06C2F8D2FDF91CF91C8
:100D50001F910F91FF90EF90DF90CF90BF90AF90D9
:100D600009941092F106E8CFDF91CF911F910F9176
:100D7000FF90EF90DF90CF90BF90AF900895CF930A
:100D8000DF93EC0188819981009711F00E94EC1AA1
:100D9000198218821D821C821B821A82DF91CF91D8
:100DA0000895FC0180819181009711F00C94EC1A58
:100DB0000895FC0101900020E9F73197AF01481B2D
:100DC000590BBC0189E094E00C943A048BED91E05E
:100DD0000C94D9068F929F92AF92BF920F931F935C
:100DE000CF93DF93CDB7DEB7A1970FB6F894DEBFF0
:100DF0000FBECDBF19A2423008F44AE08E010F5D4C
:100E00001F4F842E912CB12CA12CA50194010E947E
:100E1000991CE62FB901CA01EA30F4F4E05DD8016B
:100E2000EE938D01232B242B252B79F790E080E086
:100E3000109719F0CD010E94D906A1960FB6F8942B
:100E4000DEBF0FBECDBFDF91CF911F910F91BF903D
:100E5000AF909F908F900895E95CE1CFCF93DF939F
:100E60000E94D906EC010E94E6068C0F9D1FDF91BF
:100E7000CF910895CF93DF93EC0183EC92E00E9431
:100E8000D104CE01DF91CF910C942E07009711F081
:100E90000C94D90690E080E00895CF92DF92EF9213
:100EA000FF92CF93DF936C01990FEE08FF08F7FED6
:100EB00019C06DE289E094E00E94BB04EC01662752
:100EC0007727CB016C197D098E099F094AE00E94A2
:100ED000EA068C0F9D1FDF91CF91FF90EF90DF907E
:100EE000CF9008954AE0C701B601DF91CF91FF90FE
:100EF000EF90DF90CF900C94EA060F931F93CF935F
:100F0000DF938C01EB018AEC92E00E94D104C801CE
:100F10000E944607CE010E944D07DF91CF911F919D
:100F20000F910C94E606682F70E090E080E04AE0B4
:100F30000C94EA06CF93DF9381E0809333059BE026
:100F4000909334059CE09093350580933205809111
:100F5000360590913705009711F00E94EC1A8CE04D
:100F600090E00E94501AEC0162E08BE00E940F03B7
:100F700062E08CE00E940F03EDEBF3E0E491F0E01F
:100F8000EE0FFF1FEC55FC4FA591B491B983A883D8
:100F9000E0E9F3E064916C83EEEBF3E0E491F0E0E0
:100FA000EE0FFF1FEC55FC4F259134913B832A83B4
:100FB000E1E9F3E0E491ED831F82188619861A8631
:100FC0004BE35FE1CA010197F1F79C91862F8923DA
:100FD00091E009F490E0D9018C91E82309F0926046
:100FE0009E831B86D0933705C0933605DF91CF9142
:100FF00008958F929F92AF92BF92CF92DF92EF921D
:10100000FF920F931F93CF93DF93CDB7DEB7C054FA
:10101000D1090FB6F894DEBF0FBECDBF80E4EEE17C
:10102000F1E0DE01119601900D928A95E1F7882496
:101030008A94982C540110E000E0C8010E94731CAF
:1010400094012827D501C9018F709927AA27BB27AA
:10105000880F991F880F991F41E050E04C0F5D1FCA
:10106000840F951FFC01C080D180E280F38034E0C2
:10107000B694A794979487943A95D1F7C824D92425
:10108000EA24FB24C8010E94731C90E044E095957B
:1010900087954A95E1F7092E000CAA0BBB0B8C250E
:1010A0009D25AE25BF258F709927AA27BB27880FBE
:1010B000991F880F991F21E030E02C0F3D1F820FF0
:1010C000931FFC0180809180A280B38064E0F6943D
:1010D000E794D794C7946A95D1F78C249D24AE24C5
:1010E000BF2480949094A094B0940F5F1F4F0A3B4C
:1010F000110509F0A2CFC501B401C05CDF4F0FB6E6
:10110000F894DEBF0FBECDBFDF91CF911F910F913D
:10111000FF90EF90DF90CF90BF90AF909F908F9017
:1011200008950F931F93CF93DF9300D0CDB7DEB711
:10113000FC0182819381FC012081222381F08B01BB
:101140004AE050E0BE016F5F7F4F0E94751BF801BF
:1011500071836083E981FA8181E09081911180E05F
:101160000F900F90DF91CF911F910F9108957F9273
:101170008F929F92AF92BF92CF92DF92EF92FF92A7
:101180000F931F93CF93DF9385E9C82E84E0D82E69
:10119000C8E9D5E010E000E096EE892E91E0992EA6
:1011A00027E9E22E23E0F22E34EFA32E31E0B32E16
:1011B000F60171906F01872D072C000C990B9F93FE
:1011C0007F921F930F939F928F92FF92EF920E94B4
:1011D000311E08838DB79EB708960FB6F8949EBF50
:1011E0000FBE8DBF9FE6791609F44BC0E0E77E166F
:1011F00079F1F9E660E07F1661F1198260E0802FF5
:101200000E940F031A82CE010E9487058B818C8376
:101210001D821E821F82188619861F928F938981D4
:101220001F928F938881282F082E000C330B3F9339
:101230008F93BF92AF92FF92EF920E94311E8DB7B3
:101240009EB70A960FB6F8949EBF0FBE8DBF04C01E
:1012500062E0CE010E9496050F5F1F4F2A960F3164
:10126000110509F0A5CFDF91CF911F910F91FF904C
:10127000EF90DF90CF90BF90AF909F908F907F9036
:10128000089561E0E6CFE82FF0E0EE0FFF1FEF5288
:10129000FC4F659174918FE693E00E94691C8FE684
:1012A00093E00895CF9390911701981791F0C82F6C
:1012B000809317018CE20E9443090E9446078FE346
:1012C00093E00E9446078C2F0E949307CF910C94C5
:1012D000E606CF9108958EE20E9443090E944607D8
:1012E0008FE393E00E944607E8E9F5E0AEECB6E054
:1012F0009D0198E78185882391F08381813069F091
:1013000080E38C933A9611962E173F0799F78EEC4F
:1013100096E00E9446070C94E60681E3F2CF9C9388
:10132000F1CFCF93C82F8CE10E9443090E9446075A
:101330008FE393E00E9446078C2F0E9443090E948E
:101340004607CF910C94E6068BE10E9443090E9468
:1013500046070C94E606CF93DF93D82FC62F80E381
:101360000E9443090E9446078FE393E00E944607CC
:101370008D2F0E94930780E392E00E9446078C2FF6
:101380000E949307DF91CF910C94E6060F931F9371
:10139000CF93DF938C01EB0186179707D1F0FC0107
:1013A000808191810097E9F06881798161157105EB
:1013B000B1F0428153812C813D814217530778F06F
:1013C0000E941B1E8C819D81F801958384831D8260
:1013D0001C82C801DF91CF911F910F9108950E9447
:1013E000EC1A88819981F801918380838A819B819D
:1013F000938382838C819D81958384831982188253
:101400001B821A82E4CF0F931F93CF93DF93EC01DB
:1014100088819981009759F02A813B8126173707E7
:1014200030F081E0DF91CF911F910F9108958B01F2
:101430006F5F7F4F0E943A1D009759F09983888310
:101440001B830A832C813D81232B59F7FC011082D9
:10145000E8CF80E0E7CFEF92FF920F931F93CF93F7
:10146000DF93EC017B018A01BA010E94030A81111A
:101470000BC0CE010E94BF06CE01DF91CF911F911C
:101480000F91FF90EF9008951D830C83B701888121
:1014900099810E941B1EF0CFCF93DF93EC01FB01DB
:1014A0008617970749F0608171816115710541F0D8
:1014B000448155810E942B0ACE01DF91CF9108957E
:1014C0000E94BF06F9CFFC011182108213821282A2
:1014D000158214826115710551F0FB010190002005
:1014E000E9F73197AF01461B570B0C942B0A08956F
:1014F000AF92BF92CF92DF92EF92FF920F931F9322
:10150000CF93DF937C016B015A01890124173507C2
:1015100020F48B2D5901042F182F6DED71E0C701B8
:101520000E94630AD6011496CD91DC91AC16BD06DB
:1015300020F50C171D0708F4E801D601ED91FC9188
:101540001197EC0FFD1F108110826D917C916A0D37
:101550007B1D61157105E9F0FB0101900020E9F7A1
:101560003197AF01461B570BC7010E942B0AF601AA
:1015700080819181C80FD91F1883C701DF91CF9156
:101580001F910F91FF90EF90DF90CF90BF90AF90A1
:101590000895C7010E94BF06EACFDF92EF92FF9243
:1015A0000F931F93CF93DF93CDB7DEB72C970FB672
:1015B000F894DEBF0FBECDBF18861F821A8619862B
:1015C0001C861B86BC01CE0107960E944C0A8B85A7
:1015D0009C858F319105D8F40B851C850F31110541
:1015E00070F50F5F1F4FB801CE0107960E94030AE6
:1015F000882391F32F8138858B859C8566E372E083
:10160000820F931F0E941B1E1C870B87E5CF4F97ED
:10161000B1F02FE130E050E040E0BE01695F7F4F64
:10162000CE0101960E94780ABE016F5F7F4FCE0106
:1016300007960E94C609CE0101960E94D10663E377
:1016400072E0CE0101960E94630A10E000E088E794
:10165000D82E8B859C85081719071CF5B801CE017B
:1016600007960E949403FC0160818D819E81892BE5
:1016700071F0E980FA80062E000C770BC7010E94FA
:10168000071E009721F08E199F09019639F4B801C1
:10169000CE0107960E949403FC01D0820F5F1F4F7A
:1016A000D8CFCE0101960E94D1066F81788540E2A5
:1016B00050E085E994E00E94221ECE0107960E9428
:1016C000D10681E02C960FB6F894DEBF0FBECDBFD9
:1016D000DF91CF911F910F91FF90EF90DF900895D0
:1016E0002F923F924F925F926F927F928F929F9232
:1016F000AF92BF92CF92DF92EF92FF920F931F9320
:10170000CF93DF93CDB7DEB729970FB6F894DEBF3E
:101710000FBECDBF8C01D62EF42EE52E5901F90156
:10172000208031801182108270E060E0C8010E9448
:101730009403FC0180818D112BC0F8012481358137
:1017400041E050E0B801CE0101960E94780ABE0146
:101750006F5F7F4FC8010E94C609CE0101960E94AB
:10176000D106E2CFF801248135812150310950E0C2
:1017700040E0B801CE0101960E94780ABE016F5F79
:101780007F4FC8010E94C609CE0101960E94D10672
:10179000F8016481758161507109C8010E94940348
:1017A000FC0180818D15F1F28F2C9E2C712C612C07
:1017B0008D2D0D2C000C990B99878887F801848159
:1017C00095816214730404F58F82C92C892B89F0EA
:1017D0004080518068857985C2010E94071E00976C
:1017E00041F07C01E418F508F6E08F0E911CF7FE3D
:1017F0003BC0B8018F819C2D0E944C0AF50180816D
:101800009181019691838083F80184819581892B50
:1018100009F45CC0008111816D2DDD0C770BC801CE
:101820000E94071E009709F451C0801B910B892F5D
:10183000881F8827881F29960FB6F894DEBF0FBE31
:10184000CDBFDF91CF911F910F91FF90EF90DF906F
:10185000CF90BF90AF909F908F907F906F905F9050
:101860004F903F902F900895970150E040E0B801CD
:10187000CE0101960E94780ABE016F5F7F4F8F8173
:101880009C2D0E94C609CE0101960E94D106F80146
:1018900024813581A7014F5F5F4FB801CE010196CA
:1018A0000E94780ABE016F5F7F4FC8010E94C6097F
:1018B000CE0101960E94D106F501808191810196A9
:1018C00091838083FFEF6F1A7F0A78CF8FEF9FEFAE
:1018D000AECFFF920F931F93CF93DF93EC01F62EC1
:1018E00008811981C8010E94731CF81621F06F2D20
:1018F000C8010E947B1CCE01DF91CF911F910F91F7
:10190000FF900895EF92FF920F931F93CF93DF9371
:1019100000D000D000D0CDB7DEB788E7E82E84E055
:10192000F82E10E000E01A830983F70161917F012E
:10193000CE0101960E94690C0F5F1F4F0A3B1105F3
:1019400091F70E94F90769837A838B839C83CE0188
:1019500001967C011E830D83F70161917F01CE0109
:1019600005960E94690C0F5F1F4F0E3B110591F702
:1019700026960FB6F894DEBF0FBECDBFDF91CF9194
:101980001F910F91FF90EF900895FC01808191814C
:101990000E94121E21E0892B09F020E0822F089579
:1019A0002F923F924F925F926F927F928F929F926F
:1019B000AF92BF92CF92DF92EF92FF920F931F935D
:1019C000CF93DF93CDB7DEB7CE59D1090FB6F894D8
:1019D000DEBF0FBECDBFCF56DF4F19821882C1596F
:1019E000D040FC0101900020E9F73197E81BF90B8A
:1019F000C157DF4F99838883CF58D040AC0130E086
:101A000020E02E173F078CF4DA014F5F5F4F6C9197
:101A10002F5F3F4F6A33A9F71C92820F931FCF5657
:101A2000DF4F99838883C159D04080E00E944309E9
:101A3000BC01CE0181579F4F0E94C50CC356DF4F9A
:101A40008883CD59D040882309F40BC2CF56DF4F8D
:101A500068817981C159D040CE0187579F4F0E943C
:101A6000630A6DED71E0CE018F589F4F0E94630AAB
:101A70006DED71E081E790E08C0F9D1F06960E944E
:101A8000630A82E090E0C756DF4F99838883C95983
:101A9000D0401A8219821C821B821E821D82BE01C6
:101AA00067577F4F9E012F5F3F4F7901C9010E9409
:101AB0004C0A9E0127563F4FAE014F585F4F6BE3D4
:101AC000C7010E94700BC7010E94D106C756DF4FA5
:101AD00088819981C959D0408130910531F56DEDEA
:101AE00071E085EB94E00E941B1ECE018F589F4F42
:101AF0000E94CD0A81116FC18CE392E00E943A07E7
:101B00004FE150E068E770E085E994E00E94001E34
:101B1000E5EBF4E08CE7DF011D928A95E9F7C35607
:101B2000DF4F1882CD59D04056C1029709F048C105
:101B3000CE018F589F4F0E94CD0AC256DF4F888337
:101B4000CE59D040811104C08CE392E00E943A0744
:101B5000CD57DF4F19821882C358D040CB57DF4F83
:101B600019821882C558D040C957DF4F1982188290
:101B7000C758D04061E770E06C0F7D1F6A5F7F4FF0
:101B8000CE018D579F4F0E944C0A67018E01035C66
:101B90001F4F6DED71E0C6010E94630A36E0C30E6F
:101BA000D11C0C151D05A9F78AE090E0C956DF4F3E
:101BB00099838883C759D0406E018DE5C80ED11C2A
:101BC000C6014496F6012FEF3FEF21933193E817BA
:101BD000F907D9F765E974E0C8010E941B1E5E0190
:101BE0009DE7A90EB11CD50111961C921E92139669
:101BF0001C921E92129715961C921E921497BE016B
:101C00006D577F4FC5010E944C0A9E0129563F4FD8
:101C1000A7016CE2C5010E94700B982EC5010E94BD
:101C2000D106992009F4A0C0812CC556DF4FB98296
:101C3000A882CB59D0401E01B3E92B0E311C2E01D6
:101C4000E5E94E0E511C682C712CC956DF4FA88057
:101C5000B980C759D0406A147B040CF06AC0F70100
:101C600026E0829EE00DF11D112484819581069766
:101C700009F07AC0C456DF4F3881CC59D0403F9329
:101C8000C556DF4F8881CB59D0408F933F922F921A
:101C90005F924F92A7E4B2E0BF93AF9381818F939D
:101CA00080818F930E94541E0FB6F894DEBF0FBE42
:101CB000CDBF039709F058C0660C771CF601E60DFE
:101CC000F71DD2018D919C9191838083F1018081D8
:101CD00091818032910508F047C0F801E80FF91FA3
:101CE00020812D3209F440C02837F1F1293611F056
:101CF0002037D1F5800F911FEDE2DC01EC93EF96D8
:101D00008EAD9FADEF978032910570F5F801E80F29
:101D1000F91F20812D3241F1283731F1293611F098
:101D2000203711F5800F911FEDE2DC01EC938394D5
:101D30008ACF90E080E08A159B05BCF40196A6014D
:101D40004E5F5F4FFA019C01A216B30659F06191F4
:101D50007191D6016D907C906616770629F02F5F01
:101D60003F4FF2CF6A01E7CF912C06501109C8010D
:101D70000E94D106E016F106C1F791100EC081E570
:101D800092E00E943A07CE018D579F4F0E94D106E4
:101D9000911019C080E792E0B1CEC957DF4F48815A
:101DA0005981C758D0404F5F5F4FCD57DF4F688193
:101DB0007981C358D04085EB94E00E94221EE3CF86
:101DC0008DE792E09BCEC256DF4FB881CE59D0400E
:101DD000BB2309F495CE0E94820C81E790E08C0F22
:101DE0009D1F06960E94D106CE018F589F4F0E94DC
:101DF000D106CE0187579F4F0E94D106C356DF4FB1
:101E0000B881CD59D040BB2309F4D2C0E5E9F4E054
:101E100001900020E9F7E55BF44011F40E94B70857
:101E20000E949A070E94A40980E20E944906C256B5
:101E3000DF4F0FB6F894DEBF0FBECDBFDF91CF915D
:101E40001F910F91FF90EF90DF90CF90BF90AF90D8
:101E50009F908F907F906F905F904F903F902F90CA
:101E6000089582E00E944309BC01CE0181579F4F33
:101E70000E94C50C882321F11A821982BE016F5F6E
:101E80007F4FCE0181579F4F0E949108882309F40C
:101E90008FC089819A819C012150310929303105F7
:101EA00008F486C0813137E2930708F081C090932F
:101EB0007D0480937C040E94820C0E94A409B7CF09
:101EC00084E00E944309BC01CE0181579F4F0E94CC
:101ED000C50C8823A1F01A821982BE016F5F7F4F63
:101EE000CE0181579F4F0E949108882309F460C05A
:101EF00089819A8190937F0480937E04DCCF83E074
:101F00000E944309BC01CE0181579F4F0E94C50C1E
:101F1000882369F1CF56DF4F88819981C159D0401C
:101F2000DC012C91222309F443C04AE050E0BE01B9
:101F30006F5F7F4F0E94751BE981FA81808181115B
:101F400037C011E0613009F010E080917904811709
:101F500079F181E08093790480E992E0611102C017
:101F600089E992E00E943A0710937904A4CF85E0B2
:101F70000E944309BC01CE0181579F4F0E94C50CAE
:101F80008823D1F01A821982BE016F5F7F4FCE0184
:101F900081579F4F0E949108882351F009811A812F
:101FA000C8010E94AF0510937B0400937A0483CF8D
:101FB00083E30E9491093BCF88E00E944309BC0162
:101FC000CE0181579F4F0E94C50C8823B1F0CF5698
:101FD000DF4F68817981C159D040FB010190002019
:101FE000E9F73197E61BF70B759710F744E150E0DE
:101FF00080E894E00E94221E5ECF89E00E9443099F
:10200000BC01CE0181579F4F0E94C50C882339F037
:1020100081E08093160183E00E9452094ECF8AE04E
:102020000E944309BC01CE0181579F4F0E94C50CFD
:10203000882371F01092160182E00E9452091092DA
:102040006B0310926C0310926D0310926E0335CFE8
:102050008BE00E944309BC01CE0181579F4F0E9433
:10206000C50C882311F082E3A4CF8CE00E944309C1
:10207000BC01CE0181579F4F0E94C50C8823B9F047
:1020800010E000E022E3E22EF12C0F3BB3E01B074F
:10209000E4F76FEFC8010E947B1CC801B7010E94E2
:1020A0000C1D892B09F4A8950F5F1F4FEECF8DE013
:1020B0000E944309BC01CE0181579F4F0E94C50C6D
:1020C0008823B9F010E000E092E3E92EF12C0F3FF5
:1020D000E3E01E07E4F76FEFC8010E947B1CC80114
:1020E000B7010E940C1D892B09F4A8950F5F1F4FA3
:1020F000EECF8EE00E944309BC01CE0181579F4F75
:102100000E94C50C882309F48AC06DED71E0CE01F0
:1021100001960E94630A6DED71E0CE0107960E9460
:10212000630ACF56DF4F68817981C159D040CE0113
:10213000CD960E94630A9E01235A3F4FAE014F5F26
:102140005F4F6DE3CE01CD960E94700BCE01CD9610
:102150000E94D1066F968EAD9FAD6F97029709F0E2
:102160005AC04AE050E0BE01635C7F4F89819A818A
:102170000E94751B162F4AE050E0BE01635C7F4F42
:102180008F8198850E94751BF62E212F30E01F311C
:1021900008F034C081E0F11001C080E09AE0929F25
:1021A000F001939FF00D1124E856FA4F9181913080
:1021B00029F58383208130E0F901EA59FC4F8491AD
:1021C000F901EB57FC4F0491F901EE54FC4F1491C7
:1021D0001123A1F081110E949A02E12FF0E0EE0F8D
:1021E000FF1FE65BFC4FA591B4918FB7F894EC917B
:1021F000F1100FC000950E230C938FBF0E94A4090D
:10220000CE0107960E94D106CE0101960E94D1060A
:102210000ECE0E2BF1CF83E30E949109F1CF8FE018
:102220000E944309BC01CE0181579F4F0E94C50CFB
:10223000882369F184EA92E00E943A076AEB70E031
:1022400084EB92E00E94BA1610E000E0C8010E9400
:10225000731C682F70E0C8010E94D2160F5F1F4FD9
:102260000A3B110599F764E070E084EC92E00E946B
:10227000BA16C8010E94731C682F70E0C8010E9442
:10228000D2160F5F1F4F0E3B110599F716CE81E155
:102290000E944309BC01CE0181579F4F0E94C50C8B
:1022A000882309F449C086E10E9443090E94460739
:1022B0008FE393E00E9446078EE10E9443090E944B
:1022C00046078FEC92E00E94460785ED92E00E945F
:1022D00046078FE10E9443090E9446078EE892E07C
:1022E0000E94460785ED92E00E94460780E20E9428
:1022F00043090E94460787ED92E00E94460785ED5C
:1023000092E00E94460781E20E9443090E9446072C
:102310008FE190E00E944D0785ED92E00E94460714
:1023200082E20E9443090E9446078CE090E00E94EE
:102330004D070E94E6067BCD82E10E944309BC0165
:10234000CE0181579F4F0E94C50C882301F187E180
:102350000E9443090E9446078FE393E00E944607CC
:1023600083E20E9443090E94460785E994E00E94A7
:10237000460785ED92E00E94460784E20E944309E9
:102380000E94460785EB94E00E944607D2CF84E185
:102390000E944309BC01CE0181579F4F0E94C50C8A
:1023A0008823E1F188E10E9443090E9446078FE3F8
:1023B00093E00E94460788E20E9443090E94460774
:1023C00060917C0470917D0490E080E04AE00E947E
:1023D000EA0685ED92E00E94460789E20E944309E1
:1023E0000E94460760917E0470917F0490E080E037
:1023F0004AE00E94EA0685ED92E00E9446078AE2E2
:102400000E9443090E94460780917904882319F0AD
:1024100088E392E0B9CF8AE392E0B6CF83E10E94ED
:102420004309BC01CE0181579F4F0E94C50C8823F0
:10243000B1F189E10E9443090E9446078FE393E0CE
:102440000E94460785E20E9443090E9446070E94B7
:102450005705BC0190E080E04AE00E94EA0685ED65
:1024600092E00E94460786E20E9443090E944607C6
:102470008091F0060E94930785ED92E00E94460746
:1024800087E20E9443090E94460760917A04709196
:102490007B0490E080E04AE00E94EA064ACF85E1B2
:1024A0000E944309BC01CE0181579F4F0E94C50C79
:1024B000882361F08AE10E9443090E9446078FE366
:1024C00093E00E94460780E894E05ECF8CE10E9492
:1024D00043090E9446078FE393E00E9446078DED73
:1024E00092E052CF1F920F920FB60F9211242F93AA
:1024F0003F938F939F93AF93BF9380914C039091A1
:102500004D03A0914E03B0914F0330914B0323E054
:10251000230F2D3758F50196A11DB11D20934B03B4
:1025200080934C0390934D03A0934E03B0934F03BD
:102530008091500390915103A0915203B0915303A5
:102540000196A11DB11D8093500390935103A09358
:102550005203B0935303BF91AF919F918F913F91DD
:102560002F910F900FBE0F901F90189526E8230F04
:102570000296A11DB11DD2CF1F920F920FB60F92DE
:1025800011242F933F934F935F936F937F938F9378
:102590009F93AF93BF93EF93FF93E0911401F0915A
:1025A00015010995FF91EF91BF91AF919F918F9187
:1025B0007F916F915F914F913F912F910F900FBE3F
:1025C0000F901F9018951F920F920FB60F92112423
:1025D0002F933F934F935F936F937F938F939F932B
:1025E000AF93BF93EF93FF93E0911201F09113012A
:1025F0000995FF91EF91BF91AF919F918F917F913D
:102600006F915F914F913F912F910F900FBE0F905F
:102610001F9018951F920F920FB60F9211242F93AF
:102620003F934F935F936F937F938F939F93AF935A
:10263000BF93EF93FF93E0911001F0911101099581
:10264000FF91EF91BF91AF919F918F917F916F918A
:102650005F914F913F912F910F900FBE0F901F9060
:1026600018951F920F920FB60F9211242F933F933C
:102670004F935F936F937F938F939F93AF93BF938A
:10268000EF93FF93E0910E01F0910F010995FF91F7
:10269000EF91BF91AF919F918F917F916F915F91DA
:1026A0004F913F912F910F900FBE0F901F90189553
:1026B0001F920F920FB60F9211242F933F934F93B7
:1026C0005F936F937F938F939F93AF93BF93EF939A
:1026D000FF93E0910C01F0910D010995FF91EF91AD
:1026E000BF91AF919F918F917F916F915F914F912A
:1026F0003F912F910F900FBE0F901F9018951F9232
:102700000F920FB60F9211248F939F938091E10047
:102710009091E100937F9093E10083FF0FC01092AE
:10272000E90091E09093EB001092EC0092E390931B
:10273000ED001092080498E09093F00082FF22C010
:1027400093E09093E9009091F200992319F09AE3B5
:102750009093E80090914703992341F090914703AB
:10276000915090934703911101C05D989091070497
:10277000992341F09091070491509093070491118F
:1027800001C0289884FF18C08091E2008E7E81608D
:102790008093E2008091E1008F7E8093E100809140
:1027A00049038E7E8061809349039F918F910F90A2
:1027B0000FBE0F901F90189580FFF7CF8091E20019
:1027C0008E7E80618093E2008091E1008E7E809316
:1027D000E100809149038E7E8160E5CF1F920F92C8
:1027E0000FB60F921124CF92DF92EF92FF920F93C8
:1027F0001F932F933F934F935F936F937F938F9389
:102800009F93AF93BF93EF93FF93CF93DF93CDB796
:10281000DEB76C97DEBFCDBF1092E9008091E80073
:1028200083FF25C068E0CE0145960E942D0482EF0B
:102830008093E8008D8987FF39C09091E80090FF70
:10284000FCCF982F907609F034C19E894F89588D1E
:102850002F89F88C911131C0803861F580914A033D
:102860008093F1001092F1008EEF8093E8006C9657
:102870000FB6F894DEBF0FBECDBFDF91CF91FF91B1
:10288000EF91BF91AF919F918F917F916F915F91E8
:102890004F913F912F911F910F91FF90EF90DF90FB
:1028A000CF900F900FBE0F901F9018959EEF9093B2
:1028B000E800C7CF1092F100D5CF913059F48111C3
:1028C000D3CF4130510581F680914A038D7F8093AB
:1028D0004A03CACF933049F48111C6CF4130510524
:1028E00019F680914A038260F2CF953041F48091CD
:1028F000E80080FFFCCF20682093E300B5CF96303E
:1029000009F0A9C00B8D1C8D22E01092E9001092F5
:10291000450310924403F2122EC01092430310920A
:1029200042030E94FC031F8299E09983FA8291E09E
:102930009E8390EA98879AEF99872091440330917B
:102940004503275F3F4F3C832B838D831092E90023
:1029500010924503109244031093430300934203E3
:1029600049E050E0BE016F5F7F4F80E00E94D603D8
:102970000E94FC0379CF10934303009342030E940B
:102980008602DC0112960D911C910115110509F4C6
:1029900051C1D801ED91FC910480F581E02DBE017B
:1029A0006B5E7F4FC8010995009709F03EC1F801A1
:1029B00000851185EACFF3E0FF120EC08F898823CE
:1029C00009F440C0823061F440E86DE08CE393E0AC
:1029D0000E948716811148CF81E28093EB0047CF98
:1029E000813029F440E86BE080E393E0F1CF83305D
:1029F00099F70E948602DC011296ED90FC908E0100
:102A00000F5F1F4F6801E114F10479F0D701ED91D8
:102A1000FC910680F781E02DB801C7010995080FE8
:102A2000111DF701E084F184EECFD8011C92F6016C
:102A300001900020E9F73197BF016C197D0940E052
:102A4000C601C6CF6AE173E0FB01449150E080E823
:102A50000E94D60309CF973009F4BECF983021F4F5
:102A600081E08093F10000CF993009F0FDCE8370B2
:102A700009F0B2CFE3ECF1E081E031E096E321919F
:102A8000222371F08093E9003093EB00DF0111976E
:102A90002C912093EC009093ED008F5F873079F7B5
:102AA0008EE78093EA001092EA008F8980930804F1
:102AB000DBCE8B8D9C8D1092E90010924503109215
:102AC00044039093430380934203898D811192C004
:102AD0008E899D89913A49F4813209F07DCF47E092
:102AE00050E064E071E080E0B3CF913209F074CF40
:102AF000833269F48F89988DB0E0A0E08093000163
:102B000090930101A0930201B0930301ADCE8032F6
:102B100069F48091E80082FFFCCF67E084E091E0F7
:102B20000E942D048BEF8093E8009ECE823209F044
:102B30009BCE8F8980930B01EEEFFFE785919491F7
:102B40008B3F9C4D51F1E0E0F8E0809104019091C1
:102B50000501A0910601B0910701803B9440A105B9
:102B6000B105F1F480910B0180FD1AC0EE3F8AE0BF
:102B7000F80789F587E797E7918380838091600064
:102B80008093460388E19BE00FB6F894A895809364
:102B900060000FBE9093600067CEEEEFFAE0D5CFF5
:102BA000808191818737974709F05ECEA895809103
:102BB000600088618093600080914603809360008C
:102BC000EE3F2AE0F20789F08091FE0A9091FF0A19
:102BD0009183808349CE808191818737980751F214
:102BE0009093FF0A8093FE0AC5CF1092FF0A1092BD
:102BF000FE0A3ACE0E948602DC0112960D911C91CB
:102C00000115110509F4E8CED801ED91FC91019070
:102C1000F081E02DBE016B5E7F4FC80109958111E7
:102C200023CEF80100851185EBCF181619060CF498
:102C30001BCED2CEF1E0FF12BECE6EE173E004CF28
:102C40001F920F920FB60F921124EF92FF920F93E3
:102C50001F932F933F934F935F936F937F938F9324
:102C60009F93AF93BF93EF93FF93CF93DF9300D0E6
:102C7000CDB7DEB78091FB039091FC03A091FD03DB
:102C8000B091FE030196A11DB11D8093FB039093AB
:102C9000FC03A093FD03B093FE038FEA9EEBADEA25
:102CA000BEED8093FF0390930004A0930104B093C2
:102CB00002048BEFE82E83E0F82E0FEB13E01A836B
:102CC0000983F70161917F01CE0101960E94690C91
:102CD0000F5F1F4F0B3CF3E01F0789F70F900F901A
:102CE000DF91CF91FF91EF91BF91AF919F918F9124
:102CF0007F916F915F914F913F912F911F910F9114
:102D0000FF90EF900F900FBE0F901F901895EF92CD
:102D1000FF920F931F93CF93DF93F82E192FE62E78
:102D2000042F81E0860F880F0E94A80383E00E9491
:102D3000A803CF2DD12FEC0EFD2EF11CCE15DF05F3
:102D4000B9F007FF13C0FE0184910E94A803182F59
:102D500080E00E94A803812321968111EFCFDF91AB
:102D6000CF911F910F91FF90EF9008958881EDCF43
:102D700081E0F5CF0F931F93CF93DF938C01EB018D
:102D800089E394E00E94D104C8010E944607CE0165
:102D90000E944D078EED91E0DF91CF911F910F9131
:102DA0000C942E070F931F93CF93DF93CDB7DEB70D
:102DB000A8970FB6F894DEBF0FBECDBF7F936F9379
:102DC0007F936F939F938F9383E292E09F938F9370
:102DD0008E010F5F1F4F1F930F930E94311E81EDD5
:102DE00092E00E94D104C8010E942E070FB6F89409
:102DF000DEBF0FBECDBFA8960FB6F894DEBF0FBEE4
:102E0000CDBFDF91CF911F910F91089510920C04C7
:102E100010920B0488EE93E0A0E0B0E080930D04E4
:102E200090930E04A0930F04B09310048DEC91E0E6
:102E300090930A04809309048FEF9FEF90931604F8
:102E400080931504E9E5F4E088E7819324E0E8370E
:102E5000F207D9F784E6EEE5F1E0A2E3B5E00190F0
:102E60000D928A95E1F786E391E0E8E9F5E0DF016C
:102E70009C011D9221503040E1F78FEF809398051F
:102E80008093A2058093AC058093B6058093C0051E
:102E90008093CA058093D4058093DE058093E8056E
:102EA0008093F2058093FC058093060680931006BC
:102EB00080931A068093240680932E06809338060A
:102EC0008093420680934C0680935606809360065A
:102ED00080936A068093740680937E0680938806AA
:102EE0008093920680939C068093A6068093B006FA
:102EF0008093BA068093C4061092EF061092EE06F5
:102F00001092F0061092F1061092F3061092F2065B
:102F10000895CF93DF9300D000D0CDB7DEB778947B
:102F200084B5826084BD84B5816084BD85B58260CE
:102F300085BD85B5816085BD80916E00816080937F
:102F40006E001092810080918100826080938100E8
:102F500080918100816080938100809180008160F8
:102F60008093800080919100826080939100809195
:102F700091008160809391008091900081608093A6
:102F800090008091C10084608093C1008091C10055
:102F900082608093C1008091C10081608093C100F4
:102FA0008091C30081608093C3008091C0008260E3
:102FB0008093C0008091C20081608093C2008091A4
:102FC0007A00846080937A0080917A008260809396
:102FD0007A0080917A00816080937A0080917A00F3
:102FE000806880937A001092080410924A0310922D
:102FF00049038091D70081608093D70080EA809355
:10300000D80089B5806189BD89B5826089BD09B460
:1030100000FEFDCF0E9470038091D8008F7C8061FC
:103020008093D8008091E000807F8093E0008091C1
:10303000E1008E7E8093E1008DE08093E200559A5E
:10304000209A5D982898A89580E20E94490680ED14
:103050009CE09093F3068093F2068BEA99E09093BC
:10306000F5068093F4068AEB90E00E94731C898336
:103070008BEB90E00E94731C8A838CEB90E00E94A3
:10308000731C8B838DEB90E00E94731C8C830E94D9
:10309000F90709811A812B813C816017710782072A
:1030A000930709F0C1C028E7E22E24E0F22E10E0D9
:1030B00000E0C8010E94731CD7018D937D010F5F52
:1030C0001F4F0A3B1105A9F78FEF9FEF909316044E
:1030D0008093150481E00E94520980917A049091B6
:1030E0007B040E94AF05E5E9F4E001900020E9F7D8
:1030F000E55BF44011F40E94B7080E949A0781E052
:103100000E94520982E00E94520986E9E82E85E079
:10311000F82E90E0C92E90E0D92E08E915E0F801CC
:103120008185882379F080810E94E602D801129679
:103130008C93129711969C91913009F0E2C0C801CE
:103140000E948705065F1F4FF6E00E3C1F0739F708
:1031500002E315E0D8011496AD90BC90A114B1041F
:10316000B9F1F5018385823008F033C1F894C501C7
:103170000E94E905F50187819085A185B285789443
:10318000F8014681578160857185481759076A079C
:103190007B07F1F05C01A41AB50A86839783A087A8
:1031A000B187A114B104A1F0E0919605F0919705C3
:1031B000309729F0B501D80111968C91099589E3D2
:1031C00093E00E944607C5010E944D070E94E60653
:1031D000065F1F4FE016F10609F0BCCF8091160183
:1031E000882309F414C180917C0490917D04892B7B
:1031F00009F40DC180916B0390916C03A0916D0354
:10320000B0916E03892B8A2B8B2B09F0E4C00E94AE
:103210006B090E94880360936B0370936C03809327
:103220006D0390936E03F3C08FEF9FEF909316049E
:103230008093150481E00E9452098DEE92E00E9475
:103240003A07E0E8F4E085E1DF011D928A95E9F7AD
:1032500081E0809378041092790488EE93E0909353
:103260007D0480937C0489E190E090937F048093B7
:103270007E044FE150E068E770E085E994E00E9449
:10328000001EE5EBF4E08CE7DF011D928A95E9F77B
:1032900080EA9FE090937B0480937A040E94820CE2
:1032A00087EF92E00E943A0760E072EC81E093E0E1
:1032B0000E947D076091790470E087E093E00E94AE
:1032C0007D0760917C0470917D048CE093E00E9406
:1032D0007D0760917E0470917F0486E193E00E94F7
:1032E0007D076091780470E084E293E00E947D079E
:1032F00060917A0470917B048FE293E00E947D07D5
:10330000ECCE20917E0430917F04232B09F417CF5B
:10331000923029F491E0813029F490E003C091E0EB
:103320008130D9F7F8014581568167817085452B39
:10333000462B472B71F48481891709F403CF0E942F
:103340008803D80115966D937D938D939C93189760
:10335000F9CE0E948803F80185809680A780B0840A
:10336000AB01BC01481959096A097B0980917E04A7
:1033700090917F04B0E0A0E084179507A607B707F7
:1033800008F0E0CEC8010E948705D8011396BC90D2
:1033900013971496BC92F801158216821782108634
:1033A000A0808DE20E9443090E9446078FE393E0CC
:1033B0000E9446078A2DAA0C990B0E944D0785E0B2
:1033C00093E00E9446078B2D0E9493070E94E60619
:1033D000B9CEF894CFCE0E94880300916B03109170
:1033E0006C0320916D0330916E03AB01BC01401B57
:1033F000510B620B730B80917C0490917D04B0E0C3
:10340000A0E084179507A607B70708F400CF89E066
:1034100094E00E943D05892BD9F189E094E00E9457
:10342000FB04182F8091F1061A30E1F4E091EE06CA
:10343000F091EF06E80FF11D1082E091F206F09195
:10344000F306309739F06091F1068091EE06909185
:10345000EF0609951092F106E091EE06F091EF0665
:103460001082D5CF9091F006891303C0885F0E9427
:1034700049068091EE069091EF06E091F10621E079
:103480002E0F2093F106E80FF92FF11D1083BFCF07
:10349000A895C114D10409F440CE0E9400003DCE8D
:1034A0000F931F93CF93DF938230910510F482E046
:1034B00090E0E091F806F091F90630E020E0B0E00D
:1034C000A0E0309799F42115310509F44AC0281B72
:1034D000390B24303105D8F58A819B81611571053E
:1034E00089F1FB0193838283FE0111C040815181E8
:1034F0000281138148175907E0F04817590799F4DA
:10350000109761F012960C93129713961C933296B3
:10351000CF01DF91CF911F910F9108950093F8068D
:103520001093F906F4CF2115310551F042175307D6
:1035300038F0A901DB019A01BD01DF01F801C1CF1B
:10354000EF01F9CF9093F9068093F806CDCFFE01F5
:10355000E20FF31F8193919322503109398328831D
:10356000D7CF2091F6063091F706232B41F4209116
:103570001A0130911B013093F7062093F606209133
:103580001801309119012115310541F42DB73EB7CD
:1035900040911C0150911D01241B350BE091F60652
:1035A000F091F706E217F307A0F42E1B3F0B281744
:1035B000390778F0AC014E5F5F4F2417350748F0AC
:1035C0004E0F5F1F5093F7064093F6068193919339
:1035D0009FCFF0E0E0E09CCFCF93DF930097E9F03E
:1035E000FC01329713821282A091F806B091F9067D
:1035F000ED0130E020E01097A1F420813181820FAD
:10360000931F2091F6063091F7062817390709F025
:1036100061C0F093F706E093F606DF91CF9108952D
:10362000EA01CE17DF07E8F54A815B819E0141156B
:103630005105B1F7E901FB83EA8349915991C40F20
:10364000D51FEC17FD0761F4808191810296840FEC
:10365000951FE90199838883828193819B838A8363
:10366000F0E0E0E012968D919C9113970097B9F5E8
:103670002D913C911197CD010296820F931F2091BD
:10368000F6063091F7062817390739F6309751F5C5
:103690001092F9061092F806B093F706A093F6067A
:1036A000BCCFD383C28340815181840F951FC8173B
:1036B000D90761F44E5F5F4F88819981480F591F88
:1036C000518340838A819B819383828321153105B5
:1036D00009F0B0CFF093F906E093F8069ECFFD0114
:1036E000DC01C0CF13821282D7CFB0E0A0E0EBE7BD
:1036F000FBE10C94C71C5C016B017A01611571053B
:1037000019F0FB0191838083E114F10449F0C701B2
:103710000297839728F060E070E0CB019CC05E01C7
:10372000E5012196F5011081812F90E00E94601C37
:10373000892BA9F71D3209F056C02196F501118198
:1037400001E0E114F10409F4AEC0F0E1EF16F10478
:1037500009F08EC0103341F488818F7D883509F0DF
:1037600083C0198122960260E0E1EE2EF12C8824BC
:103770008A94982CA82CFFE0BF2E20E060E070E037
:10378000CB0127010F2C000C66087708FE0150EDD5
:10379000352E310E39E0331538F43FEB310F3A3125
:1037A000A0F549EC342E310E3E141F04BCF52F3F1A
:1037B000B9F086169706A806B90670F1A301920122
:1037C0000E94891C232D30E050E040E0620F731FFF
:1037D000841F951F6217730784079507E8F021E09F
:1037E00021961081D3CF1B3221F4E5012296F501F9
:1037F000118100E0A6CF78E0E72EF12C88248A948E
:10380000982CA82C6FE1B62EB8CF3FE9310F3A3192
:1038100028F439EA332EC7CF2FEFE2CFC114D104F9
:1038200031F02223E9F02197F601D183C08300FF14
:1038300007C090958095709561957F4F8F4F9F4FF2
:103840002F3F49F482E290E09093FB068093FA06C2
:103850006FEF7FEFCB01CDB7DEB7E1E10C94E31C56
:1038600001FFE5CF2297E0CF10E3E114F10419F254
:103870003AE0E316F104E9F080E1E816F10409F416
:1038800073CFE8E0EE16F10409F4B8CF6FEF7FEFE5
:10389000CB0197010F2C000C440B550B0E94991C77
:1038A00049015A016ACF103309F456CF9AE0E92E44
:1038B000F12C89E9882E982CA82C89E1B82E5DCFAF
:1038C00091110C94701C803219F089508550C8F702
:1038D0000895FB01DC0105900D920020E1F70895A9
:1038E000992788270895F999FECF92BD81BDF89A4E
:1038F000992780B50895262FF999FECF1FBA92BD5A
:1039000081BD20BD0FB6F894FA9AF99A0FBE0196C0
:103910000895DB018F939F930E94BB1CBF91AF91D1
:10392000A29F800D911DA39F900DB29F900D112419
:103930000895A1E21A2EAA1BBB1BFD010DC0AA1FF0
:10394000BB1FEE1FFF1FA217B307E407F50720F008
:10395000A21BB30BE40BF50B661F771F881F991F83
:103960001A9469F760957095809590959B01AC01CC
:10397000BD01CF0108950E94FD1CA59F900DB49F2D
:10398000900DA49F800D911D112408952F923F92B8
:103990004F925F926F927F928F929F92AF92BF925F
:1039A000CF92DF92EF92FF920F931F93CF93DF930B
:1039B000CDB7DEB7CA1BDB0B0FB6F894DEBF0FBE68
:1039C000CDBF09942A88398848885F846E847D84B5
:1039D0008C849B84AA84B984C884DF80EE80FD80B7
:1039E0000C811B81AA81B981CE0FD11D0FB6F8942D
:1039F000DEBF0FBECDBFED010895A29FB001B39F02
:103A0000C001A39F700D811D1124911DB29F700DE7
:103A1000811D1124911D089597FB072E16F4009423
:103A200007D077FD09D00E94261D07FC05D03EF483
:103A3000909581959F4F0895709561957F4F08955A
:103A4000EE0FFF1F0590F491E02D0994AA1BBB1BFC
:103A500051E107C0AA1FBB1FA617B70710F0A61B8E
:103A6000B70B881F991F5A95A9F780959095BC01AF
:103A7000CD010895B0E0A0E0E0E4FDE10C94C81CA5
:103A80008C01009751F4CB010E94501A8C01C8019F
:103A9000CDB7DEB7E0E10C94E41CFC01E60FF71FA4
:103AA0009C0122503109E217F30708F49DC0D901A7
:103AB000CD91DC911197C617D70798F0C530D10585
:103AC00030F3CE0104978617970708F3C61BD70B70
:103AD0002297C193D1936D937C93CF010E94EC1AEE
:103AE000D6CF5B01AC1ABD0A4C018C0E9D1EA09175
:103AF000F806B091F906512C412CF12CE12C1097CD
:103B000031F58091F6069091F7068815990509F030
:103B10005CC04616570608F058C080911801909175
:103B20001901009741F48DB79EB740911C01509147
:103B30001D01841B950BE817F90708F055C0F09399
:103B4000F706E093F606F90171836083A0CF8D91AB
:103B50009C91119712966C90129713967C901397E4
:103B6000A815B90559F56C0142E0C40ED11CCA1460
:103B7000DB0420F1AC014A195B09DA0112961597B2
:103B800080F06282738251834083D9016D937C936C
:103B9000E114F10471F0D7011396FC93EE931297A0
:103BA00076CF22968C0F9D1FF90191838083F301BC
:103BB000EFCFF093F906E093F80669CF481659065F
:103BC00008F42C017D01D3019ACFCB010E94501A39
:103BD0007C01009749F0AE01B8010E94F71DC801B1
:103BE0000E94EC1A870153CF10E000E050CFFB0198
:103BF000DC0102C001900D9241505040D8F7089569
:103C0000DC0101C06D9341505040E0F70895FC0184
:103C10008191861721F08823D9F799270895319744
:103C2000CF010895FB01DC018D91019080190110F5
:103C3000D9F3990B0895FB01DC0101900D9200204E
:103C4000E1F70895FB01DC014150504048F001903C
:103C50000D920020C9F701C01D9241505040E0F77D
:103C60000895AEE0B0E0E7E3FEE10C94D41C0D89CA
:103C70001E8986E08C831A8309838FEF9FE79E83DA
:103C80008D83AE01475E5F4F6F89788DCE010196BF
:103C90000E946D1E2F813885020F131FF8011082BC
:103CA0002E96E4E00C94F01CAEE0B0E0EAE5FEE114
:103CB0000C94D61C85E08C838B899C899A8389839C
:103CC000AE01495E5F4F6D897E89CE0101960E94EB
:103CD000D2212E96E2E00C94F21CABE0B0E0E3E7D8
:103CE000FEE10C94C61C7C013B018A01FC01178299
:103CF0001682838181FFC8C1CE0101965C01F70164
:103D00009381F30193FD859193FF81913F01882376
:103D100009F453C1853239F493FD859193FF819164
:103D20003F01853229F4B70190E00E943423E7CFA8
:103D3000912C212C312CFFE1F31538F08B3211F14D
:103D400090F4803209F1833229F137FC3CC020ED38
:103D5000280F2A3050F536FE20C08AE0989E200DAC
:103D60001124922E06C08D3291F0803371F7689441
:103D700030F8F30193FD859193FF81913F0181110B
:103D8000DACF21C0689431F8689432F8F2CF6894A1
:103D900033F8EFCF689434F8ECCFEAE02E9E200D94
:103DA0001124222E689435F8E4CF8E3229F436FCA3
:103DB00004C1689436F8DDCF8C3619F4689437F86E
:103DC000D8CF8836B1F2982F9F7D95549330E0F08C
:103DD0008336A1F18337C1F1833509F063C028012F
:103DE000F2E04F0E511CF801C080D180692D70E0C7
:103DF00036FC02C06FEF7FEFC6010E94E2224C0149
:103E0000689437F882010AC00C5F1F4FFFE3F98303
:103E100088248394912C6501E89437F833FE2DC0F3
:103E2000522C8114910471F5552009F468CFB70123
:103E300080E290E00E9434235A94F6CFF80180810A
:103E400089830E5F1F4FE4CF2801F2E04F0E511C13
:103E5000F801C080D180692D70E036FC02C06FEFA0
:103E60007FEFC6010E94ED224C018201D5CFB70140
:103E700080E290E00E9434232A942814190409F067
:103E8000B0F7CECFF60137FC859137FE81916F01F7
:103E9000B70190E00E94342351105A94F1E08F1A38
:103EA0009108BFCF843619F0893609F077C0F80140
:103EB00037FE6BC060817181828193810C5F1F4FDF
:103EC000F32DFF763F2E97FF09C090958095709552
:103ED00061957F4F8F4F9F4F689437F82AE030E00D
:103EE000A5010E947C23C82ECA188C2C432C36FEB8
:103EF0000CC0E89440F8C91440F434FE05C032FC0C
:103F000003C0F32DFE7E4F2E892C44FE95C0FE018A
:103F1000EC0DF11D8081803309F087C0242D297EAE
:103F2000422E842D8870582E43FC95C040FE8FC0D1
:103F30009C2C821418F42C0C922C981844FE91C0DE
:103F4000B70180E390E00E94342342FE09C088E775
:103F500090E041FE02C088E590E0B7010E94342362
:103F6000C91408F48AC0CA94D12C9FEFC91AD90A7F
:103F7000CA0CDB1CF60182916F01B70190E00E9430
:103F80003423AC14BD04B1F74FCF60817181072E8B
:103F9000000C880B990B0E5F1F4F92CFD32CE89427
:103FA000D4F82AE030E0853739F1232D297FD22E4D
:103FB0008F3601F148F48835A9F0F70186819781A1
:103FC0002B96E2E10C94E21C803749F08837A9F780
:103FD000D4FE02C06894D2F820E130E00DC06894AD
:103FE000D4F8F6CF34FE03C0822F8660D82E20E1AD
:103FF00032E002C028E030E0F801D7FE0FC0608157
:104000007181828193810C5F1F4FA5010E947C23E7
:10401000C82ECA183D2CE89437F867CF60817181AB
:1040200090E080E00E5F1F4FF0CF42FC02C083940F
:1040300078CF8394839475CF842D867809F471CFDB
:10404000F6CFB70180E290E00E943423839482147B
:10405000C0F3512C73CF522C5818821408F46ECF31
:10406000F8CF842D867809F47BCF8BE241FE80E285
:1040700047FC8DE2B70190E071CFB70180E390E09B
:104080000E9434239A946CCF8FEF9FEF99CF20FD3D
:1040900009C0FC0123FD05C022FF02C073836283B7
:1040A00051834083089544FD17C046FD1DC0DB01C8
:1040B000FC01AA0FBB1FEE1FFF1F1094D1F76A0F60
:1040C0007B1F8E1F9F1F660F771F881F991F620F10
:1040D000711D811D911D089533E0660F771F881FA4
:1040E000991F3150D1F7F3CF34E0F7CF0F931F93DF
:1040F000CF93DF938C01C8010E94F822EC0197FD59
:1041000008C00E94601C892BB1F7B801CE010E9443
:104110006423CE01DF91CF911F910F9108958F926B
:104120009F92AF92BF92EF92FF920F931F93CF9304
:10413000DF938C01D62F7A01B22E0E94F8229C01C7
:1041400033272B32310529F02D323105A9F468943B
:10415000B7F8D15061F480E0DF91CF911F910F91BA
:10416000FF90EF90BF90AF909F908F900895C801FF
:104170000E94F82297FDEFCFCB2DCD7F2B2D207302
:10418000F9F48033E9F4AA24AA94AD0E89F0C801A9
:104190000E94F82297FD0CC0282F2F7D283561F44E
:1041A000C264D25029F0C8010E94F82297FF08C0CB
:1041B000812C912C54011BC0B6FE2BC0C260DA2D9D
:1041C000812C912C540120ED280F283028F1C4FDBA
:1041D00009C02A3008F1C6FF05C02F7D3FEE320F1F
:1041E0003630C8F0B8010E946423C1FFB4CFC7FFC6
:1041F00008C0B094A09490948094811C911CA11C40
:10420000B11C2C2FB501A401C7010E94472081E0F9
:10421000A3CFC261D4CF27504C2FC501B4010E9457
:1042200053204B015C01C260D15009F3C8010E94C8
:10423000F82297FFC8CFD9CFA0E2B0E0E2E2F1E2E6
:104240000C94CB1C5C01962E7A01CE0101966C0178
:1042500080E2F60111928A95E9F7F501B3818901AF
:1042600030E020E0712C812CA0E041E050E0F8012A
:10427000B3FD8591B3FF8191982F8F01811107C004
:1042800010E000E0C801A096EDE00C94E71C8E352C
:1042900019F42115310541F1A21713064CF48D359F
:1042A00049F18D3229F4811006C0882483941DC001
:1042B000882009F464C0E92FE695E695E695EC0DB3
:1042C000FD2DF11D892F8770BA0101C0660F8A95F7
:1042D000EAF78081682B6083791651F0971510F406
:1042E0009F5FE9CF9150E7CFA1E02F5F3F4FBFCF56
:1042F000812CFBCF882019F08E8180628E83AA23C7
:1043000059F0F6019E012F5D3F4F8081809580839B
:104310003196E217F307C9F788248394C5010E94F8
:10432000F82297FD16C0E82FE695E695E695EC0D88
:10433000FD2DF11D208130E0AC014770552702C0F2
:10434000359527954A95E2F720FD06C0B5010E94F4
:104350006423882069F094CFE114F10429F0F70177
:104360008083C70101967C019A94812C9110D6CF4D
:10437000E114F10409F486CFF701108283CFE82F0E
:10438000E695E695E695EC0DFD2DF11D982F9770BD
:10439000BA0101C0660F9A95EAF79081692B608394
:1043A000782EA3CFB0E0A0E0E8EDF1E20C94C91CB8
:1043B0006C01EB015A01FC0117821682512CF601A7
:1043C000E380FE01E3FC8591E3FE8191182FEF016C
:1043D0008823E9F090E00E94601C892B21F0C6013F
:1043E0000E947620ECCF153241F4FE01E3FC1591DA
:1043F000E3FE1191EF01153269F4C6010E94F82223
:1044000097FD8EC01817D9F2B6010E946423852D3E
:1044100090E08AC000E01A3231F4E3FC1591E3FE2B
:104420001191EF0101E0F12C20ED210F2A3048F12C
:1044300001FF37C0FF2059F31836B1F11C3609F4DB
:104440003DC0112321F3612F70E08CEA90E00E94BF
:10445000D722892BE1F2912C812C00FD06C0F501B9
:1044600080809180C50102965C011E3679F5F601C7
:104470004681578170E060E0202FC4010E944720F0
:104480009ECF02606F2D70E090E080E040E20E94DD
:104490005320F62EFE01E3FC1591E3FE1191EF018E
:1044A000C3CFFF24FA94C8CFFE01E3FC1591E3FECD
:1044B0001191EF01183609F0C4CF08600460FE01C5
:1044C000E3FC1591E3FE1191EF01BBCF1336C1F46C
:1044D00001FD02C0FF24F394C6010E94F82297FD5B
:1044E0001FC08114910429F0F4018083C401019656
:1044F0004C01FA94F110F0CF00FD61CF53945FCFDF
:104500001B35B9F49E01A4016F2DC6010E941C2128
:10451000EC01892B89F7F6018381807309F477CF49
:104520008FEF9FEF511073CFCDB7DEB7EFE00C9454
:10453000E51CC6010E94762097FDF2CF1F36A9F137
:1045400030F4143641F0193639F0006405C01337E1
:10455000B9F01537D1F70062202FA4016F2DC601E5
:104560000E948F208111C8CFD6CF8114910429F0E9
:10457000F4016082C40101964C01FA94FF2071F0AD
:10458000C6010E94F8223C0197FD08C00E94601CF1
:10459000892B59F3B601C3010E946423811491044D
:1045A00009F4AACFF4011082A7CF0061D5CFFC0196
:1045B0000590061621F00020D9F7C0010895319723
:1045C000CF010895FC010590615070400110D8F7AB
:1045D000809590958E0F9F1F0895FC01615070404B
:1045E00001900110D8F7809590958E0F9F1F089528
:1045F000CF93DF93EC012B8120FF1AC026FF0CC064
:104600002F7B2B838E819F8101969F838E838A814E
:1046100090E0DF91CF91089522FF18C0E881F981E1
:104620008081082E000C990B009729F420622B83BF
:104630008FEF9FEFEECF3196F983E8832E813F8194
:104640002F5F3F4F3F832E839927E3CFEA85FB857A
:10465000099597FFF3CF2B81019621F080E2822B01
:104660008B83E6CF80E1FBCF0F931F93CF93DF9334
:10467000182F092FEB018B8181FD09C01FEF0FEF70
:10468000812F902FDF91CF911F910F91089582FF7D
:1046900014C02E813F818C819D81281739073CF4FD
:1046A000E881F981CF0101969983888310838E81F7
:1046B0009F8101969F838E83E3CFE885F985812FC3
:1046C0000995892BA1F3DACFFB01238120FF11C0CB
:1046D00026FD0FC08F3F980771F082832F7D2064E5
:1046E00023832681378121503109378326839927F7
:1046F00008958FEF9FEF0895FA01AA27283051F10E
:10470000203181F1E8946F936E7F6E5F7F4F8F4F02
:104710009F4FAF4FB1E03ED0B4E03CD0670F781F61
:10472000891F9A1FA11D680F791F8A1F911DA11D46
:104730006A0F711D811D911DA11D20D009F468947F
:104740003F912AE0269F11243019305D3193DEF627
:10475000CF010895462F4770405D4193B3E00FD0DD
:10476000C9F7F6CF462F4F70405D4A3318F0495DC8
:1047700031FD4052419302D0A9F7EACFB4E0A695AB
:104780009795879577956795BA95C9F700976105CD
:10479000710508959B01AC010A2E06945795479523
:1047A00037952795BA95C9F7620F731F841F951F18
:0847B000A01D0895F894FFCF4D
:1047B800FFFFFFFF00E1000000000000A703A703C0
:1047C800A703A703A70300010000FC068000000060
:1047D80000006410B71DC8206E3BAC30D92690414C
:1047E800DC76F4516B6B5861B24D3C7105502083F7
:1047F800B8ED44930FF0E8A3D6D68CB361CBB0C222
:10480800649BD4D2D38678E20AA01CF2BDBD00FF17
:10481800FFFF000019FCFFFF00FFFFFF000019FC6D
:10482800FFFF00FFFFFF000019FCFFFF00FFFFFF75
:10483800000019FCFFFF00FFFFFF000019FCFFFF4D
:1048480000FFFFFF000019FCFFFF00FFFFFF000053
:1048580019FCFFFF00FFFFFF000019FCFFFF00FF2E
:10486800FFFF000019FCFFFF00FFFFFF000019FC1D
:10487800FFFF00C1808100000000000000BB043A77
:1048880004F704EC043D05FB0419050D0A00206239
:1048980079746573290050696E4E6F3A2564203D1E
:1048A80020256300446967494F202D2050696E4ECA
:1048B8006F3D25642C204D6F64653D25642C205385
:1048C800746174653D2564202864697361626C6550
:1048D800642900253033643A2535582020256300A3
:1048E8002D3E00696F7078003100300050696E739A
:1048F800206572726F720025327525327525327502
:1049080000526F7461727920636F6E6669672073F5
:104918007472696E67206E6F742076616C696400CA
:10492800526F74617279206572726F7200456E748D
:1049380072696573206E6F742031206F72203200A7
:104948004465627567204F4E002044656275672094
:104958004F464600454550524F4D20636F6E746573
:104968006E74730073657474696E67732028736955
:104978007A653D00637263202873697A653D003269
:104988002E302E32003B004D6963726F00554E4B3E
:104998004E4F574E204D45535341474500435243D0
:1049A800204552524F520053657474696E67733ACA
:1049B80000426175643D004462673D00496E74655C
:1049C8007276616C3D004465626F756E636554690B
:1049D8006D653D004175746F53746172743D005785
:1049E80061746368646F673A00524F544152593A90
:0249F8000000BD
:00000001FF
