:100000000C9423020C945B130C9434130C940D1376
:100010000C94E6120C944B020C944B020C94BF12FD
:100020000C944B020C944B020C9482130C94F1131D
:100030000C9423160C944B020C944B020C944B0220
:100040000C944B020C944B020C944B020C944B02FC
:100050000C944B020C944B020C944B020C947512B2
:100060000C944B020C944B020C944B020C944B02DC
:100070000C944B020C944B020C944B020C944B02CC
:100080000C944B020C944B020C944B020C944B02BC
:100090000C944B020C944B020C944B020C944B02AC
:1000A0000C944B020C944B020C944B026364696EEB
:1000B0006F70737578585B00496E76616C69642067
:1000C000706172616D65746572004E6F7420696D48
:1000D000706C656D656E746564207965742100656A
:1000E00076656E745F657272006576656E745F72B8
:1000F00078627566006576656E745F726F746172A2
:1001000079006576656E745F70696E73746174658D
:1001100073006576656E745F696E006576656E74F2
:100120005F7374617465006175746F737461727468
:100130003D0064656275673D006465626F756E635E
:10014000653D00696E74657276616C3D007761741F
:100150006368646F673D0072786275663D006D6527
:100160006D667265653D00726F7461727963666772
:100170003D0070696E6366673D00616E61696E3D4A
:1001800000646967696F3D00626F6172643D007071
:10019000726F746F636F6C3D007665723D006964C9
:1001A0003D007273705F6572726F72007273705F80
:1001B0006F6B007273705F6964007273705F646963
:1001C0006167007273705F73657474696E67730042
:1001D0007273705F636667007273705F696E666FDB
:1001E000007265715F6964007265715F7365747434
:1001F000696E6773007265715F646961670072653B
:10020000715F636667007265715F696E666F007229
:1002100065715F70696E73746174657300636D649A
:100220005F7072696E7400636D645F6F75740063F4
:100230006D645F7769706500636D645F66616374A8
:100240006F7279726573657400636D645F72657354
:10025000657400636D645F73746F7000636D645FD9
:100260007374617274006366675F696400636667D4
:100270005F7278627566006366675F726F74617241
:1002800079006366675F7761746368646F670063B2
:1002900066675F6465626F756E6365006366675F5E
:1002A0006465627567006366675F696E7465727620
:1002B000616C006366675F70696E73006366675F99
:1002C000696F005B4442475D20005B4442475D200C
:1002D000005B4442475D2000080B00020202000060
:1002E0000904000001020200000524001001052499
:1002F000010101042402060524060001070581030B
:1003000010004009040100020A0000000705020273
:1003100040000007058302400000040309041201A5
:100320000002EF0201404123368000010102030177
:1003300041726475696E6F204C4C43004172647564
:10034000696E6F204C656F6E6172646F0000000013
:1003500000250028002B002E0031000000000024A2
:100360000027002A002D0030000000000023002696
:100370000029002C002F00040404040403040502D7
:100380000202020403020202020606060606060430
:1003900004020202040404080201104080401020FC
:1003A000408040800802040180402010020110803B
:1003B00010204040200000000200090F000003044C
:1003C00001000C0000000000000000000000000020
:1003D00000000000BC02B302A6029C028F0282024F
:1003E00077026D0266025C025302490238022F0254
:1003F00027021D020F020602FE01F501E801E101DC
:10040000D801D001C301BA01B301AC01A2019E0120
:1004100099018F01880181017A01720167015E01F2
:1004200057014D0143013901320127011B0112011E
:100430000201F500E900DF00CA00B8005B44424752
:100440005D2000000C1711241FBECFEFDAE0DEBFE5
:10045000CDBF13E0A0E0B1E0EEE2F7E402C005900A
:100460000D92AC33B107D9F726E0ACE3B3E001C09D
:100470001D92A63FB207E1F712E0C3E2D2E004C04A
:100480002197FE010E94DB1CC232D107C9F70E94EE
:100490008F170C9495230C940000FC0180910204AA
:1004A000882311F13FB7F89482E08093E90020910E
:1004B000F200822F90E01816190614F481E090E003
:1004C000882339F0289844E6409301044091F100D4
:1004D0004083222339F02091F200211103C02BE642
:1004E0002093E8003FBF08958FEF9FEF08952FB747
:1004F000F89483E08093E9009091E800892F80725E
:1005000095FF04C09091F20080E4891B2FBF0895ED
:1005100080915C0381110DC082E08093580384E0D8
:100520008093590310925B0310925A0381E08093E9
:100530005C0388E593E0089581508F3008F047C050
:10054000E82FF0E0EA55FD4F0C94DB1CC302C70214
:10055000B502BB02BF02E702E702E702CA02D0020D
:10056000D402D802DE02E702E202809180008F7797
:10057000809380000895809180008F7DF9CF8091D5
:100580008000877FF5CF84B58F7784BD089584B5CB
:100590008F7DFBCF809190008F778093900008959E
:1005A000809190008F7DF9CF80919000877FF5CF6B
:1005B0008091C0008F778093C00008958091C00023
:1005C0008F7DF9CF8091C200877F8093C20008950C
:1005D000CF93DF93282F30E0F901EB54FC4F849147
:1005E000F901EA56FC4FD491F901E958FC4FC49146
:1005F000CC23A1F081110E949C02EC2FF0E0EE0FC1
:10060000FF1FE759FC4FA591B491EC91ED2381E0D8
:1006100090E009F480E0DF91CF91089580E090E0D0
:10062000FACFCF93DF9390E0FC01EA56FC4F249180
:1006300089589C4FFC0184918823C9F090E0880F71
:10064000991FFC01E55AFC4FA591B491FC01E35BB5
:10065000FC4FC591D49161110DC09FB7F8948C9156
:10066000209582238C938881282328839FBFDF9144
:10067000CF910895623051F49FB7F8943C91822F46
:10068000809583238C93E8812E2BEFCF8FB7F8943E
:10069000EC912E2B2C938FBFEACF3FB7F89480912B
:1006A000540390915503A0915603B091570326B57A
:1006B000A89B05C02F3F19F00196A11DB11D3FBF9A
:1006C000BA2FA92F982F8827BC01CD01620F711D69
:1006D000811D911D42E0660F771F881F991F4A9563
:1006E000D1F70895CF92DF92EF92FF920E944D03CF
:1006F0006B017C010E944D036C197D098E099F09D5
:10070000683E734081059105A8F3FF90EF90DF905C
:10071000CF9008952FB7F8946091500370915103D2
:1007200080915203909153032FBF0895FC012481BF
:1007300035816217730720F480819181009729F435
:1007400010924C038CE493E00895860F971F089550
:10075000089508954091480350914903209146031C
:100760003091470342175307B4F49091E800957015
:10077000E1F39091E80092FD19C08093F10080911F
:1007800048039091490301968F739927892B19F497
:100790008EEF8093E8008091480390914903019681
:1007A000909349038093480381E0089580E0089581
:1007B000DF92EF92FF920F931F93CF93DF93D82E88
:1007C0008A01EB017B01E40EF51ECE15DF0559F021
:1007D000D7FE12C0FE0184910E94AA0321968111C6
:1007E000F4CF0FEF1FEFC801DF91CF911F910F9151
:1007F000FF90EF90DF9008958881EECF0F931F93C5
:10080000CF93DF931F92CDB7DEB782E0898342E4B6
:1008100050E068ED72E080E80E94D8030E948802F0
:10082000DC0112960D911C910115110589F0D8017A
:10083000ED91FC910280F381E02DBE016F5F7F4F4F
:10084000C801099597FD04C0F80100851185ECCF1A
:1008500089810F90DF91CF911F910F910895615081
:1008600030F02091F100FC0120830196F8CF289808
:1008700084E68093010408958F929F92AF92BF9275
:10088000CF92DF92EF92FF920F931F93CF93DF935C
:100890006C017B018A0180910B01882309F458C007
:1008A00080910204882309F453C080914D0380FF96
:1008B00005C08091E00082608093E000E801B12CE7
:1008C0008AEFA82E93E0892E2AE3922E209711F426
:1008D000BB20B9F10E947702811106C0AA94AA2018
:1008E000B9F10E947203F2CF8C171D0611F00CF0C3
:1008F0008C2F9FB7F8948092E9002091E80025FDA5
:1009000002C09FBFE3CF282F30E0C21BD30BF701FB
:10091000815020F041914093F100FACFE20EF31E96
:10092000BB2021F09092E800B12CEBCF8091E80041
:1009300085FDE7CF9092E800BB24B394209709F39C
:10094000F3CF5D9884E680934B03101611063CF0BC
:1009500081E090E0F6019383828310E000E0C8011B
:10096000DF91CF911F910F91FF90EF90DF90CF908B
:10097000BF90AF909F908F900895CF93DF931F9279
:10098000CDB7DEB76983DC01ED91FC910280F38184
:10099000E02D41E050E0BE016F5F7F4F09950F9061
:1009A000DF91CF9108950F931F93CF93DF938C0125
:1009B000D0E0C0E0F801EC0FFD1F6491662341F028
:1009C00083E094E00E94BD04892B11F02196F2CFC0
:1009D000CE01DF91CF911F910F91089583E0809315
:1009E000E9008091F200882319F08AE38093E800FF
:1009F00008950E94770290E00895CF93DF931F92AD
:100A0000CDB7DEB7FC018485958597FD08C02FEF33
:100A10003FEF358724870F90DF91CF910895CE0166
:100A200001960E944D02019719F4898190E0F3CF5D
:100A30008FEF9FEFF0CF0F931F93CF93DF931F9212
:100A4000CDB7DEB78C01FC018485958597FF0BC07F
:100A5000CE0101960E944D02019771F4898190E0C8
:100A6000F80195878487F801848595850F90DF913B
:100A7000CF911F910F9108958FEF9FEFF1CFFC0160
:100A80008485958597FD0BC09FB7F89482E080938D
:100A9000E9008091F2009FBF90E0019608959FB712
:100AA000F89482E08093E9008091F2009FBF90E08B
:100AB0000895CF93DF9300D0CDB7DEB72091F00635
:100AC0003091F106CE0101962115310559F4865F6A
:100AD00096409A83898389819A810F900F90DF9144
:100AE000CF910895821B930BE091F206F091F306EB
:100AF00030E020E0309751F02E5F3F4F4081518130
:100B0000240F351F0280F381E02DF4CF820F931F55
:100B1000E0CFFC0182819181923029F491E0813013
:100B200029F490E003C091E08130D9F793830895D0
:100B3000CF93DF93EC01698388810E941103888140
:100B40000E94E8028A83CE010E9489058B818C83F2
:100B50001D821E821F82188681E08987DF91CF91D6
:100B60000895A8950FB6F894A89520916000286183
:100B700020936000109260000FBE893E23E0920730
:100B800020F1813D27E0920710F1813A9F4008F162
:100B900089E094E0899F9001112420728770886019
:100BA000822B98E10FB6F894A895909360000FBE41
:100BB00080936000809160008064809360008091E9
:100BC0006000886080936000089586E0E2CF87E04F
:100BD000E0CF88E0DECFDC01ED91FD918081ED91E9
:100BE000FD919081ED91FD916C9163708E2309F0E0
:100BF00064609F2309F06860E8E0F6E0E60FF11D0D
:100C0000659565956D936D917D918D919D910994FB
:100C100023C01AC012C016C010C01EC009C014C024
:100C200013C006C019C009C00DC007C00DC014C054
:100C300062507040804090400BC0615070408040D6
:100C4000904006C06E5F01C06F5F7F4F8F4F9F4F18
:100C50009E938E937E936E9308958091440390911A
:100C600045030C94EB0580914203909143030C944F
:100C7000EB0580914003909141030C94EB0580912A
:100C80003E0390913F030C94EB0580913C039091BF
:100C90003D030C94EB05AF92BF92CF92DF92EF929F
:100CA000FF920F931F93CF93DF93D091EA06C82F43
:100CB0008A3008F4CAE0DC1709F458C0AC2EB12C15
:100CC0000E9459059A95A816B90608F04FC0E09001
:100CD000E806F090E90610E000E0E114F10491F07C
:100CE00010E000E0DC1758F4C090EB06D12CC601F0
:100CF0000E940B1A8C01A601B7010E94B21DC70108
:100D00000E94A71AC093EA06C5010E940B1A6C0143
:100D10009093E9068093E806A50170E060E00E94E8
:100D2000BB1D01151105F9F04091EB0650E0B8012B
:100D3000C6010E94B21DC8010E94A71AEF28B1F097
:100D4000E091EE06F091EF06309781F06C2F8D2F39
:100D5000DF91CF911F910F91FF90EF90DF90CF9097
:100D6000BF90AF9009941092EB06E8CFDF91CF913E
:100D70001F910F91FF90EF90DF90CF90BF90AF90B9
:100D80000895CF93DF93EC0188819981009711F04A
:100D90000E94A71A198218821D821C821B821A8245
:100DA000DF91CF910895FC0180819181009711F02E
:100DB0000C94A71A0895FC0101900020E9F73197DF
:100DC000AF01481B590BBC0183E094E00C943C0438
:100DD0008BED91E00C94DB068F929F92AF92BF92C5
:100DE0000F931F93CF93DF93CDB7DEB7A1970FB6C5
:100DF000F894DEBF0FBECDBF19A2423008F44AE01E
:100E00008E010F5D1F4F842E912CB12CA12CA501BA
:100E100094010E94541CE62FB901CA01EA30F4F48F
:100E2000E05DD801EE938D01232B242B252B79F740
:100E300090E080E0109719F0CD010E94DB06A196AA
:100E40000FB6F894DEBF0FBECDBFDF91CF911F91DB
:100E50000F91BF90AF909F908F900895E95CE1CF84
:100E6000CF93DF930E94DB06EC010E94E8068C0F13
:100E70009D1FDF91CF910895CF93DF93EC0183EC19
:100E800092E00E94D304CE01DF91CF910C94300701
:100E9000009711F00C94DB0690E080E00895CF926B
:100EA000DF92EF92FF92CF93DF9397FF1BC06B010E
:100EB0007C016DE283E094E00E94BD04EC016627B2
:100EC0007727CB016C197D098E099F094AE00E94A2
:100ED000EC068C0F9D1FDF91CF91FF90EF90DF907C
:100EE000CF9008954AE0DF91CF91FF90EF90DF908F
:100EF000CF900C94EC060F931F93CF93DF938C014C
:100F0000EB018AEC92E00E94D304C8010E944807DA
:100F1000BE01DD0F880B990B0E944F07DF91CF9127
:100F20001F910F910C94E806682F70E090E080E02C
:100F30004AE00C94EC068F929F92AF92BF92CF92B0
:100F4000DF92EF92FF920F931F93CF93DF93CDB772
:100F5000DEB7C054D1090FB6F894DEBF0FBECDBFC7
:100F600080E4EEE1F1E0DE01119601900D928A95A8
:100F7000E1F788248A94982C540110E000E0C8011D
:100F80000E942E1C94012827D501C9018F70992732
:100F9000AA27BB27880F991F880F991F41E050E0AF
:100FA0004C0F5D1F840F951FFC01C080D180E28033
:100FB000F38034E0B694A794979487943A95D1F748
:100FC000C824D924EA24FB24C8010E942E1C90E0E6
:100FD00044E0959587954A95E1F7092E000CAA0BF8
:100FE000BB0B8C259D25AE25BF258F709927AA2781
:100FF000BB27880F991F880F991F21E030E02C0F25
:101000003D1F820F931FFC0180809180A280B380DE
:1010100064E0F694E794D794C7946A95D1F78C244A
:101020009D24AE24BF2480949094A094B0940F5F2C
:101030001F4F0A3B110509F0A2CFC501B401C05CE6
:10104000DF4F0FB6F894DEBF0FBECDBFDF91CF915B
:101050001F910F91FF90EF90DF90CF90BF90AF90D6
:101060009F908F9008950F931F93CF93DF9300D09D
:10107000CDB7DEB7FC0182819381FC012081222360
:1010800081F08B014AE050E0BE016F5F7F4F0E940C
:10109000301BF80171836083E981FA8181E09081DE
:1010A000911180E00F900F90DF91CF911F910F91E0
:1010B00008957F928F929F92AF92BF92CF92DF92CC
:1010C000EF92FF920F931F93CF93DF938FE8C82E79
:1010D00084E0D82EC2E9D5E010E000E096EE892E3B
:1010E00091E0992E21E9E22E23E0F22E34EFA32E97
:1010F00031E0B32EF60171906F01872D072C000CA3
:10110000990B9F937F921F930F939F928F92FF92C1
:10111000EF920E94EC1D08838DB79EB708960FB61C
:10112000F8949EBF0FBE8DBF9FE6791609F44BC0A1
:10113000E0E77E1679F1F9E660E07F1661F1198249
:1011400060E0802F0E9411031A82CE010E9489055F
:101150008B818C831D821E821F82188619861F92A6
:101160008F9389811F928F938881282F082E000CDE
:10117000330B3F938F93BF92AF92FF92EF920E94F7
:10118000EC1D8DB79EB70A960FB6F8949EBF0FBEA2
:101190008DBF04C062E0CE010E9498050F5F1F4F13
:1011A0002A960F31110509F0A5CFDF91CF911F913C
:1011B0000F91FF90EF90DF90CF90BF90AF909F90F6
:1011C0008F907F90089561E0E6CFE82FF0E0EE0F7A
:1011D000FF1FEC52FC4F6591749189E693E00E94E9
:1011E000241C89E693E00895CF93909117019817F6
:1011F00091F0C82F809317018CE20E94E5080E94AD
:1012000048078AE393E00E9448078C2F0E949407C6
:10121000CF910C94E806CF9108958EE20E94E508E4
:101220000E9448078AE393E00E944807E2E9F5E05C
:10123000A8ECB6E09D0198E78185882391F0838131
:10124000813069F080E38C933A9611962E173F0710
:1012500099F788EC96E00E9448070C94E80681E331
:10126000F2CF9C93F1CFCF93C82F8CE10E94E50879
:101270000E9448078AE393E00E9448078C2F0E944F
:10128000E5080E944807CF910C94E8068BE10E9484
:10129000E5080E9448070C94E806CF93DF93D82F07
:1012A000C62F80E30E94E5080E9448078AE393E086
:1012B0000E9448078D2F0E94940780E392E00E94CD
:1012C00048078C2F0E949407DF91CF910C94E80679
:1012D0000F931F93CF93DF938C01EB018617970732
:1012E000D1F0FC01808191810097E9F068817981DA
:1012F00061157105B1F0428153812C813D81421706
:10130000530778F00E94D61D8C819D81F80195834A
:1013100084831D821C82C801DF91CF911F910F91A0
:1013200008950E94A71A88819981F801918380838A
:101330008A819B81938382838C819D819583848321
:10134000198218821B821A82E4CF0F931F93CF93C6
:10135000DF93EC0188819981009759F02A813B81C4
:101360002617370730F081E0DF91CF911F910F9161
:1013700008958B016F5F7F4F0E94F51C009759F015
:10138000998388831B830A832C813D81232B59F702
:10139000FC011082E8CF80E0E7CFEF92FF920F933D
:1013A0001F93CF93DF93EC017B018A01BA010E9466
:1013B000A50981110BC0CE010E94C106CE01DF91AB
:1013C000CF911F910F91FF90EF9008951D830C8393
:1013D000B701888199810E94D61DF0CFCF93DF930A
:1013E000EC01FB018617970749F060817181611557
:1013F000710541F0448155810E94CD09CE01DF91F4
:10140000CF9108950E94C106F9CFFC01118210828C
:1014100013821282158214826115710551F0FB014D
:1014200001900020E9F73197AF01461B570B0C9450
:10143000CD090895AF92BF92CF92DF92EF92FF92C3
:101440000F931F93CF93DF937C016B015A018901A6
:101450002417350720F48B2D5901042F182F6DED1B
:1014600071E0C7010E94050AD6011496CD91DC9166
:10147000AC16BD0620F50C171D0708F4E801D601CF
:10148000ED91FC911197EC0FFD1F108110826D9171
:101490007C916A0D7B1D61157105E9F0FB010190DE
:1014A0000020E9F73197AF01461B570BC7010E9497
:1014B000CD09F60180819181C80FD91F1883C7011A
:1014C000DF91CF911F910F91FF90EF90DF90CF9020
:1014D000BF90AF900895C7010E94C106EACFDF9286
:1014E000EF92FF920F931F93CF93DF93CDB7DEB7A9
:1014F0002C970FB6F894DEBF0FBECDBF18861F82A3
:101500001A8619861C861B86BC01CE0107960E948E
:10151000EE098B859C858F319105D8F40B851C8550
:101520000F31110570F50F5F1F4FB801CE010796FF
:101530000E94A509882391F32F8138858B859C858E
:1015400066E372E0820F931F0E94D61D1C870B87F3
:10155000E5CF4F97B1F02FE130E050E040E0BE0121
:10156000695F7F4FCE0101960E941A0ABE016F5F2C
:101570007F4FCE0107960E946809CE0101960E9416
:10158000D30663E372E0CE0101960E94050A10E0E3
:1015900000E088E7D82E8B859C85081719071CF575
:1015A000B801CE0107960E949603FC0160818D81EF
:1015B0009E81892B71F0E980FA80062E000C770B52
:1015C000C7010E94C21D009721F08E199F09019644
:1015D00039F4B801CE0107960E949603FC01D0822F
:1015E0000F5F1F4FD8CFCE0101960E94D3066F81A7
:1015F000788540E250E08FE894E00E94DD1DCE0146
:1016000007960E94D30681E02C960FB6F894DEBFB1
:101610000FBECDBFDF91CF911F910F91FF90EF9043
:10162000DF9008952F923F924F925F926F927F9238
:101630008F929F92AF92BF92CF92DF92EF92FF92E2
:101640000F931F93CF93DF93CDB7DEB729970FB6D4
:10165000F894DEBF0FBECDBF8C01D62EF42EE52E42
:101660005901F901208031801182108270E060E020
:10167000C8010E949603FC0180818D112BC0F801E6
:101680002481358141E050E0B801CE0101960E94ED
:101690001A0ABE016F5F7F4FC8010E946809CE0120
:1016A00001960E94D306E2CFF801248135812150B2
:1016B000310950E040E0B801CE0101960E941A0ABB
:1016C000BE016F5F7F4FC8010E946809CE0101967D
:1016D0000E94D306F8016481758161507109C801C7
:1016E0000E949603FC0180818D15F1F28F2C9E2CB7
:1016F000712C612C8D2D0D2C000C990B99878887EE
:10170000F801848195816214730404F58F82C92CD9
:10171000892B89F04080518068857985C2010E94BB
:10172000C21D009741F07C01E418F508F6E08F0E29
:10173000911CF7FE3BC0B8018F819C2D0E94EE09E1
:10174000F50180819181019691838083F8018481E4
:101750009581892B09F45CC0008111816D2DDD0C10
:10176000770BC8010E94C21D009709F451C0801B6D
:10177000910B892F881F8827881F29960FB6F89408
:10178000DEBF0FBECDBFDF91CF911F910F91FF90B4
:10179000EF90DF90CF90BF90AF909F908F907F9011
:1017A0006F905F904F903F902F900895970150E079
:1017B00040E0B801CE0101960E941A0ABE016F5F97
:1017C0007F4F8F819C2D0E946809CE0101960E9457
:1017D000D306F80124813581A7014F5F5F4FB8011F
:1017E000CE0101960E941A0ABE016F5F7F4FC801A9
:1017F0000E946809CE0101960E94D306F5018081FE
:101800009181019691838083FFEF6F1A7F0A78CFD1
:101810008FEF9FEFAECFFF920F931F93CF93DF9386
:10182000EC01F62E08811981C8010E942E1CF816C1
:1018300021F06F2DC8010E94361CCE01DF91CF919F
:101840001F910F91FF900895EF92FF920F931F93B6
:10185000CF93DF9300D000D000D0CDB7DEB782E7C2
:10186000E82E84E0F82E10E000E01A830983F701E7
:1018700061917F01CE0101960E940B0C0F5F1F4FFB
:101880000A3B110591F70E949B0769837A838B833A
:101890009C83CE0101967C011E830D83F70161912B
:1018A0007F01CE0105960E940B0C0F5F1F4F0E3B70
:1018B000110591F726960FB6F894DEBF0FBECDBF87
:1018C000DF91CF911F910F91FF90EF900895FC0150
:1018D000808191810E94CD1D21E0892B09F020E0BB
:1018E000822F08952F923F924F925F926F927F9234
:1018F0008F929F92AF92BF92CF92DF92EF92FF9220
:101900000F931F93CF93DF93CDB7DEB7CE59D10995
:101910000FB6F894DEBF0FBECDBFCF56DF4F198292
:101920001882C159D040FC0101900020E9F731979D
:10193000E81BF90BC157DF4F99838883CF58D040FC
:10194000AC0130E020E02E173F078CF4DA014F5F46
:101950005F4F6C912F5F3F4F6A33A9F71C92820F44
:10196000931FCF56DF4F99838883C159D04080E0C1
:101970000E94E508BC01CE0181579F4F0E94670C71
:10198000C356DF4F8883CD59D040882309F468C2FD
:10199000CF56DF4F68817981C159D040CE0187573A
:1019A0009F4F0E94050A6DED71E0CE018F589F4F49
:1019B0000E94050A6DED71E081E790E08C0F9D1F9C
:1019C00006960E94050A82E090E0C756DF4F998391
:1019D0008883C959D0401A8219821C821B821E82B8
:1019E0001D82BE0167577F4F9E012F5F3F4F7901D8
:1019F000C9010E94EE099E0127563F4FAE014F5884
:101A00005F4F6BE3C7010E94120BC7010E94D30610
:101A1000C756DF4F88819981C959D04081309105DF
:101A200031F56DED71E08FEA94E00E94D61DCE0194
:101A30008F589F4F0E946F0A81116FC18CE392E013
:101A40000E943C074FE150E068E770E08FE894E0C7
:101A50000E94BB1DEFEAF4E08CE7DF011D928A953E
:101A6000E9F7C356DF4F1882CD59D04056C10297CF
:101A700009F048C1CE018F589F4F0E946F0AC2568D
:101A8000DF4F8883CE59D040811104C08CE392E0AF
:101A90000E943C07CD57DF4F19821882C358D040AF
:101AA000CB57DF4F19821882C558D040C957DF4F36
:101AB00019821882C758D04061E770E06C0F7D1F13
:101AC0006A5F7F4FCE018D579F4F0E94EE096701DD
:101AD0008E01035C1F4F6DED71E0C6010E94050A87
:101AE00036E0C30ED11C0C151D05A9F78AE090E065
:101AF000C956DF4F99838883C759D0406E018DE561
:101B0000C80ED11CC6014496F6012FEF3FEF21937A
:101B100031938E179F07D9F76FE874E0C8010E94D0
:101B2000D61D5E019DE7A90EB11CD50111961C9230
:101B30001E9213961C921E92129715961C921E923C
:101B40001497BE016D577F4FC5010E94EE099E019B
:101B500029563F4FA7016CE2C5010E94120B982E37
:101B6000C5010E94D306992009F4A0C0812CC55656
:101B7000DF4FB982A882CB59D0401E01B3E92B0EAA
:101B8000311C2E01E5E94E0E511C682C712CC956F2
:101B9000DF4FA880B980C759D0406A147B040CF08D
:101BA0006AC0F70126E0829EE00DF11D11248481B8
:101BB0009581069709F07AC0C456DF4F3881CC5919
:101BC000D0403F93C556DF4F8881CB59D0408F938B
:101BD0003F922F925F924F92A7E4B2E0BF93AF93F0
:101BE00081818F9380818F930E940F1E0FB6F8948E
:101BF000DEBF0FBECDBF039709F058C0660C771C3F
:101C0000F601E60DF71DD2018D919C9191838083A1
:101C1000F101808191818032910508F047C0F8017F
:101C2000E80FF91F20812D3209F440C02837F1F167
:101C3000293611F02037D1F5800F911FEDE2DC013C
:101C4000EC93EF968EAD9FADEF978032910570F5D6
:101C5000F801E80FF91F20812D3241F1283731F1C9
:101C6000293611F0203711F5800F911FEDE2DC01CC
:101C7000EC9383948ACF90E080E08A159B05BCF4B6
:101C80000196A6014E5F5F4FFA019C01A216B306B2
:101C900059F061917191D6016D907C90661677062E
:101CA00029F02F5F3F4FF2CF6A01E7CF912C06500A
:101CB0001109C8010E94D306E016F106C1F7911080
:101CC0000EC081E592E00E943C07CE018D579F4FE8
:101CD0000E94D306911019C080E792E0B1CEC95797
:101CE000DF4F48815981C758D0404F5F5F4FCD5774
:101CF000DF4F68817981C358D0408FEA94E00E9419
:101D0000DD1DE3CF8DE792E09BCEC256DF4FB88159
:101D1000CE59D040BB2309F495CE0E94240C81E714
:101D200090E08C0F9D1F06960E94D306CE018F581F
:101D30009F4F0E94D306CE0187579F4F0E94D30624
:101D4000C356DF4FB881CD59D040BB2309F42FC112
:101D5000EFE8F4E001900020E9F7EF5AF44011F4C5
:101D60000E94590881E080932D059BE090932E05F9
:101D70009CE090932F0580932C05809130059091E5
:101D80003105009711F00E94A71A8CE090E00E94A4
:101D90000B1A8C0162E08BE00E94110362E08CE080
:101DA0000E941103E2E8F3E0E491F0E0EE0FFF1F80
:101DB000E759FC4FA591B491F801B183A083E1EA02
:101DC000F3E08491F8018483E3E8F3E0E491F0E048
:101DD000EE0FFF1FE759FC4F25913491F801338333
:101DE0002283E2EAF3E06491F801658317821086AA
:101DF000118612864BE35FE1FA013197F1F79C916E
:101E0000892391E009F490E0D9018C91E62FE82331
:101E100009F09260F80196831386109331050093C0
:101E200030050E94460980E20E944B06C256DF4FF1
:101E30000FB6F894DEBF0FBECDBFDF91CF911F91DB
:101E40000F91FF90EF90DF90CF90BF90AF909F9059
:101E50008F907F906F905F904F903F902F9008955C
:101E600082E00E94E508BC01CE0181579F4F0E948D
:101E7000670C882321F11A821982BE016F5F7F4FA0
:101E8000CE0181579F4F0E943308882309F48FC0E9
:101E900089819A819C01215031092930310508F44A
:101EA00086C08131F7E29F0708F081C090937704E4
:101EB000809376040E94240C0E944609B7CF84E0E8
:101EC0000E94E508BC01CE0181579F4F0E94670C1C
:101ED0008823A1F01A821982BE016F5F7F4FCE0165
:101EE00081579F4F0E943308882309F460C089817D
:101EF0009A819093790480937804DCCF83E00E94E8
:101F0000E508BC01CE0181579F4F0E94670C8823D2
:101F100069F1CF56DF4F88819981C159D040DC01EA
:101F20002C91222309F443C04AE050E0BE016F5FC8
:101F30007F4F0E94301BE981FA818081811137C077
:101F400011E0613009F010E080917304811779F19C
:101F500081E08093730480E992E0611102C089E915
:101F600092E00E943C0710937304A4CF85E00E9486
:101F7000E508BC01CE0181579F4F0E94670C882362
:101F8000D1F01A821982BE016F5F7F4FCE01815757
:101F90009F4F0E943308882351F009811A81C8019C
:101FA0000E94B105109375040093740483CF83E3FA
:101FB0000E9433093BCF88E00E94E508BC01CE01B6
:101FC00081579F4F0E94670C8823B1F0CF56DF4F97
:101FD00068817981C159D040FB0101900020E9F767
:101FE0003197E61BF70B759710F744E150E08AE74D
:101FF00094E00E94DD1D5ECF89E00E94E508BC01EF
:10200000CE0181579F4F0E94670C882339F081E0F1
:102010008093160183E00E94F4084ECF8AE00E946C
:10202000E508BC01CE0181579F4F0E94670C8823B1
:1020300071F01092160182E00E94F408109265037C
:1020400010926603109267031092680335CF8BE0FD
:102050000E94E508BC01CE0181579F4F0E94670C8A
:10206000882311F082E3A4CF8CE00E94E508BC0134
:10207000CE0181579F4F0E94670C8823B9F010E072
:1020800000E022E3E22EF12C0F3BB3E01B07E4F764
:102090006FEFC8010E94361CC801B7010E94C71C1F
:1020A000892B09F4A8950F5F1F4FEECF8DE00E949A
:1020B000E508BC01CE0181579F4F0E94670C882321
:1020C000B9F010E000E092E3E92EF12C0F3FE3E0DD
:1020D0001E07E4F76FEFC8010E94361CC801B70164
:1020E0000E94C71C892B09F4A8950F5F1F4FEECFE4
:1020F0008EE00E94E508BC01CE0181579F4F0E94EF
:10210000670C882309F48AC06DED71E0CE01019659
:102110000E94050A6DED71E0CE0107960E94050A46
:10212000CF56DF4F68817981C159D040CE01CD961D
:102130000E94050A9E01235A3F4FAE014F5F5F4F39
:102140006DE3CE01CD960E94120BCE01CD960E947A
:10215000D3066F968EAD9FAD6F97029709F05AC068
:102160004AE050E0BE01635C7F4F89819A810E9402
:10217000301B162F4AE050E0BE01635C7F4F8F8119
:1021800098850E94301BF62E212F30E01F3108F079
:1021900034C081E0F11001C080E09AE0929FF0012C
:1021A000939FF00D1124EE56FA4F9181913029F54D
:1021B0008383208130E0F901EB54FC4F8491F901D5
:1021C000EA56FC4F0491F901E958FC4F1491112390
:1021D000A1F081110E949C02E12FF0E0EE0FFF1FA1
:1021E000E35BFC4FA591B4918FB7F894EC91F1109B
:1021F0000FC000950E230C938FBF0E944609CE019D
:1022000007960E94D306CE0101960E94D3060ECEF9
:102210000E2BF1CF83E30E943309F1CF8FE00E94B0
:10222000E508BC01CE0181579F4F0E94670C8823AF
:1022300069F184EA92E00E943C076AEB70E084EB6B
:1022400092E00E94BD1610E000E0C8010E942E1C22
:10225000682F70E0C8010E94D8160F5F1F4F0A3B1D
:10226000110599F764E070E084EC92E00E94BD16DD
:10227000C8010E942E1C682F70E0C8010E94D81669
:102280000F5F1F4F0E3B110599F716CE81E10E949B
:10229000E508BC01CE0181579F4F0E94670C88233F
:1022A00009F44DC086E10E94E5080E9448078AE3D0
:1022B00093E00E9448078EE10E94E5080E944807CB
:1022C0008FEC92E00E94480785ED92E00E9448075B
:1022D0008FE10E94E5080E9448078EE892E00E9484
:1022E000480785ED92E00E94480780E20E94E508D9
:1022F0000E94480787ED92E00E94480785ED92E032
:102300000E94480781E20E94E5080E9448076FE1A9
:1023100070E080E090E00E944F0785ED92E00E941F
:10232000480782E20E94E5080E9448076CE070E0DE
:1023300080E090E00E944F070E94E80677CD82E19E
:102340000E94E508BC01CE0181579F4F0E94670C97
:10235000882301F187E10E94E5080E9448078AE38B
:1023600093E00E94480783E20E94E5080E94480724
:102370008FE894E00E94480785ED92E00E944807AC
:1023800084E20E94E5080E9448078FEA94E00E94D8
:102390004807D2CF84E10E94E508BC01CE018157F5
:1023A0009F4F0E94670C8823E1F188E10E94E508B5
:1023B0000E9448078AE393E00E94480788E20E944F
:1023C000E5080E944807609176047091770490E0D8
:1023D00080E04AE00E94EC0685ED92E00E9448070A
:1023E00089E20E94E5080E94480760917804709194
:1023F000790490E080E04AE00E94EC0685ED92E0EE
:102400000E9448078AE20E94E5080E9448078091DE
:102410007304882319F088E392E0B9CF8AE392E04D
:10242000B6CF83E10E94E508BC01CE0181579F4FE2
:102430000E94670C8823B1F189E10E94E5080E949F
:1024400048078AE393E00E94480785E20E94E50876
:102450000E9448070E945905BC0190E080E04AE0D4
:102460000E94EC0685ED92E00E94480786E20E94F9
:10247000E5080E9448078091EA060E94940785EDCE
:1024800092E00E94480787E20E94E5080E94480700
:10249000609174047091750490E080E04AE00E94BD
:1024A000EC064ACF85E10E94E508BC01CE018157C8
:1024B0009F4F0E94670C882361F08AE10E94E50823
:1024C0000E9448078AE393E00E9448078AE794E065
:1024D0005ECF8CE10E94E5080E9448078AE393E002
:1024E0000E94480780EE92E052CF1F920F920FB6E3
:1024F0000F9211242F933F938F939F93AF93BF938A
:102500008091500390915103A0915203B0915303D5
:1025100030914F0323E0230F2D3758F50196A11D6D
:10252000B11D20934F038093500390935103A093C8
:102530005203B09353038091540390915503A0919B
:102540005603B09157030196A11DB11D809354030A
:1025500090935503A0935603B0935703BF91AF9147
:102560009F918F913F912F910F900FBE0F901F90D1
:10257000189526E8230F0296A11DB11DD2CF1F92F8
:102580000F920FB60F9211242F933F934F935F93A7
:102590006F937F938F939F93AF93BF93EF93FF932B
:1025A000E0911401F09115010995FF91EF91BF9110
:1025B000AF919F918F917F916F915F914F913F91DB
:1025C0002F910F900FBE0F901F9018951F920F9292
:1025D0000FB60F9211242F933F934F935F936F93F6
:1025E0007F938F939F93AF93BF93EF93FF93E0916C
:1025F0001201F09113010995FF91EF91BF91AF91F5
:102600009F918F917F916F915F914F913F912F910A
:102610000F900FBE0F901F9018951F920F920FB63C
:102620000F9211242F933F934F935F936F937F9358
:102630008F939F93AF93BF93EF93FF93E09110011C
:10264000F09111010995FF91EF91BF91AF919F9189
:102650008F917F916F915F914F913F912F910F904B
:102660000FBE0F901F9018951F920F920FB60F92EA
:1026700011242F933F934F935F936F937F938F9387
:102680009F93AF93BF93EF93FF93E0910E01F0916F
:102690000F010995FF91EF91BF91AF919F918F919C
:1026A0007F916F915F914F913F912F910F900FBE4E
:1026B0000F901F9018951F920F920FB60F92112432
:1026C0002F933F934F935F936F937F938F939F933A
:1026D000AF93BF93EF93FF93E0910C01F0910D0145
:1026E0000995FF91EF91BF91AF919F918F917F914C
:1026F0006F915F914F913F912F910F900FBE0F906F
:102700001F9018951F920F920FB60F9211248F935E
:102710009F938091E1009091E100937F9093E1007D
:1027200083FF0FC01092E90091E09093EB001092AC
:10273000EC0092E39093ED001092020498E09093E5
:10274000F00082FF22C093E09093E9009091F200A4
:10275000992319F09AE39093E80090914B03992301
:1027600041F090914B03915090934B03911101C014
:102770005D9A90910104992341F090910104915048
:1027800090930104911101C0289A84FF18C0809190
:10279000E2008E7E81608093E2008091E1008F7E76
:1027A0008093E10080914D038E7E806180934D0384
:1027B0009F918F910F900FBE0F901F90189580FFE3
:1027C000F7CF8091E2008E7E80618093E20080915D
:1027D000E1008E7E8093E10080914D038E7E8160CA
:1027E000E5CF1F920F920FB60F921124CF92DF9276
:1027F000EF92FF920F931F932F933F934F935F930B
:102800006F937F938F939F93AF93BF93EF93FF93B8
:10281000CF93DF93CDB7DEB76C97DEBFCDBF1092FD
:10282000E9008091E80083FF25C068E0CE0145966D
:102830000E942F0482EF8093E8008D8987FF39C0C2
:102840009091E80090FFFCCF982F907609F034C16A
:102850009E894F89588D2F89F88C911131C080380D
:1028600061F580914E038093F1001092F1008EEF9C
:102870008093E8006C960FB6F894DEBF0FBECDBF14
:10288000DF91CF91FF91EF91BF91AF919F918F9188
:102890007F916F915F914F913F912F911F910F9178
:1028A000FF90EF90DF90CF900F900FBE0F901F9092
:1028B00018959EEF9093E800C7CF1092F100D5CF06
:1028C000913059F48111D3CF4130510581F6809177
:1028D0004E038D7F80934E03CACF933049F481110C
:1028E000C6CF4130510519F680914E038260F2CF78
:1028F000953041F48091E80080FFFCCF2068209360
:10290000E300B5CF963009F0A9C00B8D1C8D22E0F5
:102910001092E9001092490310924803F2122EC05F
:1029200010924703109246030E94FE031F8299E013
:102930009983FA8291E09E8390EA98879AEF99872B
:102940002091480330914903275F3F4F3C832B83FD
:102950008D831092E900109249031092480310935E
:1029600047030093460349E050E0BE016F5F7F4F8D
:1029700080E00E94D8030E94FE0379CF10934703A2
:10298000009346030E948802DC0112960D911C916F
:102990000115110509F451C1D801ED91FC91048094
:1029A000F581E02DBE016B5E7F4FC8010995009750
:1029B00009F03EC1F80100851185EACFF3E0FF126E
:1029C0000EC08F89882309F440C0823061F440E84A
:1029D00060E18CE393E00E948A16811148CF81E286
:1029E0008093EB0047CF813029F440E86BE080E32F
:1029F00093E0F1CF833099F70E948802DC011296B0
:102A0000ED90FC908E010F5F1F4F6801E114F104FF
:102A100079F0D701ED91FC910680F781E02DB801A6
:102A2000C7010995080F111DF701E084F184EECF6D
:102A3000D8011C92F60101900020E9F73197BF01FF
:102A40006C197D0940E0C601C6CF6AE173E0FB0165
:102A5000449150E080E80E94D80309CF973009F4F0
:102A6000BECF983021F481E08093F10000CF9930FF
:102A700009F0FDCE837009F0B2CFE3ECF1E081E024
:102A800031E096E32191222371F08093E9003093A5
:102A9000EB00DF0111972C912093EC009093ED0057
:102AA0008F5F873079F78EE78093EA001092EA0013
:102AB0008F8980930204DBCE8B8D9C8D1092E90070
:102AC0001092490310924803909347038093460362
:102AD000898D811192C08E899D89913A49F4813204
:102AE00009F07DCF47E050E064E071E080E0B3CFD3
:102AF000913209F074CF833269F48F89988DB0E0F8
:102B0000A0E08093000190930101A0930201B09393
:102B10000301ADCE803269F48091E80082FFFCCFE2
:102B200067E084E091E00E942F048BEF8093E8003F
:102B30009ECE823209F09BCE8F8980930B01EEEFFF
:102B4000FFE7859194918B3F9C4D51F1E0E0F8E0D7
:102B50008091040190910501A0910601B0910701B7
:102B6000803B9440A105B105F1F480910B0180FDFB
:102B70001AC0EE3F8AE0F80789F587E797E7918367
:102B800080838091600080934A0388E19BE00FB6C8
:102B9000F894A895809360000FBE9093600067CE74
:102BA000EEEFFAE0D5CF808191818737974709F022
:102BB0005ECEA895809160008861809360008091CE
:102BC0004A0380936000EE3F2AE0F20789F080918B
:102BD000FE0A9091FF0A9183808349CE8081918182
:102BE0008737980751F29093FF0A8093FE0AC5CF6A
:102BF0001092FF0A1092FE0A3ACE0E948802DC016F
:102C000012960D911C910115110509F4E8CED80119
:102C1000ED91FC910190F081E02DBE016B5E7F4F44
:102C2000C8010995811123CEF80100851185EBCFEC
:102C3000181619060CF41BCED2CEF1E0FF12BECE50
:102C40006EE173E004CF1F920F920FB60F92112422
:102C5000EF92FF920F931F932F933F934F935F93A6
:102C60006F937F938F939F93AF93BF93EF93FF9354
:102C7000CF93DF9300D0CDB7DEB78091F50390916D
:102C8000F603A091F703B091F8030196A11DB11DC1
:102C90008093F5039093F603A093F703B093F803A2
:102CA0008FEA9EEBADEABEED8093F9039093FA03B1
:102CB000A093FB03B093FC0385EFE82E83E0F82E8E
:102CC0000FEB13E01A830983F70161917F01CE01B5
:102CD00001960E940B0C0F5F1F4F0B3CF3E01F0788
:102CE00089F70F900F90DF91CF91FF91EF91BF91F6
:102CF000AF919F918F917F916F915F914F913F9194
:102D00002F911F910F91FF90EF900F900FBE0F909A
:102D10001F901895EF92FF920F931F93CF93DF931D
:102D2000F82E192FE62E042F81E0860F880F0E94BF
:102D3000AA0383E00E94AA03CF2DD12FEC0EFD2E13
:102D4000F11CCE15DF05B9F007FF13C0FE01849119
:102D50000E94AA03182F80E00E94AA0381232196D3
:102D60008111EFCFDF91CF911F910F91FF90EF90E5
:102D700008958881EDCF81E0F5CF0F931F93CF9316
:102D8000DF938C01EB018CE394E00E94D304C80133
:102D90000E944807BE01DD0F880B990B0E944F0768
:102DA0008EED91E0DF91CF911F910F910C94300740
:102DB0000F931F93CF93DF93CDB7DEB7A8970FB6CE
:102DC000F894DEBF0FBECDBF7F936F937F936F9359
:102DD0009F938F9383E292E09F938F938E010F5F77
:102DE0001F4F1F930F930E94EC1D81ED92E00E94F4
:102DF000D304C8010E9430070FB6F894DEBF0FBE9F
:102E0000CDBFA8960FB6F894DEBF0FBECDBFDF9141
:102E1000CF911F910F91089510920604109205040E
:102E200088EE93E0A0E0B0E080930704909308045C
:102E3000A0930904B0930A048DEC91E090930404EC
:102E4000809303048FEF9FEF9093100480930F04FF
:102E5000E3E5F4E088E7819324E0E237F207D9F76D
:102E600084E6EEE5F1E0ACE2B5E001900D928A95E2
:102E7000E1F786E391E0E2E9F5E0DF019C011D92D4
:102E800021503040E1F78FEF8093920580939C05AD
:102E90008093A6058093B0058093BA058093C405FE
:102EA0008093CE058093D8058093E2058093EC054E
:102EB0008093F6058093000680930A06809314069B
:102EC00080931E06809328068093320680933C06EA
:102ED000809346068093500680935A06809364063A
:102EE00080936E06809378068093820680938C068A
:102EF000809396068093A0068093AA068093B406DA
:102F00008093BE061092E9061092E8061092EA0637
:102F10001092EB061092ED061092EC060895CF93F6
:102F2000DF9300D000D0CDB7DEB7789484B582604F
:102F300084BD84B5816084BD85B5826085BD85B55D
:102F4000816085BD80916E00816080936E001092DB
:102F50008100809181008260809381008091810056
:102F600081608093810080918000816080938000E7
:102F700080919100826080939100809191008160A6
:102F80008093910080919000816080939000809167
:102F9000C10084608093C1008091C10082608093F1
:102FA000C1008091C10081608093C1008091C30005
:102FB00081608093C3008091C00082608093C000D4
:102FC0008091C20081608093C20080917A00846009
:102FD00080937A0080917A00826080937A00809159
:102FE0007A00816080937A0080917A008068809373
:102FF0007A001092020410924E0310924D038091B9
:10300000D70081608093D70080EA8093D80089B58B
:10301000806189BD89B5826089BD09B400FEFDCF9C
:103020000E9472038091D8008F7C80618093D800C9
:103030008091E000807F8093E0008091E1008E7EAF
:103040008093E1008DE08093E200559A209AA89544
:1030500080E20E944B0682E79CE09093ED0680930D
:10306000EC068DE499E09093EF068093EE068AEBF0
:1030700090E00E942E1C89838BEB90E00E942E1C16
:103080008A838CEB90E00E942E1C8B838DEB90E06A
:103090000E942E1C8C830E949B0709811A812B8120
:1030A0003C81601771078207930709F078C022E717
:1030B000E22E24E0F22E10E000E0C8010E942E1C57
:1030C000D7018D937D010F5F1F4F0A3B1105A9F7B3
:1030D0008FEF9FEF9093100480930F0481E00E9484
:1030E000F40880917404909175040E94B105EFE892
:1030F000F4E001900020E9F7EF5AF44011F40E9447
:10310000590881E00E94F40882E00E94F40888ECEB
:10311000E82E86E0F82E90E0C92E90E0D92E02E944
:1031200015E0F8018185882379F080810E94E8020A
:10313000D80112968C93129711969C91913009F0B8
:103140009BC0C8010E948905065F1F4FE016F1066B
:1031500041F780911601882309F414C18091760407
:1031600090917704892B09F40DC1809165039091AA
:103170006603A0916703B0916803892B8A2B8B2B80
:1031800009F0E4C00E940D090E948A036093650360
:10319000709366038093670390936803F3C08FEF87
:1031A0009FEF9093100480930F0481E00E94F40835
:1031B00080EF92E00E943C07EAE7F4E085E1DF015E
:1031C0001D928A95E9F781E080937204109273044E
:1031D00088EE93E0909377048093760489E190E001
:1031E00090937904809378044FE150E068E770E0B1
:1031F0008FE894E00E94BB1DEFEAF4E08CE7DF016A
:103200001D928A95E9F780EA9FE090937504809378
:1032100074040E94240C8AEF92E00E943C0760E054
:1032200072EC84E093E00E947B076091730470E08D
:103230008AE093E00E947B076091760470917704A6
:103240008FE093E00E947B0760917804709179048D
:1032500089E193E00E947B076091720470E087E24D
:1032600093E00E947B07609174047091750482E37F
:1032700093E00E947B0735CF209178043091790448
:10328000232B09F45ECF923029F491E0813029F4A8
:1032900090E003C091E08130D9F7F8014581568173
:1032A00067817085452B462B472B71F484818917E4
:1032B00009F44ACF0E948A03D80115966D937D9335
:1032C0008D939C93189740CF0E948A03F8018580C4
:1032D0009680A780B084AB01BC01481959096A09DE
:1032E0007B098091780490917904B0E0A0E0841784
:1032F0009507A607B70708F027CFC8010E948905E0
:10330000D8011396AC9013971496AC92F8011582DD
:10331000168217821086B0808DE20E94E5080E9416
:1033200048078AE393E00E9448076B2DBB0C770B9C
:10333000880B990B0E944F0788E093E00E94480792
:103340008A2D0E9494070E94E806FECE0E948A03FE
:103350000091650310916603209167033091680323
:10336000AB01BC01401B510B620B730B80917604C7
:1033700090917704B0E0A0E084179507A607B707FF
:1033800008F400CF83E094E00E943F05892BD9F137
:1033900083E094E00E94FD04182F8091EB061A3020
:1033A000E1F4E091E806F091E906E80FF11D1082E2
:1033B000E091EC06F091ED06309739F06091EB0664
:1033C0008091E8069091E90609951092EB06E0914C
:1033D000E806F091E9061082D5CF9091EA068913AC
:1033E00003C0885F0E944B068091E8069091E90631
:1033F000E091EB0621E02E0F2093EB06E80FF92F6A
:10340000F11D1083BFCFA895C114D10409F487CE54
:103410000E94000084CE0F931F93CF93DF938230DE
:10342000910510F482E090E0E091F206F091F3064D
:1034300030E020E0B0E0A0E0309799F421153105AC
:1034400009F44AC0281B390B24303105D8F58A818C
:103450009B816115710589F1FB0193838283FE01D4
:1034600011C0408151810281138148175907E0F052
:103470004817590799F4109761F012960C93129718
:1034800013961C933296CF01DF91CF911F910F912C
:1034900008950093F2061093F306F4CF2115310539
:1034A00051F04217530738F0A901DB019A01BD0121
:1034B000DF01F801C1CFEF01F9CF9093F3068093BC
:1034C000F206CDCFFE01E20FF31F819391932250BC
:1034D000310939832883D7CF2091F0063091F10646
:1034E000232B41F420911A0130911B013093F106F6
:1034F0002093F00620911801309119012115310512
:1035000041F42DB73EB740911C0150911D01241B81
:10351000350BE091F006F091F106E217F307A0F405
:103520002E1B3F0B2817390778F0AC014E5F5F4F19
:103530002417350748F04E0F5F1F5093F106409354
:10354000F006819391939FCFF0E0E0E09CCFCF9382
:10355000DF930097E9F0FC01329713821282A09169
:10356000F206B091F306ED0130E020E01097A1F4EF
:1035700020813181820F931F2091F0063091F10656
:103580002817390709F061C0F093F106E093F006BF
:10359000DF91CF910895EA01CE17DF07E8F54A8160
:1035A0005B819E0141155105B1F7E901FB83EA8377
:1035B00049915991C40FD51FEC17FD0761F4808123
:1035C00091810296840F951FE901998388838281F6
:1035D00093819B838A83F0E0E0E012968D919C9129
:1035E00013970097B9F52D913C911197CD01029653
:1035F000820F931F2091F0063091F10628173907AA
:1036000039F6309751F51092F3061092F206B09306
:10361000F106A093F006BCCFD383C28340815181D1
:10362000840F951FC817D90761F44E5F5F4F8881DB
:103630009981480F591F518340838A819B819383CD
:1036400082832115310509F0B0CFF093F306E093A2
:10365000F2069ECFFD01DC01C0CF13821282D7CFCC
:10366000B0E0A0E0E6E3FBE10C94821C5C016B019E
:103670007A016115710519F0FB0191838083E114D2
:10368000F10449F0C7010297839728F060E070E0E9
:10369000CB019CC05E01E5012196F5011081812FCF
:1036A00090E00E941B1C892BA9F71D3209F056C01F
:1036B0002196F501118101E0E114F10409F4AEC095
:1036C000F0E1EF16F10409F08EC0103341F4888167
:1036D0008F7D883509F083C0198122960260E0E170
:1036E000EE2EF12C88248A94982CA82CFFE0BF2E73
:1036F00020E060E070E0CB0127010F2C000C660891
:103700007708FE0150ED352E310E39E0331538F4CF
:103710003FEB310F3A31A0F549EC342E310E3E1417
:103720001F04BCF52F3FB9F086169706A806B90608
:1037300070F1A30192010E94441C232D30E050E05F
:1037400040E0620F731F841F951F62177307840781
:103750009507E8F021E021961081D3CF1B3221F4A8
:10376000E5012296F501118100E0A6CF78E0E72E71
:10377000F12C88248A94982CA82C6FE1B62EB8CF0F
:103780003FE9310F3A3128F439EA332EC7CF2FEF12
:10379000E2CFC114D10431F02223E9F02197F601E0
:1037A000D183C08300FF07C0909580957095619587
:1037B0007F4F8F4F9F4F2F3F49F482E290E09093CD
:1037C000F5068093F4066FEF7FEFCB01CDB7DEB740
:1037D000E1E10C949E1C01FFE5CF2297E0CF10E3BE
:1037E000E114F10419F23AE0E316F104E9F080E1A2
:1037F000E816F10409F473CFE8E0EE16F10409F4D9
:10380000B8CF6FEF7FEFCB0197010F2C000C440B6B
:10381000550B0E94541C49015A016ACF103309F418
:1038200056CF9AE0E92EF12C89E9882E982CA82C05
:1038300089E1B82E5DCF91110C942B1C803219F0C8
:1038400089508550C8F70895FB01DC0105900D9261
:103850000020E1F70895992788270895F999FECF68
:1038600092BD81BDF89A992780B50895262FF999C0
:10387000FECF1FBA92BD81BD20BD0FB6F894FA9A53
:10388000F99A0FBE01960895DB018F939F930E94D2
:10389000761CBF91AF91A29F800D911DA39F900DAB
:1038A000B29F900D11240895A1E21A2EAA1BBB1BF2
:1038B000FD010DC0AA1FBB1FEE1FFF1FA217B307FC
:1038C000E407F50720F0A21BB30BE40BF50B661F12
:1038D000771F881F991F1A9469F7609570958095D6
:1038E00090959B01AC01BD01CF0108950E94B81CC9
:1038F000A59F900DB49F900DA49F800D911D112444
:1039000008952F923F924F925F926F927F928F9283
:103910009F92AF92BF92CF92DF92EF92FF920F935E
:103920001F93CF93DF93CDB7DEB7CA1BDB0B0FB668
:10393000F894DEBF0FBECDBF09942A883988488825
:103940005F846E847D848C849B84AA84B984C884BB
:10395000DF80EE80FD800C811B81AA81B981CE0FB2
:10396000D11D0FB6F894DEBF0FBECDBFED01089597
:10397000A29FB001B39FC001A39F700D811D1124B0
:10398000911DB29F700D811D1124911D089597FB0B
:10399000072E16F4009407D077FD09D00E94E11C91
:1039A00007FC05D03EF4909581959F4F0895709542
:1039B00061957F4F0895EE0FFF1F0590F491E02D64
:1039C0000994AA1BBB1B51E107C0AA1FBB1FA61766
:1039D000B70710F0A61BB70B881F991F5A95A9F7B8
:1039E00080959095BC01CD010895B0E0A0E0EBEF8B
:1039F000FCE10C94831C8C01009751F4CB010E94D4
:103A00000B1A8C01C801CDB7DEB7E0E10C949F1C06
:103A1000FC01E60FF71F9C0122503109E217F30762
:103A200008F49DC0D901CD91DC911197C617D70735
:103A300098F0C530D10530F3CE010497861797076B
:103A400008F3C61BD70B2297C193D1936D937C9338
:103A5000CF010E94A71AD6CF5B01AC1ABD0A4C0158
:103A60008C0E9D1EA091F206B091F306512C412CB4
:103A7000F12CE12C109731F58091F0069091F10630
:103A80008815990509F05CC04616570608F058C01D
:103A90008091180190911901009741F48DB79EB75C
:103AA00040911C0150911D01841B950BE817F907EB
:103AB00008F055C0F093F106E093F006F901718328
:103AC0006083A0CF8D919C91119712966C90129764
:103AD00013967C901397A815B90559F56C0142E02F
:103AE000C40ED11CCA14DB0420F1AC014A195B09D5
:103AF000DA011296159780F06282738251834083B7
:103B0000D9016D937C93E114F10471F0D701139600
:103B1000FC93EE93129776CF22968C0F9D1FF9019E
:103B200091838083F301EFCFF093F306E093F206E5
:103B300069CF4816590608F42C017D01D3019ACFAC
:103B4000CB010E940B1A7C01009749F0AE01B8012D
:103B50000E94B21DC8010E94A71A870153CF10E02E
:103B600000E050CFFB01DC0102C001900D924150FA
:103B70005040D8F70895DC0101C06D93415050408A
:103B8000E0F70895FC018191861721F08823D9F789
:103B9000992708953197CF010895FB01DC018D919C
:103BA000019080190110D9F3990B0895FB01DC01F4
:103BB00001900D920020E1F70895FB01DC014150D6
:103BC000504048F001900D920020C9F701C01D92AD
:103BD00041505040E0F70895AEE0B0E0E2EFFDE183
:103BE0000C948F1C0D891E8986E08C831A830983AF
:103BF0008FEF9FE79E838D83AE01475E5F4F6F8996
:103C0000788DCE0101960E94281E2F813885020FE3
:103C1000131FF80110822E96E4E00C94AB1CAEE06A
:103C2000B0E0E5E1FEE10C94911C85E08C838B898A
:103C30009C899A838983AE01495E5F4F6D897E8935
:103C4000CE0101960E948D212E96E2E00C94AD1CCF
:103C5000ABE0B0E0EEE2FEE10C94811C7C013B01A4
:103C60008A01FC0117821682838181FFC8C1CE01BF
:103C700001965C01F7019381F30193FD859193FF18
:103C800081913F01882309F453C1853239F493FDB2
:103C9000859193FF81913F01853229F4B70190E02E
:103CA0000E94EF22E7CF912C212C312CFFE1F3155C
:103CB00038F08B3211F190F4803209F1833229F11E
:103CC00037FC3CC020ED280F2A3050F536FE20C0CE
:103CD0008AE0989E200D1124922E06C08D3291F01C
:103CE000803371F7689430F8F30193FD859193FF69
:103CF00081913F018111DACF21C0689431F8689435
:103D000032F8F2CF689433F8EFCF689434F8ECCF00
:103D1000EAE02E9E200D1124222E689435F8E4CF7F
:103D20008E3229F436FC04C1689436F8DDCF8C3627
:103D300019F4689437F8D8CF8836B1F2982F9F7D60
:103D400095549330E0F08336A1F18337C1F1833588
:103D500009F063C02801F2E04F0E511CF801C08049
:103D6000D180692D70E036FC02C06FEF7FEFC60195
:103D70000E949D224C01689437F882010AC00C5FB2
:103D80001F4FFFE3F98388248394912C6501E89405
:103D900037F833FE2DC0522C8114910471F5552053
:103DA00009F468CFB70180E290E00E94EF225A94B4
:103DB000F6CFF801808189830E5F1F4FE4CF280181
:103DC000F2E04F0E511CF801C080D180692D70E0E7
:103DD00036FC02C06FEF7FEFC6010E94A8224C01A3
:103DE0008201D5CFB70180E290E00E94EF222A94B1
:103DF0002814190409F0B0F7CECFF60137FC8591ED
:103E000037FE81916F01B70190E00E94EF225110BF
:103E10005A94F1E08F1A9108BFCF843619F0893691
:103E200009F077C0F80137FE6BC060817181828133
:103E300093810C5F1F4FF32DFF763F2E97FF09C034
:103E400090958095709561957F4F8F4F9F4F6894A7
:103E500037F82AE030E0A5010E943723C82ECA189F
:103E60008C2C432C36FE0CC0E89440F8C91440F466
:103E700034FE05C032FC03C0F32DFE7E4F2E892C8C
:103E800044FE95C0FE01EC0DF11D8081803309F0E8
:103E900087C0242D297E422E842D8870582E43FC05
:103EA00095C040FE8FC09C2C821418F42C0C922CD0
:103EB000981844FE91C0B70180E390E00E94EF2281
:103EC00042FE09C088E790E041FE02C088E590E02C
:103ED000B7010E94EF22C91408F48AC0CA94D12CF9
:103EE0009FEFC91AD90ACA0CDB1CF60182916F0137
:103EF000B70190E00E94EF22AC14BD04B1F74FCFA0
:103F000060817181072E000C880B990B0E5F1F4F8B
:103F100092CFD32CE894D4F82AE030E0853739F1F9
:103F2000232D297FD22E8F3601F148F48835A9F050
:103F3000F701868197812B96E2E10C949D1C8037D6
:103F400049F08837A9F7D4FE02C06894D2F820E17E
:103F500030E00DC06894D4F8F6CF34FE03C0822F51
:103F60008660D82E20E132E002C028E030E0F8017F
:103F7000D7FE0FC060817181828193810C5F1F4FDA
:103F8000A5010E943723C82ECA183D2CE89437F8A3
:103F900067CF6081718190E080E00E5F1F4FF0CFAE
:103FA00042FC02C0839478CF8394839475CF842D90
:103FB000867809F471CFF6CFB70180E290E00E94D5
:103FC000EF2283948214C0F3512C73CF522C5818D3
:103FD000821408F46ECFF8CF842D867809F47BCF55
:103FE0008BE241FE80E247FC8DE2B70190E071CFA9
:103FF000B70180E390E00E94EF229A946CCF8FEF9C
:104000009FEF99CF20FD09C0FC0123FD05C022FFD1
:1040100002C07383628351834083089544FD17C0B7
:1040200046FD1DC0DB01FC01AA0FBB1FEE1FFF1FD9
:104030001094D1F76A0F7B1F8E1F9F1F660F771F8B
:10404000881F991F620F711D811D911D089533E016
:10405000660F771F881F991F3150D1F7F3CF34E0D7
:10406000F7CF0F931F93CF93DF938C01C8010E946A
:10407000B322EC0197FD08C00E941B1C892BB1F7ED
:10408000B801CE010E941F23CE01DF91CF911F9175
:104090000F9108958F929F92AF92BF92EF92FF92ED
:1040A0000F931F93CF93DF938C01D62F7A01B22EFB
:1040B0000E94B3229C0133272B32310529F02D3287
:1040C0003105A9F46894B7F8D15061F480E0DF912C
:1040D000CF911F910F91FF90EF90BF90AF909F9065
:1040E0008F900895C8010E94B32297FDEFCFCB2D8A
:1040F000CD7F2B2D2073F9F48033E9F4AA24AA9400
:10410000AD0E89F0C8010E94B32297FD0CC0282F84
:104110002F7D283561F4C264D25029F0C8010E9475
:10412000B32297FF08C0812C912C54011BC0B6FE0E
:104130002BC0C260DA2D812C912C540120ED280F68
:10414000283028F1C4FD09C02A3008F1C6FF05C097
:104150002F7D3FEE320F3630C8F0B8010E941F238A
:10416000C1FFB4CFC7FF08C0B094A09490948094CE
:10417000811C911CA11CB11C2C2FB501A401C701ED
:104180000E94022081E0A3CFC261D4CF27504C2FE0
:10419000C501B4010E940E204B015C01C260D150E8
:1041A00009F3C8010E94B32297FFC8CFD9CFA0E27C
:1041B000B0E0EDEDF0E20C94861C5C01962E7A01E5
:1041C000CE0101966C0180E2F60111928A95E9F721
:1041D000F501B381890130E020E0712C812CA0E051
:1041E00041E050E0F801B3FD8591B3FF8191982F34
:1041F0008F01811107C010E000E0C801A096EDE03A
:104200000C94A21C8E3519F42115310541F1A21729
:1042100013064CF48D3549F18D3229F4811006C016
:10422000882483941DC0882009F464C0E92FE69592
:10423000E695E695EC0DFD2DF11D892F8770BA01ED
:1042400001C0660F8A95EAF78081682B6083791632
:1042500051F0971510F49F5FE9CF9150E7CFA1E09F
:104260002F5F3F4FBFCF812CFBCF882019F08E816D
:1042700080628E83AA2359F0F6019E012F5D3F4F85
:104280008081809580833196E217F307C9F78824EF
:104290008394C5010E94B32297FD16C0E82FE695CE
:1042A000E695E695EC0DFD2DF11D208130E0AC0189
:1042B0004770552702C0359527954A95E2F720FDAE
:1042C00006C0B5010E941F23882069F094CFE11435
:1042D000F10429F0F7018083C70101967C019A94CB
:1042E000812C9110D6CFE114F10409F486CFF701A7
:1042F000108283CFE82FE695E695E695EC0DFD2D2F
:10430000F11D982F9770BA0101C0660F9A95EAF7D0
:104310009081692B6083782EA3CFB0E0A0E0E3E921
:10432000F1E20C94841C6C01EB015A01FC01178230
:104330001682512CF601E380FE01E3FC8591E3FE39
:104340008191182FEF018823E9F090E00E941B1C57
:10435000892B21F0C6010E943120ECCF153241F4A7
:10436000FE01E3FC1591E3FE1191EF01153269F4B2
:10437000C6010E94B32297FD8EC01817D9F2B6016C
:104380000E941F23852D90E08AC000E01A3231F48C
:10439000E3FC1591E3FE1191EF0101E0F12C20ED1A
:1043A000210F2A3048F101FF37C0FF2059F318369A
:1043B000B1F11C3609F43DC0112321F3612F70E0E7
:1043C0008CEA90E00E949222892BE1F2912C812CC0
:1043D00000FD06C0F50180809180C50102965C0158
:1043E0001E3679F5F6014681578170E060E0202F96
:1043F000C4010E9402209ECF02606F2D70E090E009
:1044000080E040E20E940E20F62EFE01E3FC1591B2
:10441000E3FE1191EF01C3CFFF24FA94C8CFFE0150
:10442000E3FC1591E3FE1191EF01183609F0C4CFBA
:1044300008600460FE01E3FC1591E3FE1191EF01B9
:10444000BBCF1336C1F401FD02C0FF24F394C601B3
:104450000E94B32297FD1FC08114910429F0F4013A
:104460008083C40101964C01FA94F110F0CF00FD55
:1044700061CF53945FCF1B35B9F49E01A4016F2D1A
:10448000C6010E94D720EC01892B89F7F6018381B0
:10449000807309F477CF8FEF9FEF511073CFCDB7B3
:1044A000DEB7EFE00C94A01CC6010E94312097FDFE
:1044B000F2CF1F36A9F130F4143641F0193639F035
:1044C000006405C01337B9F01537D1F70062202F0B
:1044D000A4016F2DC6010E944A208111C8CFD6CFFA
:1044E0008114910429F0F4016082C40101964C0109
:1044F000FA94FF2071F0C6010E94B3223C0197FD9F
:1045000008C00E941B1C892B59F3B601C3010E94ED
:104510001F238114910409F4AACFF4011082A7CFBC
:104520000061D5CFFC010590061621F00020D9F7D7
:10453000C00108953197CF010895FC0105906150A5
:1045400070400110D8F7809590958E0F9F1F0895A9
:10455000FC016150704001900110D8F78095909552
:104560008E0F9F1F0895CF93DF93EC012B8120FFC7
:104570001AC026FF0CC02F7B2B838E819F81019652
:104580009F838E838A8190E0DF91CF91089522FFEF
:1045900018C0E881F9818081082E000C990B0097E2
:1045A00029F420622B838FEF9FEFEECF3196F983B2
:1045B000E8832E813F812F5F3F4F3F832E839927D2
:1045C000E3CFEA85FB85099597FFF3CF2B81019611
:1045D00021F080E2822B8B83E6CF80E1FBCF0F932B
:1045E0001F93CF93DF93182F092FEB018B8181FD50
:1045F00009C01FEF0FEF812F902FDF91CF911F91F7
:104600000F91089582FF14C02E813F818C819D817E
:10461000281739073CF4E881F981CF010196998385
:10462000888310838E819F8101969F838E83E3CF41
:10463000E885F985812F0995892BA1F3DACFFB0154
:10464000238120FF11C026FD0FC08F3F980771F016
:1046500082832F7D20642383268137812150310975
:1046600037832683992708958FEF9FEF0895FA01E6
:10467000AA27283051F1203181F1E8946F936E7FA1
:104680006E5F7F4F8F4F9F4FAF4FB1E03ED0B4E092
:104690003CD0670F781F891F9A1FA11D680F791FD3
:1046A0008A1F911DA11D6A0F711D811D911DA11DE4
:1046B00020D009F468943F912AE0269F11243019F4
:1046C000305D3193DEF6CF010895462F4770405D8F
:1046D0004193B3E00FD0C9F7F6CF462F4F70405D3E
:1046E0004A3318F0495D31FD4052419302D0A9F799
:1046F000EACFB4E0A6959795879577956795BA9593
:10470000C9F700976105710508959B01AC010A2E58
:1047100006945795479537952795BA95C9F7620F2F
:0E472000731F841F951FA01D0895F894FFCFEE
:10472E00FFFFFFFF00E1000000000000A903A90346
:10473E00A903A903A90300010000F60680000000EA
:10474E0000006410B71DC8206E3BAC30D9269041D6
:10475E00DC76F4516B6B5861B24D3C710550208381
:10476E00B8ED44930FF0E8A3D6D68CB361CBB0C2AC
:10477E00649BD4D2D38678E20AA01CF2BDBD00FFA2
:10478E00FFFF000019FCFFFF00FFFFFF000019FCF8
:10479E00FFFF00FFFFFF000019FCFFFF00FFFFFF00
:1047AE00000019FCFFFF00FFFFFF000019FCFFFFD8
:1047BE0000FFFFFF000019FCFFFF00FFFFFF0000DE
:1047CE0019FCFFFF00FFFFFF000019FCFFFF00FFB9
:1047DE00FFFF000019FCFFFF00FFFFFF000019FCA8
:1047EE00FFFF00C1808100000000000000BD043CFE
:1047FE0004F904EE043F05FD041B050D0A002062BA
:10480E0079746573290050696E4E6F3A2564203DA8
:10481E0020256300446967494F202D2050696E4E54
:10482E006F3D25642C204D6F64653D25642C20530F
:10483E00746174653D2564202864697361626C65DA
:10484E00642900253033643A25355820202563002D
:10485E002D3E00696F7078003100300050696E7324
:10486E00206572726F72002532752532752532758C
:10487E0000526F7461727920636F6E666967207380
:10488E007472696E67206E6F742076616C69640055
:10489E00526F74617279206572726F7200456E7418
:1048AE0072696573206E6F742031206F7220320032
:1048BE004465627567204F4E00204465627567201F
:1048CE004F464600454550524F4D20636F6E7465FE
:1048DE006E74730073657474696E677320287369E0
:1048EE007A653D00637263202873697A653D0032F4
:1048FE002E302E32003B004C656F6E6172646F007D
:10490E00554E4B4E4F574E204D4553534147450044
:10491E00435243204552524F520053657474696E90
:10492E0067733A00426175643D004462673D004919
:10493E006E74657276616C3D004465626F756E6370
:10494E006554696D653D004175746F537461727481
:0C495E003D005761746368646F673A00A5
:00000001FF
